:020000040800F2
:10000000681D002045010008C5010008C70100085F
:10001000CB010008CF010008D30100080000000058
:10002000000000000000000000000000D7010008F0
:10003000D901000800000000133E0008DB010008A1
:100040005F0100085F0100085F0100085F01000810
:100050005F0100085F0100085F0100085F01000800
:100060005F0100085F0100085F0100085F010008F0
:100070005F0100085F0100085F0100085F010008E0
:100080005F0100085F0100085F0100085F010008D0
:100090005F0100085F0100085F0100085F010008C0
:1000A0005F0100085F0100085F0100085F010008B0
:1000B0005F0100085F0100085F0100085F010008A0
:1000C0005F0100085F0100085F0100085F01000890
:1000D0005F0100085F0100085F0100085F01000880
:1000E0005F0100085F0100085F0100085F01000870
:1000F0005F0100085F0100085F0100085F01000860
:100100005F0100085F0100085F0100085F0100084F
:100110005F0100085F0100085F0100085F0100083F
:100120005F0100085F0100085F0100085F0100082F
:10013000DFF80CD003F044FF0048004769010008D5
:10014000681D00200648804706480047FEE7FEE796
:10015000FEE7FEE7FEE7FEE7FEE7FEE7FEE7FEE777
:10016000CB0900083101000800B58BB000F0EBFCB2
:100170000AA800F081FE0AA8032100220592CDE919
:1001800006210890104650210822094BCDE9013282
:10019000CDE9031003200023064A07A10090084878
:1001A00002F0D3F90AA801F0A1F800200BB000BDBD
:1001B00014010020470C00085374617274557000DC
:1001C0009C000020704700BFFEE700BFFEE700BFB5
:1001D000FEE700BFFEE77047704710B500F09DFED8
:1001E00003F0E3FD00F0AAFE10BD0000DF48006848
:1001F00040F00100DD49086008464068DC490840DD
:10020000DA49486008460068DA490840D74908607A
:100210000846006820F4802008600846406820F402
:10022000FE0048604FF41F0088607047CF4909689E
:1002300021F48031CD4A11601146096821F48021F2
:100240001160B0F5803F03D0B0F5802F0ED106E0ED
:10025000C649096841F48031C44A116007E0C349C6
:10026000096841F4A021C14A116000E000BF00BF4D
:10027000704710B501460022002300204A11012AD0
:1002800002D1BA4C236806E0022A02D1B74C236A95
:1002900001E0B64C636A01F01F02012494401C4047
:1002A0000CB1012000E0002010BD38B50020009006
:1002B0000024002500BF3120FFF7DBFF0546009832
:1002C000401C00900098B0F5A06F01D0002DF2D036
:1002D0003120FFF7CEFF08B1012400E000242046C2
:1002E00038BD01460020A14A106820F0F80040EA1D
:1002F000C10010607047A0490860704702460020A6
:100300009A4B586820F47C1042EA01031843974B3B
:100310005860704798490866704701460020934A24
:10032000506820F003000843506070478F484068D1
:1003300000F00C007047014600208C4A506820F005
:10034000F00008435060704701460020874A50681B
:1003500020F4E06008435060704701460020834A63
:10036000506820F4605040EAC1005060704729B1E5
:100370007E4A527A02437D4B5A7204E07B4A527A9B
:1003800082437A4B5A7270477B49D8310860704774
:1003900001460020754A506820F4404008435060F0
:1003A00070470021714A20321170704A82F8201083
:1003B000012802D004280AD104E001216B4A20322E
:1003C000117005E00521694A2032117000E000BF7C
:1003D00000BF70476949086070476449096A014372
:1003E000624A11627047654944390860704730B508
:1003F00000210022002400235C4D6D6805F00C01F3
:1004000021B1042905D0082923D105E05C4D056000
:1004100022E05B4D05601FE0544D6D6805F47012DD
:10042000524D6D6805F48034022505EB92421CB9EB
:10043000544D554305600BE04C4D6D6805F4003597
:100440001DB1504D5543056002E04D4D55430560CB
:1004500002E04B4D056000BF00BF444D6D6805F0E4
:10046000F0010909484D6B5C0568DD4045603F4D72
:100470006D6805F4E061090A434D6B5C4568DD4039
:1004800085603A4D6D6805F46051C90A3E4D6B5C5C
:100490004568DD40C560354D6D6805F44041890B08
:1004A0003A4D6B5CC568B5FBF3F5056130BD29B10C
:1004B0002E4A526902432D4B5A6104E02B4A52697D
:1004C00082432A4B5A61704729B1284A92690243F4
:1004D000264B9A6104E0254A92698243234B9A6134
:1004E000704729B1214AD2690243204BDA6104E006
:1004F0001E4AD26982431D4BDA61704729B11B4AFB
:10050000D2680243194BDA6004E0184AD268824389
:10051000164BDA60704729B1144A12690243134B33
:100520001A6104E0114A12698243104B1A61704744
:1005300012494039086070470F49C86470470B4939
:10054000C87170470948406A40F0807007494862A6
:10055000704701460020054A92680A400AB101200E
:1005600000E0002070470149887270470010024087
:100570000000FFF8FFFFF6FE000042428004424206
:1005800000127A0000093D00000000201000002049
:1005900010B50446CC48844208D101210420FFF75D
:1005A000ADFF00210420FFF7A9FF46E0C7488442C1
:1005B00008D101210820FFF7A1FF00210820FFF743
:1005C0009DFF3AE0C248844208D101211020FFF784
:1005D00095FF00211020FFF791FF2EE0BD488442D7
:1005E00008D101212020FFF789FF00212020FFF7FB
:1005F00085FF22E0B848844208D101214020FFF75E
:100600007DFF00214020FFF779FF16E0B3488442C8
:1006100008D101218020FFF771FF00218020FFF722
:100620006DFF0AE0AE48844207D101218015FFF733
:1006300065FF0021A015FFF761FF10BD10B5012176
:100640000846FFF75BFF00210120FFF757FF10BDB1
:100650002DE9F04102460025002600200023002459
:10066000002791F803C00CF00F0591F803C00CF0BF
:10067000100CBCF1000F03D091F802C04CEA050544
:1006800091F800C0BCF1000F31D0146800202BE0BD
:100690004FF0010C0CFA00F3B1F800C00CEA0306AD
:1006A0009E4220D183004FF00F0C0CFA03F7BC439D
:1006B00005FA03FC4CEA040491F803C0BCF1280FCE
:1006C00006D14FF0010C0CFA00FCC2F814C00AE08D
:1006D00091F803C0BCF1480F05D14FF0010C0CFAA2
:1006E00000FCC2F810C0401C0828D1D31460B1F837
:1006F00000C0BCF1FF0F34DD546800202EE000F193
:10070000080C4FF0010808FA0CF3B1F800C00CEA2D
:1007100003069E4221D183004FF00F0C0CFA03F721
:10072000BC4305FA03FC4CEA040491F803C0BCF195
:10073000280F05D100F1080C08FA0CF8C2F8148053
:1007400091F803C0BCF1480F07D100F1080C4FF03D
:10075000010808FA0CF8C2F81080401C0828CED313
:100760005460BDE8F0814FF6FF7101800221817075
:100770000421C17070470246002093680B400BB102
:10078000012000E0002070470146886880B2704771
:1007900002460020D3680B400BB1012000E000208E
:1007A00070470146C86880B2704701617047416177
:1007B00070470AB1016100E041617047C160704754
:1007C0004FF480320A438261816182618269826969
:1007D000704702460020434B18684FF6807318405C
:1007E00040EA021008433F4B186070473E49C86119
:1007F0007047F0B50A46002300240021002500F0D0
:100800000046B6F1004F02D1364EF16901E0354E97
:100810007168C0F3034583B200F44016B6F5401F7B
:1008200008D121F070612F4E766826F070662D4F4A
:100830007E6012E000F48016B6F5801F06D1032614
:1008400006FA05F4A14341F0706106E0460D360159
:1008500003FA06F6B14341F0706122B1460D36014C
:1008600003FA06F6314300F00046B6F1004F02D11C
:100870001C4EF16101E01B4E7160F0BD30B50022ED
:100880008B071C0F0F2303FA04F2164B08338C104E
:1008900053F824309343134C08348D1044F825301A
:1008A00023468C1053F824308C07240F00FA04F4EC
:1008B00023430C4C08348D1044F8253030BD0A49D0
:1008C000DC3108607047000000080140000C014066
:1008D000001001400014014000180140001C0140BC
:1008E0000020014000000140000020420CB5002023
:1008F000019000906C48006840F480306A490860BC
:1009000000BF6948006800F4003000900198401C66
:100910000190009818B90198B0F5A06FF1D1624824
:10092000006800F4003010B10120009001E00020C8
:1009300000900098012843D15C48006840F0100006
:100940005A4908600846006820F00300086008461D
:10095000006840F00200086053484068524948600F
:100960000846406848600846406840F48060486037
:100970000846406820F47C1048600846406840F40F
:10098000E81048600846006840F08070086000BFCA
:100990004548006800F000700028F9D042484068DF
:1009A00020F00300404948600846406840F00200DB
:1009B000486000BF3C48406800F00C000828F9D1AE
:1009C0000CBD10B5FFF792FF10BD10B5364800689A
:1009D00040F0010034490860084640683449084046
:1009E0003149486008460068324908402E4908608D
:1009F0000846006820F4802008600846406820F41B
:100A0000FE0048604FF41F008860FFF7DAFF4FF0E8
:100A100000602949086010BD10B5002100200022A7
:100A2000214B5B6803F00C0121B1042906D0082991
:100A300028D107E0214B224C236027E01F4B204C9C
:100A4000236023E0184B5B6803F47010164B5B685F
:100A500003F48032022303EB904022B9194B434345
:100A6000174C23600DE0104B5B6803F4003323B197
:100A7000144B4343124C236003E0104B4343104C90
:100A8000236003E00D4B0E4C236000BF00BF064BFC
:100A90005B68C3F303130C4CE15C094B1B68CB4050
:100AA000074C236010BD00000010024000200240EF
:100AB0000000FFF8FFFFF6FE08ED00E000127A00EC
:100AC0001400002000093D001800002030B5014648
:100AD000B1F1807F01D3012030BD21F07F40401E65
:100AE0004FF0E022506150170F22002807DA130759
:100AF0001D0E184B00F00F04241F1D5503E01307B3
:100B00001C0E154B1C5400BF00204FF0E0229061DA
:100B1000072010610020DFE710B5104800684FF48F
:100B20007A71B0FBF1F42046FFF7D0FF0B48006864
:100B30004FF47A71B0FBF1F42046FFF7C7FF08B11C
:100B400000BFFEE710BD10B5FFF7E6FF00F008F8A4
:100B500010BD000018ED00E000E400E014000020EB
:100B600008B501211020FFF7AFFC3820ADF80000D8
:100B700010208DF8030003208DF802006946044818
:100B8000FFF766FD38210248FFF70FFE08BD0000A1
:100B9000001001400EB51BE020215348FFF707FE6F
:100BA00002A800214FF496730A46CDE900100846CA
:100BB00002F003FF20214C48FFF7F7FD02A80021B7
:100BC0004FF496730A46CDE90010084602F0F5FE90
:100BD000E2E70EB519E010214348FFF7E8FD02A84F
:100BE0000021C8230A46CDE90010084602F0E5FEC0
:100BF00010213D48FFF7D9FD02A80021C8230A466D
:100C0000CDE90010084602F0D8FEE4E70EB519E081
:100C100008213548FFF7CBFD02A8002164230A46CE
:100C2000CDE90010084602F0C8FE08212E48FFF763
:100C3000BCFD02A8002164230A46CDE90010084645
:100C400002F0BBFEE4E710B58AB0044609A8032110
:100C500000220592CDE90621089010465021082275
:100C6000224BCDE90132CDE9031004200023AFF27D
:100C700063021FA10090204801F067FC09A803212E
:100C800000220592CDE90621089010465021082245
:100C90001A4BCDE90132CDE9031005200023AFF254
:100CA000CD0217A10090184801F04FFC09A80321BC
:100CB00000220592CDE90621089010465021082215
:100CC000124BCDE90132CDE9031006200023AFF22B
:100CD0003B120FA10090104801F037FC09A90F4802
:100CE00001F05FFD0AB010BD00100140CC020020F1
:100CF0004C454431000000005402002084040020D0
:100D00004C454432000000000C0400203C0600204A
:100D10004C45443300000000C40500209C00002026
:100D20000F481048104811481148124812481348FB
:100D300013481448144815481548164816481748CB
:100D4000174818481848194819481A481A481B489B
:100D50001B481C481C481D481D481E4800BF7047C2
:100D6000A440000804400008084000080C400008A7
:100D70001040000814400008184000081C400008FB
:100D80002040000824400008284000082C400008AB
:100D9000304000083440000838400008484000084F
:100DA0004C400008504000085440000858400008DB
:100DB0005C4000086040000864400008684000088B
:100DC0006C4000087040000874400008784000083B
:100DD0007C40000880400008002400BF19E000BFEC
:100DE00000BF03F0DBF8044600BF00BFFD48006809
:100DF000401CFC490860FC480068401CFA49086037
:100E000000BF00BF204603F0CDF800BF00BF03F0D5
:100E100031F8E4E710B58AB004460020F1490860D3
:100E2000032000210591CDE9070406910846EF490A
:100E30000968EF4A1268EF4B1B68CDE90132CDE932
:100E4000031007200023AFF26F02EBA10090EF48E0
:100E500001F07BFB0AB010BD00210AE001EB41026A
:100E6000EB4B03EB820000220281026042604A1CCD
:100E7000D1B20829F2D3704770B5044602F0FBFFE7
:100E80000020E4490870E4490870E4490870E44926
:100E90000870E44800680A21B0FBF1F0E2490860FC
:100EA000E248006858B1E248056845B1DF48066885
:100EB00003E0761E002028602D1D002EF9D101F0E0
:100EC0004DF9FFF7C9FF204602F071FA208800B102
:100ED00070BD204600F066FF208800B1F8E720468C
:100EE000FFF798FF208800B1F2E7204602F0A5FB4B
:100EF000208800B1ECE7204601F067FA208800B1B5
:100F0000E6E7204601F016F9208800B1E0E700F09E
:100F1000A5FDFFF705FF00BFDAE7BF48007801280D
:100F200000D07047BB480078FA2800DBF9E7B948E1
:100F30000078401CB749087000BFF2E710B50024E4
:100F4000B5480078012800D010BD00BF03F026F896
:100F5000044600BFAF48007828B900BF204603F020
:100F600021F800BFF0E7AB480078401EA94908709F
:100F700008460078002805DD00BF204603F012F87F
:100F800000BFE1E7A5480078002805DD00BF204646
:100F900003F008F800BFD7E701F0EAF8A5490870A8
:100FA0000846007800EB4000994951F82000A2491A
:100FB000086008460068A1490968884205D100BF59
:100FC000204602F0EFFF00BFBEE79D480068401CCE
:100FD0009B4908604FF080509A49086000BF204646
:100FE00002F0E0FF00BF00BFAEE710B50024894863
:100FF0000078002800DD10BD88480078002800DD5A
:10100000F9E700BF02F0CAFF044600BF01F0B0F8E4
:10101000884908700846007800EB40007C4951F888
:1010200020008549086008460068844909688842AC
:1010300005D100BF204602F0B5FF00BFDBE78048C6
:101040000068401C7E4908604FF080507D49086070
:1010500000BF204602F0A6FF00BF00BFCBE770B57F
:10106000044600256B480078002803DD46F66250F0
:10107000208070BD68480078012803D045F689605B
:101080002080F6E765480078FA2803DB45F209205E
:101090002080EEE700BF00BF02F080FF054600BFE2
:1010A00000BF5E480078401C5C49087000BF00BF6C
:1010B000284602F077FF00BF00BF0020208000BF5D
:1010C000D7E770B50446002552480078002803DDB4
:1010D00046F66550208070BD4F480078012803D047
:1010E00045F689602080F6E74C48007818B946F646
:1010F00064502080EFE700BF00BF02F04FFF0546BD
:1011000000BF00BF45480078401E444908700846AB
:10111000007800280ADD00BF00BF284602F042FF29
:1011200000BF00BF46F663502080D4E700BF00BF79
:10113000284602F037FF00BF00BFFFF756FF002030
:10114000208000BFC7E72DE9F04105460C46164652
:10115000002700BF00BF02F021FF074600BF00BF0D
:10116000012D03D000202E49087002E001202C49F7
:10117000087014B12C48046006E02A4800680A216F
:10118000B0FBF1F02849086000BF00BF384602F00C
:1011900009FF00BF00BF00203080BDE8F08110B51E
:1011A00001460C8924B1012C03D0022C0CD101E0A2
:1011B00000BF14E008684A6802610024C46014613A
:1011C000D0600A6048600AE008684A68C368002482
:1011D0001C61C4600261D0600B60486000BF00BF4A
:1011E00010BD00002C000020640000200C4000080E
:1011F000084000080440000875432F4F532D49490B
:10120000492049646C65205461736B0024130020ED
:101210001414002030000020310000205B0000206A
:1012200060000020644000085C000020344000089A
:101230003040000859000020940000209000002059
:101240007C00002004ED00E02DE9F0410446002779
:10125000F6480078002804DD48F2D1402080BDE83F
:10126000F081F3480078002803DD46F663502080C3
:10127000F5E7F0480078012803D046F67B1020807F
:10128000EDE700BF00BF02F089FE074600BF00BFC8
:10129000E948007800EB4000E84901EB800630891E
:1012A00002280ADA00BF00BF384602F07BFE00BF0A
:1012B00000BF46F67A102080D1E73046FFF76FFF77
:1012C0003568686D18B9DE480068A86501E0686D8A
:1012D000A86500BF00BF384602F064FE00BF00BF33
:1012E000FFF783FE0020208000BFB8E710B504465A
:1012F000D4480078E8B900F03BFFD34908700846AD
:101300000078CD490870D048007800EB4000CB4908
:1013100051F82000CD49086008460068CC490860B3
:101320000120C849087002F063FD43F6992020802F
:1013300002E045F68A60208010BD0146002008804A
:1013400047F2F850704730B540B145684D6700F13D
:101350000804226893681D6AC56110E091F8345052
:10136000022D02D0072D06D102E0BAA54D6705E097
:10137000BAA54D6702E0BCA54D6700BF00BF30BDF8
:10138000F0B58E6896F8375007893FB90127078175
:1013900000274F600F600160416023E007897F1CD8
:1013A0000781026806E0946894F83770AF4200DD68
:1013B00002E05268002AF6D100BF32B900274F6020
:1013C00043680B60596041600CE017682FB91160E9
:1013D00000270F604A60016004E013680B604A60F8
:1013E00059601160F0BD10B5C287016300230AE0A7
:1013F00000244C600C600C614C610C83CC618860F3
:1014000020315C1CA3B29342F2DB10BD2DE9F04108
:10141000054695F8370000EB4000884901EB800451
:101420002F69EE6887B946B900202081206060608E
:1014300095F8370000F0BEFE0EE02089401E2081A6
:1014400000203061266007E02089401E2081FE6078
:101450000EB9676000E0376100202861E860BDE8F0
:10146000F08138B504460D4685B16B460222294607
:10147000204602F011F9BDF8000018B9032084F8E5
:10148000360006E0022084F8360002E0022084F8EC
:1014900036002046FFF7BAFF38BD2DE9F04105467A
:1014A0000C4616461F466A48006880F834600020E3
:1014B0006749096881F83500394665480068FFF7D3
:1014C000D0FF6CB104F10808EC60012229466048A5
:1014D0000068FFF788FF29464046FFF751FF06E006
:1014E00000205B490968C88759490968086358485A
:1014F00001682046FFF727FFBDE8F08110B5048999
:10150000012C03D100240460446011E00C6824B96C
:101510004A680024146002600AE04C6824B90B6831
:1015200000245C60436003E00B684A685A60136003
:101530000489641E048100244C600C6010BD2DE9F8
:10154000F0410446256BE68F0AE0D5F80C8008F1DF
:10155000080729463846FFF7D1FF2035701E86B2AE
:10156000002EF2DC0020E0872063BDE8F08130B57A
:101570000346086BCC8F08E0C5689D4202D1036129
:10158000C26104E02030651EACB2002CF4DC00BF68
:1015900030BD10B590F8373003EB4303274C04EB14
:1015A00083010B893BB901230B810023C3600361D5
:1015B0000860486009E00B895B1C0B810B68C36005
:1015C000002303610A681061086010BD10B590F82F
:1015D000373003EB4303194C04EB83010B893BB910
:1015E00001230B810023C36003610860486008E0A9
:1015F0000B895B1C0B810023C3604A680261D060C9
:10160000486010BD10B5044694F8370000F0C2FDE4
:1016100094F8370008490978884203D12046FFF73B
:10162000D5FF02E02046FFF7B4FF10BD30000020D8
:101630005B000020600000205800002014140020EF
:101640005C000020310000205900002094000020A0
:10165000900000205461736B205100005461736B43
:101660002053656D000000002000000010B5044606
:10167000204601F0C1FE94F8360000F0040010B9D5
:101680002046FFF7BFFF10BD70B505460C46164655
:1016900094F8360008283FD2DFE800F00405080976
:1016A0000607232400BF00BF00BF36E000BF94F848
:1016B0003400032804D1324621462846FFF757FF5D
:1016C000266415B12046FFF73AFF2046FFF7CEFF0C
:1016D00000203434A07001206070002004F8340928
:1016E0001BE000BF94F83400032804D132462146A1
:1016F0002846FFF73CFF266415B12046FFF71FFF81
:10170000204601F079FE04203434A070012060707E
:10171000002004F8340900E000BF00BF70BD30B500
:10172000AFF2BC054D6700F1080422681AB1936856
:101730001D6AC56102E0AFF2D005C56130BD2DE97B
:10174000F04304460F4684F83770256BB4F83E80AA
:1017500013E0D5F80C9009F108063089012807D963
:1017600029463046FFF7CAFE29463046FFF708FEF5
:101770002035A8F101001FFA80F8B8F1000FE8D178
:10178000BDE8F08300210160416001817047038959
:101790005B1C038103684B6000230B60026802B18D
:1017A000116001600389012B00D14160704730B5A1
:1017B0000346086BCC8F08E0C5689D4202D10361E7
:1017C000C26104E02030651EACB2002CF4DC00BF26
:1017D00030BD70B506460C46154694F8360008280C
:1017E0003DD2DFE800F0040508090607222300BF08
:1017F00000BF00BF34E000BF94F83400032804D1D8
:101800002A4621463046FFF7D2FF25642046FFF7DF
:1018100096FE2046FFF72AFF00203434A0700220F5
:101820006070002004F834091AE000BF94F8340016
:10183000032804D12A4621463046FFF7B8FF256425
:10184000204601F0D9FD2046FFF779FE042034340C
:10185000A07002206070002004F8340900E000BF8E
:1018600000BF70BDF0B50446059E086BCD8F0AE041
:10187000C768A74204D1046142610383C66104E0E2
:1018800020306F1EBDB2002DF2DC00BFF0BD2DE98F
:10189000F84306460C4617469846089D94F83600CD
:1018A00008284AD2DFE800F00405080906072829BD
:1018B00000BF00BF00BF41E000BF94F83400032820
:1018C00007D143463A46214630460095FFF7CAFF06
:1018D00000E0256436B12046FFF731FE2146304650
:1018E000FFF71DFF2046FFF7C1FE00203434A07033
:1018F000607004F8340921E000BF94F83400032834
:1019000007D143463A46214630460095FFF7AAFFE5
:1019100000E02564204601F06FFD36B12046FFF758
:101920000EFE21463046FFF7FAFE04203434A07044
:101930000020607004F8340900E000BF00BFBDE87B
:10194000F88310B5002400BF02F028FB044600BF56
:101950000020394908703948394908603948006819
:10196000401C384908604FF080503749086000BF7C
:10197000204602F017FB00BF10BD70B505460026DB
:1019800032480078012800D070BD00BF00BF02F0CF
:1019900005FB064600BF00BF2C683CB900BF00BF76
:1019A000304602F0FFFA00BF00BFEDE7284884424E
:1019B00007D100BF00BF304602F0F4FA00BF00BFFD
:1019C000E2E7A06D10B1A06D401EA065A06D38B11A
:1019D00000BF00BF304602F0E5FA00BF00BFD3E70A
:1019E0002889022807DA00BF00BF304602F0DAFA81
:1019F00000BF00BFC8E717480078002807DD00BF18
:101A000000BF304602F0CEFA00BF00BFBCE7284658
:101A1000FFF7C5FB2C68606D18B90F480068A0651A
:101A200001E0606DA06500BF00BF304602F0BAFA69
:101A300000BF00BF00BFA7E7590000209C13002093
:101A4000940000207C00002004ED00E060000020F5
:101A5000241300205B0000205C00002019481A4875
:101A60001A481B481B481C481C481D481D481E4856
:101A70001E481F481F482048204821482148224826
:101A800022482348234824482448254825482648F6
:101A900026482748274828482848294829482A48C6
:101AA0002A482B482B482C482C482D482D482E4896
:101AB0002E482F482F48304830483148314800BF21
:101AC00070470000A840000810420008AA40000823
:101AD000AB400008AC400008B0400008B44000082B
:101AE000B1400008E4400008E6400008E840000873
:101AF000084100080A4100080C4100081441000890
:101B0000404100084641000847410008484100089C
:101B10004A4100084C4100084E410008504100086D
:101B20005241000854410008844100088A410008DD
:101B30008C410008B4410008BA410008BC410008CB
:101B4000C0410008C1410008C2410008C34100086B
:101B5000C4410008C5410008C6410008C74100084B
:101B6000C8410008CA410008CB410008CC41000828
:101B7000CE410008D0410008D1410008D4410008FE
:101B8000084200080E4200082DE9F84F04460D46B1
:101B900016461F46DDE90BABDDF82890DDF83480F2
:101BA0000020009000BF00BF02F0F8F9009000BFD5
:101BB00000BFB0480088B049098888423BDAAD4888
:101BC0000088401CAB490880AC48008809888842DE
:101BD00003DAA8480088A9490880A9480068046079
:101BE000A74800688560A6480068C660A4480068E9
:101BF0000782A3480068C0F81490A1480068A0F8C4
:101C000018A09F480068C0F81CB09D480068406854
:101C10009B49086001209B4908819B4808604860F7
:101C2000002000F0B7FA9948007899490870002020
:101C3000A8F8000008E097480088401C95490880F3
:101C400044F25360A8F8000000BF00BF009802F003
:101C5000A9F900BF00BFBDE8F88F2DE9F84F4FF09C
:101C6000000B00BF00BF02F099F9834600BF00BF20
:101C70008948006806688848006884688648006863
:101C8000D0F80C8084480068B0F810A08248006842
:101C9000D0F8149080480068078B7F480068C569B9
:101CA0007D48006840687C49086000BF00BF584616
:101CB00002F078F900BF00BF7849701A8E4214D044
:101CC00009DC7748304478B17649084450B1764908
:101CD000084410BB0AE07549084470B174490844CF
:101CE000D8B900E01AE019E018E017E06B462A4680
:101CF0003946204601F004F810E06549097801EB07
:101D00004101604A02EB8100FFF737FE6B462A462D
:101D10000021684800F0F4FF00E000BF00BFBDE80C
:101D2000F88F002700BF3CE0002638E051480088CB
:101D3000C0B900BF00BF02F031F9074600BF00BFC5
:101D40000020504908810860486000F033FA00BF65
:101D500000BF384602F026F900BF00BFFFF745F983
:101D600001261CE00025FFF778FF6C42524800680E
:101D7000844201D95048046000BF00BF02F00EF950
:101D8000074600BF00BF3B480088401E3949088015
:101D900000BF00BF384602F005F900BF00BF002EAB
:101DA000C4D0C1E7F0B589B00546002039490880A4
:101DB0004248006820B944F25260288009B0F0BD62
:101DC0002D480088022803DA44F254602880F5E7A1
:101DD0000020394908603948046826462036002723
:101DE0000CE0374820600020A060E0602082606145
:101DF0002083666020342036781C87B21E48008815
:101E00008742EEDB203C2D48066866601C48066071
:101E10002148066000201749088018490880294891
:101E2000006818B946F62C602880C7E72648006885
:101E300026490968884203D246F62D602880BDE70E
:101E4000032000210591CDE9070506911E48006891
:101E50001F4A12681B4B1B68CDE90301CDE9013213
:101E600000910B46AFF245121AA1074800F06DFB36
:101E700000BFA3E73C000020184000083E000020FF
:101E800034000020141400209C130020580000206F
:101E90005A0000204000002038000020544D5347D5
:101EA000ADBAB2BE0DF90BFAF2F8F7FF000410FC60
:101EB00003F4FDF5EC140020440000201440000859
:101EC0004E4F4E4520400008284000086040000862
:101ED0002440000875432F4F532D49494920495349
:101EE00052205175657565205461736B00000000C8
:101EF000002181619349096811B90021C16105E0A0
:101F000090490968C1618F49096888618D490860F5
:101F100070472DE9FF4F83B0044615461F46DDE9A3
:101F200010960020009088480078002805DD45F2D2
:101F3000B960308007B0BDE8F08F1DB945F2BB60D5
:101F40003080F7E7022F03DA45F2BC603080F1E71A
:101F5000B9F1040F03D245F2C1603080EAE74FF0D7
:101F6000030ABAF1000F0CD005EA0A0018B145F2D5
:101F7000BB603080DEE709EA0A0010B145F2C160BB
:101F80003080AB46A846781E80B2019000200290B7
:101F900007E0C844CBF80080C3460298401C80B2DA
:101FA0000290DDE901108842F3DB0020CBF800004D
:101FB00000BF00BF00BF01F0F1FF009000BF00BFF5
:101FC00062480078401C6149087000BF00BF00985B
:101FD00001F0E8FF00BF00BF00BF5D48206004982B
:101FE000A0606560E560A7826782A4F81090204633
:101FF000FFF77EFF57480088401C5649088000BF05
:1020000000BF00BF01F0CAFF009000BF00BF4F48F3
:102010000078401E4D49087008460078A0B94E4827
:102020000088002809DD00BF00BF009801F0BAFF5A
:1020300000BF00BFFFF785FC0DE000BF00BF0098A8
:1020400001F0B0FF00BF06E000BF00BF009801F044
:10205000A9FF00BF00BF00BF0020308000BF69E7BC
:102060002DE9F04104460D4600272CB945F2BF602A
:1020700028800020BDE8F08100BF00BF01F08EFF86
:10208000074600BF00BFA08A58B900BF00BF38464E
:1020900001F088FF00BF00BF45F2C2602880002029
:1020A000E8E7E6683068E060A08A401EA08200BFD2
:1020B00000BF384601F076FF00BF00BF0020288037
:1020C0003046D7E72DE9F04104460E461546002775
:1020D00024B945F2BF602880BDE8F0811EB945F201
:1020E000BE602880F8E700BF00BF01F057FF074639
:1020F00000BF00BFA08A618A88420ADB00BF00BF20
:10210000384601F04FFF00BF00BF45F2BA6028809B
:10211000E2E7E0683060E660A08A401CA08200BF71
:1021200000BF384601F03EFF00BF00BF00202880FE
:1021300000BFD1E70021034A1160064A11800180E7
:102140007047000048000020300000205B000020A5
:102150004D454D204C0000203C000020002004E0B4
:1021600000211C4A42F82010401C0028F8D070477B
:1021700070B50025174C03E005F12000C5B2241D01
:1021800020680028F8D0206801F00FFF2844C5B26D
:10219000284670BD30B5420900F01F030121C3F18C
:1021A0001F04A1400B4C54F822400C43094D45F844
:1021B000224030BD30B5420900F01F030121C3F1B8
:1021C0001F04A140034C54F822408C43014D45F8B4
:1021D000224030BD2800002070B5044600260020B3
:1021E0009C4908609C4908809C4908609C4908609B
:1021F0009C4805680EE000BF00BF01F0CFFE064618
:1022000000BF00BF2D6F00BF00BF304601F0CAFE07
:1022100000BF00BF002DEED101F038FB0020208070
:1022200070BDF8B5044600266A460021022001F080
:102230003FFBBDF8000018B1BDF800002080F8BDDC
:1022400000BF00BF01F0AAFE064600BF00BF00208D
:102250008549086000BF00BF304601F0A3FE00BF03
:1022600000BF00258148006881490968884205D976
:102270007E4800687E490968B0FBF1F525B97B48C6
:1022800000680A21B0FBF1F56A460021284601F0FA
:102290000FFB00BF00BF01F081FE064600BF00BF7C
:1022A00000206E490860704800687249086001208B
:1022B0007149087000BF00BF304601F073FE00BFD7
:1022C00000BF0020208000BFB9E708B54FF000082C
:1022D00000BF06E06649096848006A46002101F02F
:1022E000E7FA654800780128F4D16846FFF774FFE3
:1022F00000255E4800685E490968884205D95B4848
:1023000000685B490968B0FBF1F525B957480068DA
:102310000A21B0FBF1F557E0002700BF00BF01F034
:102320003DFE804600BF00BF4F480068534908602B
:1023300000204D49086000BF00BF404601F032FE5A
:1023400000BF00BF4B4800684C490968884213D958
:102350004848006860B149480068642148434549DD
:102360000968B0FBF1F0C0F164004549087006E06F
:1023700064204349087002E064204149087001F07C
:1023800084FD3848046807E06B4604F16402111DBF
:10239000204600F0B1FE246F002CF5D139480078BA
:1023A000012805D10020374908706846FFF714FF5F
:1023B0007E422A480068864201D9284806606A465B
:1023C0000021284601F074FAA6E710B58AB0044649
:1023D00000202549086029490860264908602649E7
:1023E0000870284908702848006820B946F62C6013
:1023F00020800AB010BD2548006825490968884238
:1024000003D246F62D602080F3E7224800780728A3
:1024100003D346F273202080EBE7032000210591CF
:10242000CDE9070406910846184909681A4A126856
:10243000154B1B68CDE90132CDE903101548007832
:102440000023AFF2791215A10090194800F07DF831
:1024500000BFCEE7440000203E00002074000020B2
:102460008C000020800000206400002064400008F0
:102470004C40000868000020700000206C00002024
:1024800061000020780000205040000858400008FB
:1024900060400008484000085440000875432F4F32
:1024A000532D4949492053746174205461736B0062
:1024B000741400200021C166FE49096811B9002189
:1024C000016705E0FB4909680167FA490968C866C0
:1024D000F849086070470022026082604260C26072
:1024E000026142618261C261F3A202620022426221
:1024F0008262C2620263C2870264002106E0002396
:1025000000F15C0242F821304A1CD1B20029F6D019
:10251000002234300261426080F82C204263026362
:1025200002814FF00042426100228261C261026278
:1025300042620270427082700822C270002282637E
:10254000C263DFA20264343870472DE9FF4F87B0C1
:1025500004469046DDE91BA5DDE91496179F00208F
:102560000390D8480078002805DD47F24A102880FB
:102570000BB0BDE8F08F1CB947F2AD102880F7E72B
:10258000B8F1000F03D147F24F102880F0E71EB9D1
:1025900046F62C602880EBE7CB480068874203D2E0
:1025A00046F62D602880E3E71698B84203D346F636
:1025B0002E602880DCE7B9F1080F03D346F27320C0
:1025C0002880D5E7B9F1000F06D1C048844203D076
:1025D00046F273202880CBE7B9F1070F06D1BC483B
:1025E000844203D046F273202880C1E72046FFF7DB
:1025F00072FF002028800AF0010090B10AF002006A
:1026000078B105960020069008E000210598016049
:102610000598001D05900698401C06900698B84243
:10262000F3D3169806EB80000490CDE9007A324689
:102630004046049B0A9901F02CFC0590C4F82880C0
:102640000A98E0620898206284F837900598206024
:102650000498A06019986065199818B99D48006899
:10266000A06501E01998A0651A9860606662A7638A
:10267000A4F83CA04FF0000B08E0002104F15C003E
:1026800040F82B100BF101001FFA80FBBBF1000F8B
:10269000F3D0204601F0FAFB00BF00BF00BF01F0FD
:1026A0007DFC039000BF00BF8B480078401C8A4926
:1026B000087000BF00BF039801F074FC00BF00BFAA
:1026C00000BF94F83700FFF765FD2046FEF77EFF58
:1026D0002046FFF7EFFE81480088401C7F490880B4
:1026E0007F48007801282DD000BF00BF00BF01F057
:1026F00055FC039000BF00BF77480078401E764924
:10270000087008460078A0B976480088002809DDDE
:1027100000BF00BF039801F045FC00BF00BFFFF7FA
:1027200010F90DE000BF00BF039801F03BFC00BFB3
:1027300006E000BF00BF039801F034FC00BF00BFFB
:1027400000BF15E700BF00BF00BF01F027FC0390EA
:1027500000BF00BF60480078401E5F49087000BF9E
:1027600000BF039801F01EFC00BF00BF00BFFEF7D2
:102770003CFC00BFFCE6C26E016F3AB94D4B1960DC
:1027800009B10023CB660023036709E019B90023D0
:102790001367C36604E01167CA6600230367C36654
:1027A000704770B504460D4600264648007800285C
:1027B00003DD47F24E10288070BD4548844203D1A6
:1027C00047F24C102880F7E74048844203D147F293
:1027D0004D102880F0E77CB900BF00BF01F0DEFBA0
:1027E000064600BF00BF4048046800BF00BF304637
:1027F00001F0D8FB00BF00BF00BF00BF00BF01F069
:10280000CDFB064600BF00BF33480078401C32496C
:10281000087000BF00BF304601F0C4FB00BF00BF1E
:1028200000BF94F8360008282DD2DFE800F0040934
:102830000E10080A0F112046FEF7E8FD72E071E065
:1028400000BF204600F0D8FD6CE000BF00BF00BF15
:10285000204600F0D1FD94F83400082810D2DFE8BB
:1028600000F004070508090A0B0600BF00BF08E0D6
:1028700000BF00BF00BF00BF2046FEF760FE00E0C3
:1028800000BF00BF4EE000BF00BF00BF01F086FBED
:10289000064600BF00BF10480078401E0E49087071
:1028A0000846007888BB0F480088002826DD00BF56
:1028B00000BF1BE0800000203F5461736B000000EC
:1028C0002000000030000020604000089C13002021
:1028D000241300205C0000205B0000208400002006
:1028E000310000203C00002090000020304601F024
:1028F00059FB00BF00BFFFF724F80EE000BF00BF88
:10290000304601F04FFB00BF07E0FFE700BF00BF0C
:10291000304601F047FB00BF00BF00BF46F62A600B
:10292000288049E700BF204601F0B1FA2046FFF7B2
:1029300022FFFE480088401EFC4908802046FFF721
:10294000CAFDFF2084F8360000BF00BF00BF01F0C1
:1029500025FB064600BF00BFF5480078401EF4493D
:10296000087000BF00BF304601F01CFB00BF00BF75
:1029700000BFFEF73AFB0020288000BF1CE72DE9CE
:10298000F04104460D4616464FF000082DB146F6BC
:10299000791030800020BDE8F08100BF00BF01F059
:1029A000FDFA804600BF00BF0CB9E248046804F19C
:1029B0005C0050F8257000BF00BF404601F0F2FAFD
:1029C00000BF00BF002030803846E4E72DE9F04129
:1029D00004460D4617461E464FF0000825B146F640
:1029E00079103080BDE8F08100BF00BF01F0D6FA59
:1029F000804600BF00BF0CB9CE48046804F15C00FB
:102A000040F8257000BF00BF404601F0CBFA00BF80
:102A100000BF0020308000BFE4E770B504460D46DB
:102A20000026C5480078002803DD47F255102880AD
:102A300070BD00BF00BF01F0B1FA064600BF00BF85
:102A40001CB1BC48006884420AD100BF00BF3046B8
:102A500001F0A8FA00BF00BF47F257102880E7E74F
:102A60000020288094F8360008287BD2DFE800F0A8
:102A7000040506071243556700BF00BF00BF00BF33
:102A800000BF304601F08EFA00BF00BF47F253107E
:102A9000288072E000BFA6480078401CA449087056
:102AA00000BF00BF304601F07DFA00BF00BF00BF8D
:102AB00014F8600F401E207014F8600928B9002037
:102AC00084F836002046FEF7D1FD00BF00BF00BFEE
:102AD00001F064FA064600BF00BF95480078401E2A
:102AE0009349087000BF00BF304601F05BFA00BF99
:102AF00000BF00BF41E014F8600F401E207014F8C2
:102B0000600910B9012084F8360000BF00BF3046CC
:102B100001F048FA00BF00BF2FE014F8600F401E1C
:102B2000207014F8600910B9022084F8360000BF44
:102B300000BF304601F036FA00BF00BF1DE014F8B8
:102B4000600F401E207014F8600910B9032084F84B
:102B5000360000BF00BF304601F024FA00BF00BFBE
:102B60000BE0FFE700BF00BF304601F01BFA00BFDB
:102B700000BF46F62A6028805AE700BFFEF735FA04
:102B800000BF55E72DE9F0470746884614461D4625
:102B90004FF0000968480078002805DD46F2AE10C5
:102BA00028800020BDE8F0870CB10020206000BF25
:102BB00000BF01F0F3F9814600BF00BF5D48006827
:102BC000406CC8B15B480068406C401E59490968B8
:102BD000486458480068466C1CB156480068006C50
:102BE000206000BF00BF484601F0DCF900BF00BF15
:102BF000002028803046D5E708F4004058B100BFD7
:102C000000BF484601F0CEF900BF00BF46F2B01049
:102C100028800020C6E74648007800280BDD00BF6A
:102C200000BF484601F0BEF900BF00BF46F6635042
:102C300028800020B6E700BF3D480078401C3C4992
:102C4000087000BF00BF484601F0ACF900BF00BFEC
:102C500000BF3B46072200210846FEF71EFC00BFCE
:102C600000BF00BF01F09AF9814600BF00BF3048A5
:102C70000078401E2E49087000BF00BF484601F092
:102C800091F900BF00BF00BFFEF7AFF900BF00BF62
:102C900001F084F9814600BF00BF2648006890F823
:102CA000350020B101280AD0032818D110E01CB14A
:102CB00020480068006C20600020288013E01CB1D0
:102CC0001C480068006C206046F2A91028800AE0C9
:102CD0000CB10020206047F2D920288003E046F69E
:102CE0002B60288000BF00BF12480068466C00BF00
:102CF00000BF484601F056F900BF00BF304651E71B
:102D00002DE9F8430446884617461D464FF0000952
:102D100000BF00BF00BF01F041F9814600BF00BF06
:102D200003480078401C0249087007E08400002036
:102D30005B000020900000203000002000BF00BF9A
:102D4000484601F02FF900BF00BF00BF0CB9F8489A
:102D5000046827640020288094F83600082871D27F
:102D6000DFE800F00405EFF00607F1F200BF00BF56
:102D700000BF0420012804D0022839D004286FD1D4
:102D800070E0606CFF2832D100BF00BF00BF01F0CF
:102D900005F9814600BF00BFE6480078401EE549BE
:102DA000087008460078A0B9E3480088002809DDCB
:102DB00000BF00BF484601F0F5F800BF00BFFEF7B6
:102DC000C0FD0DE000BF00BF484601F0EBF800BFBA
:102DD00006E000BF00BF484601F0E4F800BF00BFB6
:102DE00000BF46F6C55028800020BDE8F88371E09A
:102DF0004FF6FF71606C884233D100BF00BF00BF47
:102E000001F0CCF8814600BF00BFCA480078401EE0
:102E1000C849087008460078A8B9C7480088002843
:102E200009DD00BF00BF484601F0BCF800BF00BF8D
:102E3000FEF787FD0EE000BF00BF484601F0B2F884
:102E400000BF07E0D9E000BF00BF484601F0AAF884
:102E500000BF00BF00BF46F6C55028800020C4E771
:102E600037E037E0606C401C88BB00BF00BF00BF8C
:102E700001F094F8814600BF00BFAE480078401EC4
:102E8000AC49087008460078A0B9AB480088002813
:102E900009DD00BF00BF484601F084F800BF00BF55
:102EA000FEF74FFD0DE000BF00BF484601F07AF885
:102EB00000BF06E000BF00BF484601F073F800BF46
:102EC00000BF00BF46F6C550288000208DE7FFE711
:102ED00000E000BF00BF606C401C6064666C00BF17
:102EE00000BF00BF01F05AF8814600BF00BF914803
:102EF0000078401E8F49087008460078A0B98E48B7
:102F00000088002809DD00BF00BF484601F04AF8EC
:102F100000BF00BFFEF715FD0DE000BF00BF484633
:102F200001F040F800BF06E000BF00BF484601F0D6
:102F300039F800BF00BF00BF91E005E003E001E009
:102F4000FFE700BF00BF00BF94F83400072822D17C
:102F500000231A46214618460097FEF798FC666C37
:102F600000BF00BF00BF01F019F8814600BF00BFDD
:102F700070480078401E6F49087000BF00BF484687
:102F800001F010F800BF00BF00BF08F4004098BB7C
:102F9000FEF72BF830E0606C401C6064666C00BF8C
:102FA00000BF00BF00F0FAFF814600BF00BF6148CC
:102FB0000078401E5F49087008460078A0B95E4856
:102FC0000088002809DD00BF00BF484600F0EAFF86
:102FD00000BF00BFFEF7B5FC0DE000BF00BF4846D4
:102FE00000F0E0FF00BF06E000BF00BF484600F071
:102FF000D9FF00BF00BF00BF31E000BF00BF00BF6E
:1030000000F0CCFF814600BF00BF4A480078401E58
:103010004849087008460078A0B947480088002849
:1030200009DD00BF00BF484600F0BCFF00BF00BF85
:10303000FEF787FC0DE000BF00BF484600F0B2FF7E
:1030400000BF06E000BF00BF484600F0ABFF00BF76
:1030500000BF00BF46F62A602880002600BF00BFE0
:103060003046C2E62DE9FF4105460F4614460026CC
:103070003248007800280EDD00200090034602460A
:103080002946CDE9026401902D48FEF77DFD002020
:1030900004B0BDE8F0812346324639462846FFF7A2
:1030A0002FFE80464046F3E72DE9F04104460F46E7
:1030B00015464FF0000821480078002805DD46F647
:1030C000C65028800020BDE8F08100BF00BF00F09E
:1030D00065FF804600BF00BF0CB915480468666CE8
:1030E000676400BF00BF404600F05CFF00BF00BF48
:1030F000002028803046E6E72DE9F04705460E46D9
:1031000017461C464FF0000A0C480078002804DDE2
:1031100047F258102080BDE8F0871EB946F2D5204E
:103120002080F8E777B946F2D5202080F3E7000049
:10313000900000205B0000203C00002030000020B8
:103140005453494700BF00BF00F028FF824600BF2C
:1031500000BF0DB99F480568286868B900BF00BF67
:10316000504600F01FFF00BF00BF002030603860F5
:1031700047F252102080CEE795F83C0000F00100A5
:1031800068B900BF00BF504600F00CFF00BF00BF91
:1031900000203060386047F254102080BBE700BF49
:1031A00000BF504600F0FEFE00BF00BF4FF0000819
:1031B000D5F8249003E009F1040908F10108D9F8D1
:1031C00000000028F7D0C6F80080A86BA0EB08002C
:1031D00038600020208000BF9DE770B504460D4692
:1031E00000267D480078002803DD47F25C10288027
:1031F00070BD7A48844203D147F25A102880F7E71D
:103200007748844203D147F25B102880F0E700BF83
:1032100000BF00F0C3FE064600BF00BF0CB96D48FA
:1032200004686C48006884420ED16E48007800281B
:103230000ADD00BF00BF304600F0B4FE00BF00BF93
:1032400046F663502880D3E70020288094F83600A3
:1032500008286CD2DFE800F004313F4D5B5C5D5E16
:1032600000BF60480078401C5E49087000BF00BF86
:10327000304600F097FE00BF00BF00BF042084F876
:103280003600012084F860002046FEF7BFF800BF3A
:1032900000BF00BF00F082FE064600BF00BF5148DD
:1032A0000078401E4F49087000BF00BF304600F054
:1032B00079FE00BF00BF00BF44E0052084F836005F
:1032C000012084F8600000BF00BF304600F06AFEB5
:1032D00000BF00BF36E0062084F83600012084F8E5
:1032E000600000BF00BF304600F05CFE00BF00BFC2
:1032F00028E0072084F83600012084F8600000BF31
:1033000000BF304600F04EFE00BF00BF1AE000BF15
:1033100000BF00BF94F86000401C84F8600000BF4C
:1033200000BF304600F03EFE00BF00BF0AE000BF15
:1033300000BF304600F036FE00BF00BF46F62A60F0
:10334000288055E700BFFDF750FE00BF50E72DE98C
:10335000F04104460D46164600271F480078002815
:1033600004DD46F6C6503080BDE8F08100BF00BFE6
:1033700000F014FE074600BF00BF0CB915480468F2
:103380001DB919480068606500E06565D4E915015C
:10339000884201D9606DA06500BF00BF384600F0CB
:1033A00001FE00BF00BF0020308000BFDCE700212D
:1033B0000E4A11600E4A11800E4A1160018070475A
:1033C00008B50448006800F063FD69460020FFF777
:1033D000E8F908BD900000203000002024130020F0
:1033E0009C1300205B0000205C0000208000002077
:1033F000840000207C00002010B5C269BAB100240E
:1034000004651468844205D14169116039B1002412
:103410008C6104E0816943694B6103B199610024C7
:1034200044618461C461C4649488641E948010BD46
:103430002DE9F05F4FF0000B00BF00BF00BF00F0B0
:10344000ADFD834600BF00BFFE480078401CFD492B
:10345000087000BF00BF584600F0A4FD00BF00BFC9
:1034600000BF4FF0000AF8480068401CF6490860A9
:1034700008460068F5490988B0FBF1F201FB12002B
:103480001FFA80F9F24800EBC9073C68002678E093
:10349000002C75D0D4F8148094F8360008286BD22C
:1034A000DFE800F00408051B0638074B00BF00BF2B
:1034B00000BF62E0E449E06C0968401A2065E24917
:1034C000E06C0968884206D1002084F83600204666
:1034D000FEF7CCF800E001264FE0DB49E06C09681C
:1034E000401A2065D849E06C0968884210D1002054
:1034F00020642046FEF723F82046FEF7B7F80020A8
:103500003434A07003206070002004F8340900E017
:10351000012632E0CC49E06C0968401A2065CA49AE
:10352000E06C0968884206D1042084F83600204601
:10353000FFF762FF00E001261FE0C349E06C096865
:10354000401A2065C049E06C0968884210D100200B
:1035500020642046FDF7F3FF2046FFF74DFF0420CF
:103560003434A07003206070002004F8340900E0B7
:10357000012602E004E0FFE700BF00BF444600E090
:103580000126002E84D0CAF10005B24800688542A9
:1035900001D9B048056000BF00BF00BF00F0FEFCCD
:1035A000834600BF00BFA7480078401EA5490870A9
:1035B00008460078A0B9A8480088002809DD00BFA7
:1035C00000BF584600F0EEFC00BF00BFFEF7B9F99F
:1035D0000DE000BF00BF584600F0E4FC00BF06E06D
:1035E00000BF00BF584600F0DDFC00BF00BF00BFB9
:1035F000BDE8F09F1CB500BF0EE001AB6A4600219C
:103600000846FFF7BFFABDF8040028B993480078D0
:10361000012801D1FFF70CFFEFE7002108E08C4AF9
:1036200002EBC100002202608280C2804A1C91B27B
:10363000864A12889142F2DB704710B58AB0044680
:1036400000208149086083490860FFF7E6FF84484D
:103650000078072804D346F2732020800AB010BDFA
:10366000032000210591CDE9070406917D480268F9
:103670007D4800687D4B1B68CDE90130CDE9032111
:10368000774800780023AFF2930279A100907D483B
:10369000FEF75BFF00BFE1E72DE9F04F0C46164651
:1036A0001D46042E1ED1DFF8A091D9F80090A4EB9E
:1036B0000909A9F1010313F5803F0DD94FF0000965
:1036C000C0F84C90C0F85090C0F81C9047F27E298A
:1036D000A5F80090BDE8F08FC46403F10109C0F8BB
:1036E00050903FE084B3082E25D1D0F8489009EBE4
:1036F0000407DFF85491D9F80090A7EB0909A9F164
:103700000103A34201D2C76406E0DFF83C91D9F877
:103710000090A144C0F84C90DFF82CA1D0F84C9058
:10372000DAF800A0A9EB0A09C0F85090D0F84C9044
:10373000C0F8489016E0DFF81091D9F80090A14445
:10374000C0F84C9004650DE0FFE74FF00009C0F8A9
:103750004C90C0F85090C0F81C9047F27E29A5F814
:103760000090B7E7DFF8E4A0BAF800A0D0F84C90DA
:10377000B9FBFAFB0AFB1B991FFA89F8DFF8D09016
:1037800009EBC802B2F80490B9F1000F0BD14FF069
:103790000009C0F81490C0F8189010604FF00109AB
:1037A000A2F804903EE0116834E0DFF89CA0D1F864
:1037B0004C90DAF800A0A9EB0A09C1F85090D0F8B3
:1037C0005090D1F850A0D1450ED9D1F81490B9F14C
:1037D000000F01D049691DE04FF00009C0F81490B6
:1037E00081614861002115E0D1F81890B9F1000F0E
:1037F00007D14FF00009C0F818904161886110604E
:1038000007E0D1F818C0C0F818C04161CCF8140026
:10381000886100210029C8D1B2F8049009F101099A
:10382000A2F80490B2F80690B2F804A0D14503DAE9
:10383000B2F80490A2F80690C2614FF00009A5F812
:10384000009021E05B000020880000207C40000800
:10385000BC1200208C0000203C0000203100002021
:103860006840000874400008704000086C40000880
:1038700075432F4F532D494949205469636B205498
:1038800061736B00EC14002000BF23E7002006E00A
:10389000054A02EBC0010022CA80421C90B2034AD2
:1038A00012889042F4DB7047BC1200207C40000874
:1038B0002DE9F04105460E4614460027FE480078E3
:1038C000002804DD47F275202080BDE8F081FB4828
:1038D0000078002803DD46F663502080F5E736B116
:1038E000022E05D0042E0AD0082E09D101E000BF17
:1038F00000BF1DB947F27E202080E6E704E003E028
:1039000045F625602080E0E700BF00BF00BF00BF94
:1039100000F044FB074600BF00BFE8480078401CA9
:10392000E649087000BF00BF384600F03BFB00BF0F
:1039300000BF00BF0120E249096881F83600234634
:1039400032462946DE480068FFF7A6FE2088A8B167
:1039500000BF00BF00BF00F021FB074600BF00BF53
:10396000D6480078401ED549087000BF00BF3846D1
:1039700000F018FB00BF00BF00BFA6E7D0480068FA
:10398000FDF744FD00BF00BF00BF00F007FB074686
:1039900000BF00BFC9480078401EC849087000BF7A
:1039A00000BF384600F0FEFA00BF00BF00BFFDF7C1
:1039B0001CFB0020208000BF87E72DE9FF5F054644
:1039C0000E4617469846DDE90EA400200090BA483E
:1039D0000078002804DD47F275202080BDE8FF9FB5
:1039E000B6480078002803DD46F663502080F5E7EE
:1039F0000AF00E0BBBF1000F09D0BBF1020F07D08C
:103A0000BBF1040F10D0BBF1080F0ED101E000BFD5
:103A100000BFB8F1000F06D12FB926B91DB947F282
:103A20007E202080DAE704E003E045F62560208070
:103A3000D4E700BF2AF01E0008B1012000E00020FA
:103A400003900398012803D145F625602080C5E73F
:103A5000CAF3001002900298C0B9B8F57A7F03D378
:103A600047F27B202080B9E73B2F03DD47F27A2025
:103A70002080B3E73B2E03DD47F279202080ADE7BD
:103A8000632D12DD47F278202080A7E742F20F7005
:103A9000864203DD47F2792020809FE7B5F57A7FE3
:103AA00003DB47F27820208098E78648D0F8009022
:103AB0004FF4FA70B0FBF9F0404400FB09F04FF40A
:103AC0007A71B0FBF1F14FF461606843C6EB061206
:103AD00000EB8200384400FB091001900198002897
:103AE00056D000BF00BF00BF00F058FA009000BFE2
:103AF00000BF72480078401C7049087000BF00BFCA
:103B0000009800F04FFA00BF00BF00BF01206C49D1
:103B1000096881F8360023465A46694801990068C9
:103B2000FFF7BAFD2088A8B100BF00BF00BF00F0BA
:103B300035FA009000BF00BF60480078401E5F4922
:103B4000087000BF00BF009800F02CFA00BF00BF53
:103B500000BF43E75A480068FDF758FC00BF00BFAC
:103B600000BF00F01BFA009000BF00BF5348007870
:103B7000401E5249087000BF00BF009800F012FAC2
:103B800000BF00BF00BFFDF730FA0020208002E038
:103B900047F27E20208000BF20E770B505460C4626
:103BA000002645480078002803DD47F27620208073
:103BB00070BD1DB947F251102080F9E700BF00BF6A
:103BC00000F0ECF9064600BF00BF95F83600082863
:103BD0007AD2DFE800F0040F3E49545F96A100BF9F
:103BE00000BF304600F0DEF900BF00BF47F25110C1
:103BF0002080A7E000BF31480078401C2F490870A2
:103C000000BF00BF304600F0CDF900BF00BF00BFCD
:103C1000002085F836002846FFF7EEFB2846FDF722
:103C2000F1FC00BF00BF00BF00F0B8F9064600BFBE
:103C300000BF22480078401E2049087000BF00BF26
:103C4000304600F0AFF900BF00BF00BF0020208069
:103C500078E000BF00BF304600F0A4F900BF00BF0D
:103C600047F2511020806DE000BF00BF304600F0E9
:103C700099F900BF00BF47F25110208062E000BFF9
:103C800000BF304600F08EF900BF00BF47F2511070
:103C9000208057E000BF09480078401C07490870A1
:103CA00000BF00BF304600F07DF900BF00BF00BF7D
:103CB000042085F8360008E0300000205B0000207A
:103CC000900000206440000831E02846FFF794FB94
:103CD00000BF00BF00BF00F061F9064600BF00BF93
:103CE0003E480078401E3D49087000BF00BF304686
:103CF00000F058F900BF00BF00BF47F25910208004
:103D000020E000BF00BF304600F04CF900BF00BF0C
:103D100047F25110208015E000BF00BF304600F090
:103D200041F900BF00BF47F2511020800AE000BFF8
:103D300000BF304600F036F900BF00BF46F62A60EB
:103D4000208000BF00BFFDF750F900BF30E770B51D
:103D50000446002600BF00BF00F020F9064600BF61
:103D600000BF1F48056800BF00BF304600F01AF9C9
:103D700000BF00BF00202080284670BD70B50446FB
:103D80000D46002600BF00BF00F008F9064600BF40
:103D900000BF1348046000BF00BF304600F002F9C6
:103DA00000BF00BF0020288070BD10B586B000F0B5
:103DB000CFF8002405A800210091CDE9011403905B
:103DC0000848007800EB4000074A02EB800100231E
:103DD0001A460648FDF7D8FE06B010BD5B0000206D
:103DE0008800002058000020141400205449434B40
:103DF00018484FF0FF010170002080F30988164831
:103E0000016881F3088815484FF08051016062B65F
:103E1000FEE772B6EFF3098028B1203880E8F00F92
:103E20000F490968086000B50E4880475DF804EB4B
:103E30000D480E490A78027009480D490A68026067
:103E4000106890E8F00F203080F309884EF0040EDF
:103E500062B6704722ED00E09800002004ED00E01B
:103E6000900000204F3F000858000020590000201B
:103E7000940000207047424800684249096800EBFE
:103E80008100001F404908607047704770477047C5
:103E90007047F0B50446DDE9055602EB85004FF0AA
:103EA000807C071F3846C7F800C0071F38463C60B3
:103EB000DFF8D8C0071F3846C7F800C04FF0123CE3
:103EC000071F3846C7F800C04FF0033C071F3846AD
:103ED000C7F800C04FF0023C071F3846C7F800C0C3
:103EE000071F38463B60071F384639604FF0113CCA
:103EF000071F3846C7F800C04FF0103C071F384670
:103F0000C7F800C04FF0093C071F3846C7F800C08B
:103F10004FF0083C071F3846C7F800C04FF0073C79
:103F2000071F3846C7F800C04FF0063C071F384649
:103F3000C7F800C04FF0053C071F3846C7F800C05F
:103F40004FF0043C071F3846C7F800C0F0BD70476B
:103F5000704701464A1E4FF0E0235A610C4A106830
:103F600020F07F4000BF10601A46126942F005023F
:103F70001A611A46126942F002021A617047000083
:103F8000304000083440000898000020C133000889
:103F900020ED00E072B6704762B67047EFF3108014
:103FA00072B6704780F310887047B0FA80F070479F
:103FB00090FAA0F0704730BF704720BF70470000F4
:103FC000064C074D06E0E06840F0010394E8070066
:103FD00098471034AC42F6D3FCF7AEF81442000810
:103FE0003442000802E008C8121F08C1002AFAD1B2
:103FF00070477047002001E001C1121F002AFBD169
:10400000704700007C0700200C00000080000000CA
:10401000000200007C0900200A00000040010000AE
:10402000BC0A00200C00000080000000000200001C
:10403000BC0C002080000000000200000000000016
:104040000000000000000000060000000A00000060
:10405000BC0E00200C0000008000000000020000E8
:1040600040000000E803000005000000BC10002034
:104070000C00000080000000000200000D000000A5
:1040800068000000000000000000000000000000C8
:104090000000000000000000000000000000000020
:1040A00000000000A80B0000010001007856341247
:1040B00001000000000000000000000000000000FF
:1040C00000000000000000000000000000000000F0
:1040D00000000000000000000000000000000000E0
:1040E00000000000200001000000000000000000AF
:1040F00000000000000000000000000000000000C0
:10410000000000000000000001002000000000008E
:10411000000000000000000000000000000000009F
:10412000000000000000000000000000000000008F
:10413000000000000000000000000000000000007F
:10414000000000000000000120000C00200008001A
:104150000400040000000000000000000000000057
:10416000000000000000000000000000000000004F
:10417000000000000000000000000000000000003F
:10418000000000000000000000000100000000002E
:10419000000000000000000000000000000000001F
:1041A000000000000000000000000000000000000F
:1041B000000000000000000000000C006000000093
:1041C0000401010001000100010000017800080065
:1041D00001010000000000000000000000000000DD
:1041E00000000000000000000000000000000000CF
:1041F00000000000000000000000000000000000BF
:104200000000000000000000000000000000F87541
:104210008A02000034420008000000209C000000D8
:10422000E43F0008D04200089C000020CC1C0000A5
:10423000F43F00080000000001020304010203042F
:10424000060708090204060800A24A04000000004C
:104250000000000001020304060708090000000036
:10426000000000000000000000000000000000004E
:10427000000000000000000000000000000000003E
:10428000000000000000000000000000000000002E
:10429000000000000000000000000000000000001E
:1042A000000000000000000000000000000000000E
:1042B00000000000000000000000000000000000FE
:1042C00000000000000000000000000000000000EE
:0400000508000131BD
:00000001FF
