:020000040800F2
:1000000068EB002045010008C9010008CB01000889
:10001000CF010008D3010008D7010008000000004C
:10002000000000000000000000000000DB010008EC
:10003000DD01000800000000FF6A0008F10100086F
:100040005F0100085F0100085F0100085F01000810
:100050005F0100085F0100085F0100085F01000800
:100060005F0100085F0100085F0100085F010008F0
:100070005F0100085F0100085F0100085F010008E0
:100080005F0100085F0100085F0100085F010008D0
:100090005F0100085F0100085F0100085F010008C0
:1000A0005F0100085F0100085F0100085F010008B0
:1000B0005F0100085F0100085F0100085F010008A0
:1000C0005F0100085F0100085F0100085F01000890
:1000D0005F0100085F010008DF0100085F01000800
:1000E0005F0100085F0100085F0100085F01000870
:1000F0005F0100085F0100085F0100085F01000860
:100100005F0100085F0100085F0100085F0100084F
:100110005F0100085F0100085F0100085F0100083F
:100120005F0100085F0100085F0100085F0100082F
:10013000DFF80CD00CF098F900480047690100087E
:1001400068EB00200648804706480047FEE7FEE7C8
:10015000FEE7FEE7FEE7FEE7FEE7FEE7FEE7FEE777
:10016000871400083101000800B58BB001F07FFA58
:100170000AA802F05DFD0AA8032100220592CDE93C
:100180000621089010464FF480616622094BCDE9A4
:100190000132CDE9031003200023074A07A1009094
:1001A000084804F08EFC0AA802F088FF00200BB07B
:1001B00000BD0000001E00201B190008537461726E
:1001C00074557000881D0020704700BFFEE700BF17
:1001D000FEE700BFFEE700BFFEE77047704710B5BF
:1001E00002F083FD074806F05FFE02F08FFD10BDB0
:1001F00010B502F07AFD06F094F802F03BFA02F036
:1002000085FD10BD28360020DF48006840F0010061
:10021000DD49086008464068DC490840DA49486022
:1002200008460068DA490840D7490860084600686F
:1002300020F4802008600846406820F4FE004860F2
:100240004FF41F0088607047CF49096821F480315E
:10025000CD4A11601146096821F480211160B0F582
:10026000803F03D0B0F5802F0ED106E0C649096863
:1002700041F48031C44A116007E0C349096841F480
:10028000A021C14A116000E000BF00BF704710B557
:1002900001460022002300204A11012A02D1BA4C53
:1002A000236806E0022A02D1B74C236A01E0B64C6B
:1002B000636A01F01F02012494401C400CB101202C
:1002C00000E0002010BD38B500200090002400257B
:1002D00000BF3120FFF7DBFF05460098401C00906F
:1002E0000098B0F5A06F01D0002DF2D03120FFF7BB
:1002F000CEFF08B1012400E00024204638BD0146AD
:100300000020A14A106820F0F80040EAC100106007
:100310007047A04908607047024600209A4B586811
:1003200020F47C1042EA01031843974B5860704751
:1003300098490866704701460020934A506820F0AB
:1003400003000843506070478F48406800F00C007D
:100350007047014600208C4A506820F0F0000843A6
:100360005060704701460020874A506820F4E060E2
:1003700008435060704701460020834A506820F4CB
:10038000605040EAC1005060704729B17E4A527AFD
:1003900002437D4B5A7204E07B4A527A82437A4B85
:1003A0005A7270477B49D831086070470146002077
:1003B000754A506820F4404008435060704700215F
:1003C000714A20321170704A82F82010012802D040
:1003D00004280AD104E001216B4A2032117005E0A3
:1003E0000521694A2032117000E000BF00BF70474C
:1003F0006949086070476449096A0143624A1162A9
:100400007047654944390860704730B500210022C3
:10041000002400235C4D6D6805F00C0121B1042916
:1004200005D0082923D105E05C4D056022E05B4D35
:1004300005601FE0544D6D6805F47012524D6D68F3
:1004400005F48034022505EB92421CB9544D554306
:1004500005600BE04C4D6D6805F400351DB1504D45
:100460005543056002E04D4D5543056002E04B4D9C
:10047000056000BF00BF444D6D6805F0F00109093B
:10048000484D6B5C0568DD4045603F4D6D6805F487
:10049000E061090A434D6B5C4568DD4085603A4D7B
:1004A0006D6805F46051C90A3E4D6B5C4568DD40DE
:1004B000C560354D6D6805F44041890B3A4D6B5C64
:1004C000C568B5FBF3F5056130BD29B12E4A526907
:1004D00002432D4B5A6104E02B4A526982432A4B56
:1004E0005A61704729B1284A92690243264B9A61A2
:1004F00004E0254A92698243234B9A61704729B1EF
:10050000214AD2690243204BDA6104E01E4AD269D3
:1005100082431D4BDA61704729B11B4AD2680243FE
:10052000194BDA6004E0184AD2688243164BDA604D
:10053000704729B1144A12690243134B1A6104E04F
:10054000114A12698243104B1A61704712494039AF
:10055000086070470F49C86470470B49C8717047FD
:100560000948406A40F08070074948627047014678
:100570000020054A92680A400AB1012000E00020EC
:100580007047014988727047001002400000FFF870
:10059000FFFFF6FE000042428004424200127A0051
:1005A00000093D00000000201000002010B50446A6
:1005B000CC48844208D101210420FFF7ADFF00217F
:1005C0000420FFF7A9FF46E0C748844208D1012173
:1005D0000820FFF7A1FF00210820FFF79DFF3AE068
:1005E000C248844208D101211020FFF795FF002165
:1005F0001020FFF791FF2EE0BD48844208D1012171
:100600002020FFF789FF00212020FFF785FF22E04F
:10061000B848844208D101214020FFF77DFF002126
:100620004020FFF779FF16E0B348844208D101214A
:100630008020FFF771FF00218020FFF76DFF0AE0A7
:10064000AE48844207D101218015FFF765FF0021E4
:10065000A015FFF761FF10BD10B501210846FFF797
:100660005BFF00210120FFF757FF10BD2DE9F0418E
:10067000024600250026002000230024002791F8D0
:1006800003C00CF00F0591F803C00CF0100CBCF186
:10069000000F03D091F802C04CEA050591F800C0A4
:1006A000BCF1000F31D0146800202BE04FF0010C9A
:1006B0000CFA00F3B1F800C00CEA03069E4220D108
:1006C00083004FF00F0C0CFA03F7BC4305FA03FC50
:1006D0004CEA040491F803C0BCF1280F06D14FF096
:1006E000010C0CFA00FCC2F814C00AE091F803C037
:1006F000BCF1480F05D14FF0010C0CFA00FCC2F818
:1007000010C0401C0828D1D31460B1F800C0BCF15F
:10071000FF0F34DD546800202EE000F1080C4FF08C
:10072000010808FA0CF3B1F800C00CEA03069E4277
:1007300021D183004FF00F0C0CFA03F7BC4305FAEC
:1007400003FC4CEA040491F803C0BCF1280F05D166
:1007500000F1080C08FA0CF8C2F8148091F803C0F4
:10076000BCF1480F07D100F1080C4FF0010808FA5E
:100770000CF8C2F81080401C0828CED35460BDE8A5
:10078000F0814FF6FF710180022181700421C17058
:1007900070470246002093680B400BB1012000E037
:1007A000002070470146886880B2704702460020EA
:1007B000D3680B400BB1012000E0002070470146D8
:1007C000C86880B2704701617047416170470AB1E3
:1007D000016100E041617047C16070474FF48032B1
:1007E0000A4382618161826182698269704702463F
:1007F0000020434B18684FF68073184040EA0210FF
:1008000008433F4B186070473E49C8617047F0B5D8
:100810000A46002300240021002500F00046B6F11E
:10082000004F02D1364EF16901E0354E7168C0F3D8
:10083000034583B200F44016B6F5401F08D121F0FD
:1008400070612F4E766826F070662D4F7E6012E044
:1008500000F48016B6F5801F06D1032606FA05F4CB
:10086000A14341F0706106E0460D360103FA06F639
:10087000B14341F0706122B1460D360103FA06F62C
:10088000314300F00046B6F1004F02D11C4EF16139
:1008900001E01B4E7160F0BD30B500228B071C0FCC
:1008A0000F2303FA04F2164B08338C1053F824304C
:1008B0009343134C08348D1044F8253023468C1094
:1008C00053F824308C07240F00FA04F423430C4C13
:1008D00008348D1044F8253030BD0A49DC310860F9
:1008E0007047000000080140000C0140001001406A
:1008F0000014014000180140001C0140002001408C
:10090000000001400000204231490143314A11609A
:10091000704770B5002100230F22C47804B32D4C1A
:10092000246804F4E064C4F5E064210AC1F104031E
:10093000CA40447804FA03F1847814402143090141
:10094000254C0678A155047804F01F050124AC401D
:1009500005786D11AD0005F1E025C5F8004109E00D
:10096000047804F01F050124AC401C4D0678761174
:1009700045F8264070BD1A4A0A400243154B1B1F1A
:100980001A60704739B1134A121D12680243114BA5
:100990001B1D1A6006E00F4A121D126882430D4BA0
:1009A0001B1D1A607047042808D14FF0E021096927
:1009B00041F004014FF0E022116107E04FF0E02127
:1009C000096921F004014FF0E02211617047000035
:1009D0000000FA050CED00E000E400E080E100E03A
:1009E00080FFFF1F10B50446FB48844209D1012156
:1009F0008803FFF791FD00214FF48040FFF78CFD45
:100A000032E0F648844209D101214804FFF791FD04
:100A100000214FF40030FFF78CFD25E0F0488442C0
:100A200009D101218804FFF784FD00214FF48020C3
:100A3000FFF77FFD18E0EB48844209D10121C8048B
:100A4000FFF777FD00214FF40020FFF772FD0BE068
:100A5000E548844208D101210805FFF76AFD00211D
:100A60004FF48010FFF765FD10BD2DE9F04786B00B
:100A700005460E460024A24600BFA1460027B089C5
:100A800000B100BF2F462C8A4CF6FF700440F0885E
:100A900004432C82AC894EF6F3100440B0883189AF
:100AA0000843718908430443AC81AC8A4FF6FF4088
:100AB0000440B0890443AC8201A8FFF7A6FCC648F5
:100AC000874202D1DDF810A001E0DDF80CA0A88972
:100AD00000F4004040B10AEBCA0000EB0A10316894
:100AE0004900B0FBF1F807E00AEBCA0000EB0A107E
:100AF00031688900B0FBF1F86420B8FBF0F0040124
:100B00002009642101FB1089A88900F4004040B14C
:100B1000322000EBC900B0FBF1F000F00700044305
:100B200008E0322000EB09106421B0FBF1F000F086
:100B30000F0004432C8106B0BDE8F0874FF4165136
:100B4000016000218180C18001810C21418100214F
:100B50008181704710B502460020108A4FF2FF03D2
:100B600018400B884C8823438C882343CC8823432C
:100B70001843108210BD0021018041808180C18016
:100B8000704721B1828942F40052828104E0828957
:100B90004DF6FF731A4082817047F0B5034600247A
:100BA00000260025002040F66A17B94200D100BF98
:100BB0001846C1F3421401F01F06012707FA06F593
:100BC000012C01D10C3004E0022C01D1103000E0E6
:100BD00014301AB107682F43076002E00768AF437B
:100BE0000760F0BD1AB1838A0B43838202E0838AD7
:100BF0008B4383827047028A4FF6F0731A40028259
:100C0000028A0A430282704782894FF2FF731A40B8
:100C1000828182890A438281704721B1828942F0B0
:100C20000202828104E082894FF6FD731A408281BC
:100C30007047028A4FF6DF731A400282028A0A4323
:100C40000282704721B1028A42F48042028204E0AB
:100C5000028A4BF6FF731A4002827047C1F3080202
:100C60008280704701468888C0F3080070478189F8
:100C700041F0010181817047028BD2B20283028B65
:100C800042EA012202837047028B02F47F42028310
:100C9000028B0A430283704721B1828A42F020020C
:100CA000828204E0828A4FF6DF731A4082827047A4
:100CB00021B1828A42F01002828204E0828A4FF6D9
:100CC000EF731A408282704721B1828A42F0080293
:100CD000828204E0828A4FF6F7731A40828270475C
:100CE00021B1828942F40042828103E08289C2F309
:100CF0000E028281704721B1828A42F400628282B0
:100D000004E0828A4FF2FF731A4082827047828A1F
:100D10004FF6FB731A408282828A0A4382827047AE
:100D200021B1828A42F00202828204E0828A4FF676
:100D3000FD731A408282704702460020B1F5007FA1
:100D400000D100BF13880B400BB1012000E0002050
:100D5000704701F40072B2F5007F00D100BFCA43B2
:100D60000280704770B50246002400230025002051
:100D700040F66A16B14200D100BFC1F3421501F03E
:100D80001F03012606FA03F3012D02D19689334091
:100D900006E0022D02D1168A334001E0968A3340E4
:100DA0000C12012606FA04F41688344013B10CB173
:100DB000012000E0002070BD10B50022002340F6A5
:100DC0006A14A14200D100BF0A1201249440A3B2C8
:100DD000DC43048010BD00000038014000440040A6
:100DE00000480040004C00400050004001460020F8
:100DF000FE4A106800F03800084310607047FB4955
:100E0000096821F00801F94A116011460968014397
:100E100011607047F549096821F01001F34A11602B
:100E200011460968014311607047F148EF49486075
:100E3000F04848607047EE48EC494860ED4848602B
:100E40007047EA48006940F08000E849086170474F
:100E5000E648006940F08000E449086170470420DA
:100E6000E249C96801F0010109B101200EE0DF4942
:100E7000C96801F0040109B1022007E0DB49C96833
:100E800001F0100109B1032000E00420704700B513
:100E900002460423FFF7E3FF034603E0FFF7DFFF0B
:100EA0000346521E012B01D1002AF7D102B90523B6
:100EB000184600BD30B5044604254FF43020FFF736
:100EC000E6FF0546042D17D1C848006940F002002E
:100ED000C649086108464461006940F04000086165
:100EE0004FF43020FFF7D3FF0546C048006941F6B4
:100EF000FD710840BD490861284630BD10B5042485
:100F00004FF43020FFF7C3FF0446042C16D1B74836
:100F1000006940F00400B54908610846006940F0E6
:100F2000400008614FF43020FFF7B1FF0446AF489E
:100F3000006941F6FB710840AC490861204610BDCC
:100F400000B502460423FFF78AFF034603E0FFF7DC
:100F500086FF0346521E012B01D1002AF7D102B9A8
:100F60000523184600BD10B504244FF43020FFF7C8
:100F7000E7FF0446042C16D19C48006940F00400A9
:100F80009A4908610846006940F0400008614FF442
:100F90003020FFF7D5FF04469448006941F6FB7105
:100FA000084092490861204610BD00208F49C96958
:100FB00001F0020109B1012000E00020704730B5C6
:100FC000A5250424FFF7F1FF00B100254FF43020E0
:100FD000FFF75DFF0446042C3AD1854883498860B9
:100FE000844888600846006940F02000086108468F
:100FF000006940F0400008614FF43020FFF747FFE0
:101000000446042C1BD17948006941F6DF71084081
:10101000764908610846006940F01000086176488A
:101020000580E002FFF733FF0446052C10D06F481F
:10103000006941F6EF7108406C49086108E0052C31
:1010400006D06A48006941F6EF71084067490861B7
:10105000204630BD78B506460C4604250020009099
:10106000E802FFF714FF0546042D24D15F4800690C
:1010700040F001005D4908613480E802FFF707FF96
:101080000546042D10D1B01C0090200C009908805A
:10109000E802FFF7FCFE05465448006941F6FE7180
:1010A00008405249086106E05048006941F6FE7167
:1010B00008404E490861284678BD70B504460D4683
:1010C0000426F002FFF7E3FE0646042E11D147483E
:1010D000006940F00100454908612580F002FFF7F2
:1010E000D6FE06464148006941F6FE7108403F4978
:1010F0000861304670BD70B505460E460424E00216
:10110000FFF7C5FE0446042C17D1394837498860DB
:10111000384888600846006940F0100008612E8059
:10112000E002FFF7B4FE0446052C06D02F48006904
:1011300041F6EF7108402D490861204670BD2DE948
:10114000F04304464FF6FF763746B046B1460425D5
:10115000E443E6B2C4F30727C4F307484FEA14692F
:10116000E802FFF794FE0546042D49D120481F49A7
:101170008860204888600846006940F010000861D7
:10118000FF2E06D01C4808300680E802FFF77FFEDD
:101190000546042D08D1FF2F06D017480A300780D6
:1011A000E802FFF774FE0546042D0AD1B8F1FF0FDF
:1011B00007D011480C30A0F80080E802FFF767FE66
:1011C0000546042D0AD1B9F1FF0F07D00A480E30A9
:1011D000A0F80090E802FFF75AFE0546052D0FD053
:1011E0000248006941F6EF71084007E00020024024
:1011F00023016745AB89EFCD00F8FF1F6649086101
:101200002846BDE8F08330B5054604244FF430206D
:10121000FFF73DFE0446042C41D160485E498860DA
:101220005F4888600846006940F020000861084671
:10123000006940F0400008614FF43020FFF727FEBE
:101240000446042C22D15448006941F6DF7108405D
:10125000514908610846006940F0100008611DB15D
:1012600000205049088002E0A5204E4908804FF434
:101270003020FFF70CFE0446052C10D046480069CC
:1012800041F6EF7108404449086108E0052C06D09A
:101290004148006941F6DF7108403F490861204636
:1012A00030BDF0B505460E46174604243B483A4982
:1012B00088603B488860E002FFF7E9FD0446042CA3
:1012C00019D13548006940F010003349086147F0F2
:1012D000F800304328433349891C0880E002FFF7B7
:1012E000D6FD0446052C06D02B48006941F6EF7167
:1012F0000840294908612046F0BD2748C069800898
:1013000070472548006A704700202349096801F0AA
:10131000200109B1012000E00020704729B11E4AD8
:10132000126902431C4B1A6104E01B4A1269824392
:10133000194B1A61704701460020012908D1164A4D
:10134000D26902F001020AB1012008E0002006E0A3
:10135000114AD2680A400AB1012000E0002070471B
:101360000D49C860704704200B49C96801F00101AC
:1013700009B101200EE00849C96801F0040109B172
:10138000022007E00449C96801F0100109B10320F7
:1013900000E0042070470000002002402301674560
:1013A000AB89EFCD00F8FF1F0CB500200190009035
:1013B0006C48006840F480306A49086000BF6948A2
:1013C000006800F4003000900198401C01900098E3
:1013D00018B90198B0F5A06FF1D16248006800F427
:1013E000003010B10120009001E000200090009832
:1013F000012843D15C48006840F010005A49086059
:101400000846006820F0030008600846006840F0C5
:1014100002000860534840685249486008464068E6
:1014200048600846406840F480604860084640686C
:1014300020F47C1048600846406840F4E81048609A
:101440000846006840F08070086000BF45480068AA
:1014500000F000700028F9D04248406820F00300F6
:10146000404948600846406840F00200486000BFBC
:101470003C48406800F00C000828F9D10CBD10B5BC
:10148000FFF792FF10BD10B53648006840F001002C
:10149000344908600846406834490840314948608A
:1014A00008460068324908402E490860084600682E
:1014B00020F4802008600846406820F4FE00486060
:1014C0004FF41F008860FFF7DAFF4FF000602949F2
:1014D000086010BD10B5002100200022214B5B6880
:1014E00003F00C0121B1042906D0082928D107E016
:1014F000214B224C236027E01F4B204C236023E02C
:10150000184B5B6803F47010164B5B6803F4803271
:10151000022303EB904022B9194B4343174C23603D
:101520000DE0104B5B6803F4003323B1144B4343CD
:10153000124C236003E0104B4343104C236003E044
:101540000D4B0E4C236000BF00BF064B5B68C3F31E
:1015500003130C4CE15C094B1B68CB40074C236028
:1015600010BD000000100240002002400000FFF803
:10157000FFFFF6FE08ED00E000127A0014000020E4
:1015800000093D001800002030B50146B1F1807F10
:1015900001D3012030BD21F07F40401E4FF0E022FA
:1015A000506150170F22002807DA13071D0E414B18
:1015B00000F00F04241F1D5503E013071C0E3E4BC3
:1015C0001C5400BF00204FF0E02290610720106102
:1015D0000020DFE72DE9F04100F09CFD68200CF0D1
:1015E000F5FC04463548C0F8844001466822D1F82D
:1015F000840033490AF0BBF904200CF0E7FC0546EF
:101600002E48C0F88C5030200CF0E0FC06462B48E9
:10161000C0F8886030200CF0D9FC07462748C0F895
:10162000907007F01CFA08222649274805F06DFE45
:101630002448406810B9254822490860BDE8F08177
:1016400010B5234800684FF47A71B0FBF1F42046DE
:10165000FFF79AFF1E4800684FF47A71B0FBF1F46F
:101660002046FFF791FF08B100BFFEE710BD00B5AF
:1016700087B0FFF7AFFF00F03BF805F029FD002031
:101680004FF48063CDE90130039000930490114B37
:10169000114A1249124805F03AFB01F0FEF9FFF732
:1016A000CFFF06AB01220FA1104802F0C4FC07B027
:1016B00000BD000018ED00E000E400E050790020DB
:1016C000E8780020801200200000060800080608C4
:1016D0001400002028320020282E00200044004062
:1016E000283600207561727453656D00002E00204D
:1016F00008B501210846FEF7F5FE01213F48FFF736
:1017000086F801213E48FFF782F801210420FEF708
:10171000E9FE01210820FEF7E5FE01211020FEF779
:10172000E1FE01212020FEF7DDFE4FF47A70ADF8D6
:10173000000010208DF8030003208DF80200694698
:101740003048FEF793FFBDF800102E48FFF73DF834
:101750004FF4E050ADF8000010208DF80300032096
:101760008DF8020069462848FEF780FFBDF800109A
:101770002548FFF72AF84FF47070ADF800004820B4
:101780008DF8030003208DF8020069461E48FEF71D
:101790006DFF4FF44040ADF8000048208DF8030085
:1017A00003208DF8020069461648FEF75FFF4FF4EC
:1017B0001E40ADF8000010208DF8030003208DF8C6
:1017C000020069461148FEF751FFBDF800100F48AE
:1017D000FEF7FBFF0420ADF8000010208DF8030099
:1017E00003208DF8020069460948FEF73FFFBDF867
:1017F00000100748FEF7E9FF08BD000000043000B4
:1018000000023000000C01400010014000080140BF
:10181000001401400EB5002000F052FB04460CE01D
:10182000204600F04DFB044602A800211E230A4674
:10183000CDE90010084604F07CFBF1E79CB00020E5
:101840001A9028E00CE09DF8680005F083FF1BA8C3
:10185000002101230A46CDE90010084604F069FB87
:101860001AA9864805F092FA0028ECD01BA800219E
:1018700014230A46CDE90010084604F05AFB8048BC
:10188000D0F8800038B97FA101A80BF02DF801A88D
:1018900008F05CFE00BFD5E70EB52AE002A80023E1
:1018A0001A46642100907C4802F0BFFCBDF8080095
:1018B00047F2D921884209D102A800213C230A46D7
:1018C000CDE90010084604F034FB12E000F00EF9F8
:1018D00002A800214FF4FA730A46CDE90010084629
:1018E00004F027FB6D480068007908B100F07DFD29
:1018F00000BFD3E70EB500240EE008F07BFE0446DF
:1019000002A8002132230A46CDE90010084604F05F
:1019100010FB204608F009FFEFE730B58BB0054615
:10192000002400BF00BF00BF05F0AEF9044600BFB1
:1019300000BF5B480078401C5949087000BF00BFD9
:10194000204605F0A5F900BF00BF00BF0AA803218B
:1019500000220592CDE90621089010464FF48061DF
:101960006622504BCDE90132CDE903100620002359
:10197000AFF27F024CA100904D4803F0A2F80AA8F4
:10198000032100220592CDE90621089010464FF46C
:1019900080616622474BCDE90132CDE90310052075
:1019A0000023AFF20B1244A10090454803F089F8E0
:1019B0000AA8032100220592CDE9062108901046CD
:1019C0004FF4806166223F4BCDE90132CDE903102F
:1019D00004200023AFF29B123BA100903C4803F08F
:1019E00070F80AA8032100220592CDE9062108908B
:1019F00010464FF480616622364BCDE90132CDE9C5
:101A0000031003200023AFF2F31233A100903448F7
:101A100003F057F800BF00BF00BF05F035F90446DA
:101A200000BF00BF1E480078401E1D4908700846D0
:101A30000078A0B92B480088002809DD00BF00BF4E
:101A4000204605F025F900BF00BF01F062FE0DE061
:101A500000BF00BF204605F01BF900BF06E000BF35
:101A600000BF204605F014F900BF00BF00BF0AA95F
:101A70001D4803F052F90BB030BD0000283600209D
:101A800050790020244943454750532C434F4E4E34
:101A90004543542C31000000002E00207C12002011
:101AA000F3120020CC3600206B65797363616E0001
:101AB000543600204447002073686F7774636200D7
:101AC000CC460020BC5700207561727400000000F5
:101AD0004457002034680020666163650000000000
:101AE000BC670020D4120020881D002010B53E489D
:101AF000D0E910103D4AC2E9181011463A4C48345A
:101B00001DCC1DC11039384B58330DCB10310DC1D0
:101B1000354890F83D001C398862334903C9334A7F
:101B2000C2E90C013048D0E90210C2E90E102E497A
:101B3000D1E90601C2E910012B48406B1146086249
:101B4000294890F83000C8612749D1F898000AF078
:101B5000E6F92649D1F88C100860234890F808016E
:101B6000224908672049D1F898000AF0D8F91F499E
:101B7000D1F8901088621C48A030D0E91C101B4A94
:101B8000C2E91210184890F80A0111464867164831
:101B900090F809018867144890F8A000C8671248B7
:101BA00090F8070148621048A030D0E91E10C2E941
:101BB0001A100D4991F805010AF0A4F90B4AD2F860
:101BC0008420C2E90601084991F806010AF09AF951
:101BD000064AD2F88420C2E90A010348D0F820015D
:101BE0000249C1F8800010BDB09200205079002059
:101BF0002DE9F04105460C4616461F466D1E641E33
:101C0000152000F069FD284600F0FAFDA919481ECC
:101C100000F0F6FD752000F05FFD204600F0F0FDBD
:101C2000E119481E00F0ECFD302000F055FD5C206D
:101C300000F052FDBDE8F08170B515234FF48072BD
:101C400001210846FFF7D4FF002408E0002503E047
:101C5000002000F0D5FD6D1CFF2DF9DD641C152C56
:101C6000F4DB70BD2DE9F04781468A4614461D46D7
:101C7000FE48006800FB04F22B4651464846FFF739
:101C8000B7FF002711E04FF000080BE0002603E04B
:101C9000002000F0B5FD761CF44800688642F7DBB2
:101CA00008F10108A845F1DB7F1CA742EBDBBDE88A
:101CB000F0870820ED49086070471020EB49086064
:101CC00070472DE9F0410746884615461E46FFF746
:101CD000F0FF0223012241463846FFF7C3FFFFF71A
:101CE000ECFF0223082241463846FFF781FF00241B
:101CF0000AE0012E03D1285D00F082FD03E0295D9A
:101D0000C84300F07DFD641C102CF2DBBDE8F081BF
:101D10002DE9F0478046894616461F46DDF820A08B
:101D200002233A4649464046FFF79CFF00241AE04A
:101D30000223102249464046FFF75AFF00250FE0D4
:101D4000BAF1010F05D106EB4411485D00F058FDD2
:101D500005E006EB4411495DC84300F051FD6D1CE0
:101D6000202DEDDB641CBC42E2DBBDE8F087C048FF
:101D70000068B0F5807F0BDD0120BD490860BD48DB
:101D80000068801CBB490860152801DD012008603F
:101D9000704710B50246012907D15078A138137851
:101DA000A13B5E2404FB030010BD0120FCE72DE9EC
:101DB000F04105460E460027002400BF11E0281917
:101DC0000121FFF7E6FF0746A04604EBD872521048
:101DD00006EB4210A84A02EB4711202209F0C7FD8A
:101DE000A41C284609F0E7FDA042E8D8214604EBF0
:101DF000D1704010BDE8F08130B5ADF5217D0446CD
:101E000001A92046FFF7D3FF05469C4800682B46F2
:101E100001AA00909748016895480068FFF778FF8D
:101E20000DF5217D30BD924A1060924A11607047D5
:101E30009249086070477FB504460D46202C19DB97
:101E40007E2C17DCA4F120008D4A02EB0011102239
:101E5000684609F08CFD89486A4603688548016830
:101E600083480068FFF72DFF8148006808308049EB
:101E7000086000BF83480078A0B10020039081482B
:101E800000788DF80C00E0B28DF80D0003A8FFF784
:101E9000B3FF774800681030754908600020794921
:101EA000087008E07748007828B9202C01DB7E2CE8
:101EB00001DD74490C70FFF75AFF204604B070BD75
:101EC00070B50446FF2570487049884200D100244F
:101ED000FF2C18D1FFF7B0FE6D48006802696C480E
:101EE00001686C4890470546002069490968C86147
:101EF00067490968C968486065480068C068006843
:101F0000634908603BE0604800EB441060490968A1
:101F1000C96848605E48006800685B4901EB44118D
:101F20000968884206D05A480068574901EB4411B5
:101F3000C9680860544800EB441055490860FFF731
:101F40007BFE534800680269514801685148904738
:101F500005464F480068C06800680068401EA842F7
:101F60000DD100204A490968C86149490968C96812
:101F7000486047480068C0680068454908602846CE
:101F800070BD70B5064601240FE0012308223146DA
:101F90002046FFF72DFE002504E03F49485D00F094
:101FA0002FFC6D1C082DF8DB0834FF2CEDDD70BD17
:101FB00070B50446022322462E4801682C4800686A
:101FC000FFF716FE002508E0002603E0FF2000F0E2
:101FD00017FC761C102EF9DB6D1CA542F4DB70BDDE
:101FE000D0E90023C1E9002370473EB504460D4601
:101FF0000020009001900290D5E90001CDE9000198
:102000002648007804280BD120460099FFF722F8D3
:1020100022490870201D0199FFF71CF81F4908701C
:102020003EBD10B5FEF701FF3420FFF799F91C48BB
:10203000FEF740FF19490870002408341849601859
:102040001849FFF7D2FF0834154960181549383987
:10205000FFF7CBFF08341249601812490839FFF71F
:10206000C4FF08340E4960180E491DE04C120020D0
:10207000401200204412002014ED000848120020F5
:10208000600C002051120020000A00205C12002089
:102090007C12002050790020FCEA00085012002039
:1020A00000800508207900201839FFF79EFF0834CA
:1020B000404960184049FFF798FF08343D496018CF
:1020C0003D490839FFF791FF08343A4960183A4909
:1020D0001039FFF78AFF08343649601836495839F5
:1020E000FFF783FF08343349601833492039FFF77D
:1020F0007CFF08342F4960182F491839FFF775FF06
:1021000008342C4960182C495039FFF76EFFFEF750
:1021100098FE10BD10B500242649601826492839BC
:10212000FFF75EFF08342349601823496039FFF741
:1021300057FF08341F4960181F493039FFF750FF17
:1021400008341C4960181C494039FFF749FF08341E
:10215000184960181849FFF743FF083415496018FB
:1021600015490839FFF73CFF083412496018124935
:102170001039FFF735FF08340E4960180E495839F9
:10218000FFF72EFF08340B4960180B492039FFF781
:1021900027FF08340749601807491839FFF720FF5F
:1021A00008340449601804495039FFF719FF08340E
:1021B00010BD00000080050848790020F74800683D
:1021C0007047F64908607047F54908607047F5495F
:1021D00008680021F34A11607047F349086800213C
:1021E000F14A1160704770B504466569EC49A06911
:1021F0000860002618E095F8311095F83000FFF7D8
:1022000012FE711CE9A00AF05FFBE44800688642F8
:1022100002D10020FFF70CFE68680AF055FB383544
:102220000120FFF705FE761CA069B042E3DC70BD1B
:102230002DE9F04105466C69002613E0606809F05D
:10224000BAFB94F8301001EBC000471D94F8311030
:102250003846FFF7E8FD04F10801D5A00AF034FB89
:102260003834761CA869B042E8DCBDE8F08110B5CE
:102270000246CD48016001F03F0008282BD006DC63
:10228000012809D002280ED0042854D117E01028C4
:1022900033D020284FD142E0C248007800F001003E
:1022A000C04B186048E0BF48007800F00200BD4B0A
:1022B0001860BA480068401EB84B18603CE0B94846
:1022C000007800F00400B74B1860B4480068401C68
:1022D000B24B186030E0B348007800F00800B14B12
:1022E0001860AF4B1B68581C00EBD073AB4C2468D4
:1022F000A4EB6303A94C23601EE0AA48007800F019
:102300001000A84B1860A64B1B68581C00EBD0733C
:10231000A24C246804EB6303A04C23600CE0A148AA
:10232000007800F020009F4B186000209B4B186045
:102330009B4B186000E000BF00BF98480068002871
:1023400004DA97480068401E944B18609348006870
:10235000934B1B6890FBF3F403FB14008F4B186046
:1023600010BDF0B5A7B00124012598229149684617
:1023700009F0FDFA29462046FFF755FD8EA0079982
:102380000AF0A2FA3A3429462046FFF74CFD0A9893
:1023900000EB80008B4A811885A00AF095FA26345C
:1023A00029462046FFF73FFD009E019F3A463146F1
:1023B00085A00AF089FA303429462046FFF733FD1C
:1023C00084A009990AF080FA323429462046FFF7A2
:1023D0002AFD82A008990AF077FA0320FFF7D1FDC1
:1023E0000620FFF7CEFD27B0F0BD10B5FFF7B9FF0F
:1023F00010BD2DE9F04105460E464FF001080727B4
:1024000000240CE039464046FFF70DFDC4EB0410F4
:1024100005EB400166A00AF057FABF1C641CB442E9
:10242000F0DBBDE8F0812DE9F04705460E46174682
:102430009846DDF8209041463846FFF7F4FC022329
:10244000072241463846FFF70DFC012E1AD166A03F
:102450000AF03AFA00240CE0A14502D10020FFF76F
:10246000E7FC295D61A00AF02FFA0120FFF7E0FCEC
:10247000641C284609F09FFAA042EDD85CA00AF03F
:1024800023FA03E029464AA00AF01EFABDE8F087C5
:102490002DE9F84F07460D4616469846DDF828A068
:1024A0004FF0000B4FF00709002422E0C4EB0411A9
:1024B00008EB410009F07FFA052101EBC00BA742B0
:1024C0000AD104EB840105EB41004B465A46012139
:1024D0000096FFF7A8FF09E004EB840105EB41003B
:1024E0004B465A4600210096FFF79DFF09F102096D
:1024F000641C5445DADBBDE8F88F70B504460D4620
:10250000164631462846FFF78EFC214628A00AF0E1
:10251000DBF970BD2DE9F04105460F461646012452
:10252000A04641462046FFF77EFC294631A00AF02E
:10253000CBF93C3441462046FFF775FC39462FA0C5
:102540000AF0C2F93C3441462046FFF76CFC3146A4
:102550002CA00AF0B9F9BDE8F0812DE9F04104465C
:102560000D4616461F4639463046FFF75CFC2146AD
:1025700027A00AF0A9F92846FFF71AFDBDE8F08167
:1025800070B504460D46164631462846FFF74BFC0B
:10259000214607A00AF098F970BD00008C120020B7
:1025A00090120020881200209412002025642E0032
:1025B0002573000050790020CEC0D0C73A253032B4
:1025C0006400000098120020253032643A25303231
:1025D00064000000C6B5B5C03A256400D1D3CAB1C5
:1025E0003A25303264000000A1BE000025630000DF
:1025F000A1BF00004750533A25640000626569643A
:102600003A256400476C6F6E6173733A256400006D
:1026100025303264000000001249B1F90010FF2992
:1026200003D1411E09B20F4A118070470D49B1F91B
:102630000000FF210B4A1180704710B50446C4F119
:102640001503102221460120FFF70CFB10BD00B539
:1026500099B005A168460AF047F9684607F076FF89
:1026600019B000BDB6120020244943454750532CF1
:102670004F4B0000FE480068401CFD4908600846BA
:102680000068FC490968884204D10020F8490860C4
:10269000F8490860F64800684FF6FF7190FBF1F2C8
:1026A00001FB1200F24908607047002106E00A2190
:1026B00000BF0A1EA1F1010399B2FAD1021EA0F1D6
:1026C0000100F4D1704710B504464FF47A7104FB51
:1026D00001F0FFF7EAFF10BD10B504464FF400719A
:1026E000E548FEF772F84FF48071E348FEF76DF8A5
:1026F0008021E148FEF769F80120FFF7D6FF40216D
:10270000DD48FEF762F804F0800028B94FF400615C
:10271000DA48FEF75AF804E04FF40061D748FEF7B4
:1027200052F804F0400028B94FF48051D348FEF726
:102730004CF804E04FF48051D048FEF744F804F020
:10274000200028B94FF40041CC48FEF73EF804E0E1
:102750004FF40041C948FEF736F804F0100028B9DC
:102760004FF48061C648FEF730F804E04FF4806112
:10277000C348FEF728F804F0080028B94FF40061B8
:10278000BF48FEF722F804E04FF40061BC48FEF7B2
:102790001AF804F0040028B94FF48051B848FEF745
:1027A00014F804E04FF48051B548FEF70CF804F03B
:1027B000020020B90421B348FEF707F803E0042122
:1027C000B048FEF700F804F0010020B90821AA483B
:1027D000FDF7FBFF03E00821A748FDF7F4FF802188
:1027E000A548FDF7F0FF0120FFF75FFF4FF40071F0
:1027F000A148FDF7E8FF80219F48FDF7E6FF10BDE7
:1028000010B504464FF400719B48FDF7DEFF4FF40E
:1028100080719948FDF7D7FF80219748FDF7D5FFD4
:102820000120FFF742FF40219348FDF7CEFF04F05F
:10283000800028B94FF400619048FDF7C6FF04E01E
:102840004FF400618D48FDF7BEFF04F0400028B949
:102850004FF480518948FDF7B8FF04E04FF48051F0
:102860008648FDF7B0FF04F0200028B94FF400417E
:102870008248FDF7AAFF04E04FF400417F48FDF7CE
:10288000A2FF04F0100028B94FF480617C48FDF7E6
:102890009CFF04E04FF480617948FDF794FF04F059
:1028A000080028B94FF400617548FDF78EFF04E079
:1028B0004FF400617248FDF786FF04F0040028B968
:1028C0004FF480516E48FDF780FF04E04FF48051D3
:1028D0006B48FDF778FF04F0020020B90421694835
:1028E000FDF773FF03E004216648FDF76CFF04F079
:1028F000010020B908216048FDF767FF03E00821C7
:102900005D48FDF760FF80215B48FDF75CFF01201B
:10291000FFF7CBFE4FF400715748FDF754FF8021BD
:102920005548FDF752FF10BD10B520215248FDF764
:102930004CFF0A20FFF7C7FE20214F48FDF743FF59
:102940000A20FFF7C0FE3020FFF7C6FE0820FFF781
:10295000C3FE9420FFF7C0FE3120FFF7BDFED72055
:10296000FFF7BAFE9F20FFF74BFFAA20FFF7B4FE48
:102970000120FFF745FF3220FFF7AEFE0020FFF7F2
:102980003FFF0120FFF73CFF0320FFF739FF202026
:10299000FFF7A2FE0120FFF733FF0320FFF730FF10
:1029A0000520FFF72DFF0720FFF72AFF0920FFF77B
:1029B00027FF0B20FFF724FF0D20FFF721FF10203A
:1029C000FFF71EFF1120FFF71BFF1320FFF718FF73
:1029D0001520FFF715FF1720FFF712FF1920FFF74B
:1029E0000FFF1B20FFF70CFF1D20FFF709FF1F2023
:1029F000FFF706FF3020FFF76FFEA620FFF76CFE03
:102A00007520FFF769FE0020FFF7FAFE2820FFF788
:102A1000F7FE1520FFF760FE0020FFF7F1FEFF2014
:102A2000FFF7EEFEBC20FFF757FE0020FFF7E8FEA1
:102A3000CA20FFF751FE0020FFF7E2FE9F20FFF7BC
:102A4000DFFE2020FFF7DCFEF020FFF745FE102020
:102A5000FFF7D6FE8120FFF73FFE3820FFF7D0FEBC
:102A60000420FFF7CDFE2020FFF736FE0B200BE001
:102A7000B8120020BC120020000C014000080140E8
:102A80000010014000140140FFF7BAFE6420FFF778
:102A90000CFEAF20FFF720FE10BD10B5FFF744FF7E
:102AA000FFF7CAF810BD0000134814481448154831
:102AB000154816481648174817481848184819481E
:102AC00019481A481A481B481B481C481C481D48EE
:102AD0001D481E481E481F481F48204820482148BE
:102AE000214822482248234823482448244825488E
:102AF0002548264800BF7047A4EB000804EB0008F7
:102B000008EB00080CEB000810EB000814EB0008C1
:102B100018EB00081CEB000820EB000824EB000871
:102B200028EB00082CEB000830EB000834EB000821
:102B300038EB000848EB00084CEB000850EB0008AD
:102B400054EB000858EB00085CEB000860EB000851
:102B500064EB000868EB00086CEB000870EB000801
:102B600074EB000878EB00087CEB000880EB0008B1
:102B700084EB000888EB00088CEB000890EB000861
:102B800094EB000898EB00089CEB0008A0EB000811
:102B9000002400BF19E000BF00BF04F075F8044630
:102BA00000BF00BFF6480068401CF5490860F548C2
:102BB0000068401CF349086000BF00BF204604F0D5
:102BC00067F800BF00BF03F0CBFFE4E710B58AB0A1
:102BD00004460020EA490860032000210591CDE960
:102BE000070406910846E8490968E84A1268E84B74
:102BF0001B68CDE90132CDE9031007200023AFF2B5
:102C00006F02E4A10090E84801F05BFF0AB010BD3C
:102C100000210AE001EB4102E44B03EB82000022B9
:102C20000281026042604A1CD1B20829F2D3704787
:102C300070B5044603F095FF0020DD490870DD49BA
:102C40000870DD490870DD490870DD4800680A2118
:102C5000B0FBF1F0DB490860DB48006858B1DB48A5
:102C6000056845B1D848066803E0761E0020286054
:102C70002D1D002EF9D101F08DF9FFF7C9FF204677
:102C800002F051FE208800B170BD204600F0A0FF88
:102C9000208800B1F8E72046FFF798FF208800B1B0
:102CA000F2E7204602F085FF208800B1ECE72046DD
:102CB00001F045FE208800B1E6E7204601F056F914
:102CC000208800B1E0E7204601F02BFD208800B10C
:102CD000DAE7204603F060FE208800B1D4E700F078
:102CE000A5FDFFF7E1FE00BFCEE7B248007801285E
:102CF00000D07047AE480078FA2800DBF9E7AC480E
:102D00000078401CAA49087000BFF2E710B5002403
:102D1000A8480078012800D010BD00BF03F0B4FF20
:102D2000044600BFA248007828B900BF204603F03F
:102D3000AFFF00BFF0E79E480078401E9C49087036
:102D400008460078002805DD00BF204603F0A0FFFC
:102D500000BFE1E798480078002805DD00BF204665
:102D600003F096FF00BFD7E701F01EF998490870FD
:102D70000846007800EB40008C4951F82000954946
:102D800008600846006894490968884205D100BF78
:102D9000204603F07DFF00BFBEE790480068401C5E
:102DA0008E4908604FF080508D49086000BF204672
:102DB00003F06EFF00BF00BFAEE710B500247C48F3
:102DC0000078002800DD10BD7B480078002800DD79
:102DD000F9E700BF03F058FF044600BF01F0E4F834
:102DE0007B4908700846007800EB40006F4951F8B5
:102DF00020007849086008460068774909688842D9
:102E000005D100BF204603F043FF00BFDBE7734856
:102E10000068401C714908604FF08050704908609C
:102E200000BF204603F034FF00BF00BFCBE770B502
:102E3000044600255E480078002803DD46F662500F
:102E4000208070BD5B480078012803D045F689607A
:102E50002080F6E758480078FA2803DB45F209207D
:102E60002080EEE700BF00BF03F00EFF054600BF65
:102E700000BF51480078401C4F49087000BF00BF98
:102E8000284603F005FF00BF00BF0020208000BFE0
:102E9000D7E770B50446002545480078002803DDD3
:102EA00046F66550208070BD42480078012803D066
:102EB00045F689602080F6E73F48007818B946F665
:102EC00064502080EFE700BF00BF03F0DDFE054641
:102ED00000BF00BF38480078401E374908700846D8
:102EE000007800280ADD00BF00BF284603F0D0FEAE
:102EF00000BF00BF46F663502080D4E700BF00BF8C
:102F0000284603F0C5FE00BF00BFFFF756FF0020B4
:102F1000208000BFC7E72DE9F04105460C46164664
:102F2000002700BF00BF03F0AFFE074600BF00BF91
:102F3000012D03D000202149087002E001201F4923
:102F4000087014B11F48046006E01D4800680A219B
:102F5000B0FBF1F01B49086000BF00BF384603F02A
:102F600097FE00BF00BF00203080BDE8F08110B5A3
:102F700001460C89B4B3012C36D0022C3FD134E089
:102F8000C4120020041300200CEB000808EB00081A
:102F900004EB000875432F4F532D494949204964DC
:102FA0006C65205461736B00F8870020E88800206E
:102FB000C8120020C9120020F3120020F8120020CD
:102FC00064EB0008F412002034EB000830EB00083A
:102FD000F11200204C130020481300201C13002085
:102FE00004ED00E0FFE700BF14E008684A680261F2
:102FF0000024C4601461D0600A6048600AE0086878
:103000004A68C36800241C61C4600261D0600B6020
:10301000486000BF00BF10BD2DE9F0410446002705
:10302000F6480078002804DD48F2D1402080BDE851
:10303000F081F3480078002803DD46F663502080D5
:10304000F5E7F0480078012803D046F67B10208091
:10305000EDE700BF00BF03F017FE074600BF00BF4B
:10306000E948007800EB4000E84901EB8006308930
:1030700002280ADA00BF00BF384603F009FE00BF8D
:1030800000BF46F67A102080D1E73046FFF76FFF89
:103090003568686D18B9DE480068A86501E0686D9C
:1030A000A86500BF00BF384603F0F2FD00BF00BFB7
:1030B000FFF783FE0020208000BFB8E710B504466C
:1030C000D4480078E8B900F06FFFD349087008468B
:1030D0000078CD490870D048007800EB4000CB491B
:1030E00051F82000CD49086008460068CC490860C6
:1030F0000120C849087003F0F1FC43F699202080B4
:1031000002E045F68A60208010BD0146002008805C
:1031100047F2F850704730B540B145684D6700F14F
:103120000804226893681D6AC56110E091F8345064
:10313000022D02D0072D06D102E0BAA54D6705E0A9
:10314000BAA54D6702E0BCA54D6700BF00BF30BD0A
:10315000F0B58E6896F8375007893FB90127078187
:1031600000274F600F600160416023E007897F1CEA
:103170000781026806E0946894F83770AF4200DD7A
:1031800002E05268002AF6D100BF32B900274F6032
:1031900043680B60596041600CE017682FB91160FB
:1031A00000270F604A60016004E013680B604A600A
:1031B00059601160F0BD10B5C287016300230AE0B9
:1031C00000244C600C600C614C610C83CC61886005
:1031D00020315C1CA3B29342F2DB10BD2DE9F0411B
:1031E000054695F8370000EB4000884901EB800464
:1031F0002F69EE6887B946B90020208120606060A1
:1032000095F8370000F0F2FE0EE02089401E208184
:1032100000203061266007E02089401E2081FE608A
:103220000EB9676000E0376100202861E860BDE802
:10323000F08138B504460D4685B16B460222294619
:10324000204602F0E5FCBDF8000018B9032084F820
:10325000360006E0022084F8360002E0022084F8FE
:1032600036002046FFF7BAFF38BD2DE9F04105468C
:103270000C4616461F466A48006880F834600020F5
:103280006749096881F83500394665480068FFF7E5
:10329000D0FF6CB104F10808EC60012229466048B7
:1032A0000068FFF788FF29464046FFF751FF06E018
:1032B00000205B490968C88759490968086358486C
:1032C00001682046FFF727FFBDE8F08110B50489AB
:1032D000012C03D100240460446011E00C6824B97F
:1032E0004A680024146002600AE04C6824B90B6844
:1032F00000245C60436003E00B684A685A60136016
:103300000489641E048100244C600C6010BD2DE90A
:10331000F0410446256BE68F0AE0D5F80C8008F1F1
:10332000080729463846FFF7D1FF2035701E86B2C0
:10333000002EF2DC0020E0872063BDE8F08130B58C
:103340000346086BCC8F08E0C5689D4202D103613B
:10335000C26104E02030651EACB2002CF4DC00BF7A
:1033600030BD10B590F8373003EB4303274C04EB26
:1033700083010B893BB901230B810023C3600361E7
:103380000860486009E00B895B1C0B810B68C36017
:10339000002303610A681061086010BD10B590F841
:1033A000373003EB4303194C04EB83010B893BB922
:1033B00001230B810023C36003610860486008E0BB
:1033C0000B895B1C0B810023C3604A680261D060DB
:1033D000486010BD10B5044694F8370000F0F6FDC3
:1033E00094F8370008490978884203D12046FFF74E
:1033F000D5FF02E02046FFF7B4FF10BDC812002041
:10340000F3120020F8120020F0120020E8880020BB
:10341000F4120020C9120020F11200204C130020E9
:10342000481300205461736B205100005461736B8A
:103430002053656D000000002000000010B5044618
:10344000204602F095FA94F8360000F0040010B916
:103450002046FFF7BFFF10BD70B505460C46164667
:1034600094F8360008283FD2DFE800F00405080988
:103470000607232400BF00BF00BF36E000BF94F85A
:103480003400032804D1324621462846FFF757FF6F
:10349000266415B12046FFF73AFF2046FFF7CEFF1E
:1034A00000203434A07001206070002004F834093A
:1034B0001BE000BF94F83400032804D132462146B3
:1034C0002846FFF73CFF266415B12046FFF71FFF93
:1034D000204602F04DFA04203434A07001206070C0
:1034E000002004F8340900E000BF00BF70BD30B513
:1034F000AFF2BC054D6700F1080422681AB1936869
:103500001D6AC56102E0AFF2D005C56130BD2DE98D
:10351000F04304460F4684F83770256BB4F83E80BC
:1035200013E0D5F80C9009F108063089012807D975
:1035300029463046FFF7CAFE29463046FFF708FE07
:103540002035A8F101001FFA80F8B8F1000FE8D18A
:10355000BDE8F0830021016041600181704703896B
:103560005B1C038103684B6000230B60026802B19F
:10357000116001600389012B00D14160704730B5B3
:103580000346086BCC8F08E0C5689D4202D10361F9
:10359000C26104E02030651EACB2002CF4DC00BF38
:1035A00030BD70B506460C46154694F8360008281E
:1035B0003DD2DFE800F0040508090607222300BF1A
:1035C00000BF00BF34E000BF94F83400032804D1EA
:1035D0002A4621463046FFF7D2FF25642046FFF7F2
:1035E00096FE2046FFF72AFF00203434A070022008
:1035F0006070002004F834091AE000BF94F8340029
:10360000032804D12A4621463046FFF7B8FF256437
:10361000204602F0ADF92046FFF779FE042034344D
:10362000A07002206070002004F8340900E000BFA0
:1036300000BF70BDF0B50446059E086BCD8F0AE053
:10364000C768A74204D1046142610383C66104E0F4
:1036500020306F1EBDB2002DF2DC00BFF0BD2DE9A1
:10366000F84306460C4617469846089D94F83600DF
:1036700008284AD2DFE800F00405080906072829CF
:1036800000BF00BF00BF41E000BF94F83400032832
:1036900007D143463A46214630460095FFF7CAFF18
:1036A00000E0256436B12046FFF731FE2146304662
:1036B000FFF71DFF2046FFF7C1FE00203434A07045
:1036C000607004F8340921E000BF94F83400032846
:1036D00007D143463A46214630460095FFF7AAFFF8
:1036E00000E02564204602F043F936B12046FFF79A
:1036F0000EFE21463046FFF7FAFE04203434A07057
:103700000020607004F8340900E000BF00BFBDE88D
:10371000F88310B5002400BF03F0B6FA044600BFDA
:10372000002039490870394839490860394800682B
:10373000401C384908604FF080503749086000BF8E
:10374000204603F0A5FA00BF10BD70B5054600265F
:1037500032480078012800D070BD00BF00BF03F0E0
:1037600093FA064600BF00BF2C683CB900BF00BFFB
:10377000304603F08DFA00BF00BFEDE728488442D1
:1037800007D100BF00BF304603F082FA00BF00BF80
:10379000E2E7A06D10B1A06D401EA065A06D38B12C
:1037A00000BF00BF304603F073FA00BF00BFD3E78D
:1037B0002889022807DA00BF00BF304603F068FA04
:1037C00000BF00BFC8E717480078002807DD00BF2A
:1037D00000BF304603F05CFA00BF00BFBCE72846DC
:1037E000FFF7C5FB2C68606D18B90F480068A0652D
:1037F00001E0606DA06500BF00BF304603F048FAED
:1038000000BF00BF00BFA7E7F112002070880020B2
:103810004C1300201C13002004ED00E0F8120020DF
:10382000F8870020F3120020F41200201C481D48E5
:103830001D481E481E481F481F4820482048214850
:103840002148224822482348234824482448254820
:1038500025482648264827482748284828482948F0
:1038600029482A482A482B482B482C482C482D48C0
:103870002D482E482E482F482F4830483048314890
:103880003148324832483348334834483448354860
:1038900035483648364837483748384800BF7047BB
:1038A000A8EB000810ED0008AAEB0008ABEB00083D
:1038B000ACEB0008B0EB0008B4EB0008B1EB00087B
:1038C000E4EB0008E6EB0008E8EB000808EC000871
:1038D0000AEC00080CEC000814EC000840EC0008AE
:1038E00046EC000847EC000848EC00084AEC0008E9
:1038F0004CEC00084EEC000850EC000852EC0008BC
:1039000054EC000884EC00088AEC00088CEC0008F9
:10391000B4EC0008B5EC0008B6EC0008B7EC000801
:10392000B8EC0008BAEC0008BCEC0008C0EC0008D9
:10393000C1EC0008C2EC0008C3EC0008C4EC0008AD
:10394000C5EC0008C6EC0008C7EC0008C8EC00088D
:10395000CAEC0008CBEC0008CCEC0008CEEC000868
:10396000D0EC0008D1EC0008D4EC000808ED000809
:1039700009ED00080AED00080CED00080EED000846
:103980002DE9F84F04460D4616461F46DDE90BAB00
:10399000DDF82890DDF834800020009000BF00BFE3
:1039A00003F072F9009000BF00BFBD480088BD4918
:1039B000098888423BDABA480088401CB849088028
:1039C000B94800880988884203DAB5480088B649B2
:1039D0000880B64800680460B44800688560B34851
:1039E0000068C660B14800680782B0480068C0F847
:1039F0001490AE480068A0F818A0AC480068C0F861
:103A00001CB0AA4800684068A84908600120A8497D
:103A10000881A84808604860002000F0D7FAA6484E
:103A20000078A64908700020A8F8000008E0A44823
:103A30000088401CA249088044F25360A8F80000A6
:103A400000BF00BF009803F023F900BF00BFBDE82E
:103A5000F88F2DE9F84F4FF0000B00BF00BF03F0C7
:103A600013F9834600BF00BF964800680668954872
:103A70000068846893480068D0F80C80914800681A
:103A8000B0F810A08F480068D0F814908D480068F6
:103A9000078B8C480068C5698A4800684068894976
:103AA000086000BF00BF584603F0F2F800BF00BF37
:103AB0008549701A8E421BD00ADC8448304480B19C
:103AC0008349084458B18349084400283BD110E099
:103AD00081490844A0B18149084498BB00E033E023
:103AE00032E06B462A463946204600F00FFD2BE0B7
:103AF0002AE06B462A463946204601F0BDFB23E00A
:103B00006E49097801EB4101694A02EB8100FFF738
:103B10001CFE6B462A460021714801F0ADFB71483E
:103B20000068401E6F4908600846006848B96E4842
:103B30000068086000256B462A4600216B4801F0AA
:103B40009BFB01E0FFE700BF00BFBDE8F88F002747
:103B500000BF3CE0002638E051480088C0B900BFF3
:103B600000BF03F091F8074600BF00BF0020504996
:103B700008810860486000F039FA00BF00BF38468D
:103B800003F086F800BF00BFFFF717F901261CE01D
:103B90000025FFF75EFF6C4255480068844201D95A
:103BA0005348046000BF00BF03F06EF8074600BF33
:103BB00000BF3B480088401E3949088000BF00BF55
:103BC000384603F065F800BF00BF002EC4D0C1E73F
:103BD000F0B589B00546002039490880454800689D
:103BE00020B944F25260288009B0F0BD2D48008809
:103BF000022803DA44F254602880F5E700203C49AB
:103C000008603C4804682646203600270CE03A4805
:103C100020600020A060E0602082606120836660F8
:103C200020342036781C87B21E4800888742EEDB9D
:103C3000203C3048066866601C48066021480660E3
:103C4000002017490880184908802C48006818B9D6
:103C500046F62C602880C7E729480068294909688A
:103C6000884203D246F62D602880BDE7032000215C
:103C70000591CDE90705069121480068224A12689E
:103C80001E4B1B68CDE90301CDE9013200910B46C3
:103C9000AFF245121DA1074800F013FF00BFA3E7D4
:103CA000D412002018EB0008D6120020CC120020FD
:103CB000E888002070880020F0120020F212002016
:103CC000D8120020D0120020544D5347ADBAB2BED6
:103CD0000DF90BFAF2F8F7FF000410FC03F4FDF500
:103CE000C08900204413002040130020388A00209F
:103CF000DC12002014EB00084E4F4E4520EB00086C
:103D000028EB000860EB000824EB000875432F4FF8
:103D1000532D4949492049535220517565756520F5
:103D20005461736B000000000021816193490968B0
:103D300011B90021C16105E090490968C1618F494D
:103D4000096888618D49086070472DE9FF4F83B08D
:103D5000044615461F46DDE910960020009088486D
:103D60000078002805DD45F2B960308007B0BDE875
:103D7000F08F1DB945F2BB603080F7E7022F03DA00
:103D800045F2BC603080F1E7B9F1040F03D245F28F
:103D9000C1603080EAE74FF0030ABAF1000F0CD09F
:103DA00005EA0A0018B145F2BB603080DEE709EA97
:103DB0000A0010B145F2C1603080AB46A846781EBB
:103DC00080B201900020029007E0C844CBF8008048
:103DD000C3460298401C80B20290DDE9011088427F
:103DE000F3DB0020CBF8000000BF00BF00BF02F0F3
:103DF0004BFF009000BF00BF62480078401C614943
:103E0000087000BF00BF009802F042FF00BF00BF73
:103E100000BF5D4820600498A0606560E560A782EF
:103E20006782A4F810902046FFF77EFF574800886D
:103E3000401C5649088000BF00BF00BF02F024FFAD
:103E4000009000BF00BF4F480078401E4D490870E9
:103E500008460078A0B94E480088002809DD00BF58
:103E600000BF009802F014FF00BF00BFFFF751FC35
:103E70000DE000BF00BF009802F00AFF00BF06E09F
:103E800000BF00BF009802F003FF00BF00BF00BFEB
:103E90000020308000BF69E72DE9F04104460D465F
:103EA00000272CB945F2BF6028800020BDE8F081D2
:103EB00000BF00BF02F0E8FE074600BF00BFA08AB7
:103EC00058B900BF00BF384602F0E2FE00BF00BF95
:103ED00045F2C26028800020E8E7E6683068E060CC
:103EE000A08A401EA08200BF00BF384602F0D0FE6C
:103EF00000BF00BF002028803046D7E72DE9F04101
:103F000004460E461546002724B945F2BF602880B6
:103F1000BDE8F0811EB945F2BE602880F8E700BF19
:103F200000BF02F0B1FE074600BF00BFA08A618A51
:103F300088420ADB00BF00BF384602F0A9FE00BF7E
:103F400000BF45F2BA602880E2E7E0683060E660D2
:103F5000A08A401CA08200BF00BF384602F098FE35
:103F600000BF00BF0020288000BFD1E70021034A26
:103F70001160064A1180018070470000E0120020A5
:103F8000C8120020F31200204D454D20E4120020FD
:103F9000D4120020002004E000211C4A42F8201026
:103FA000401C0028F8D0704770B50025174C03E07E
:103FB00005F12000C5B2241D20680028F8D0206833
:103FC00002F069FE2844C5B2284670BD30B54209EA
:103FD00000F01F030121C3F11F04A1400B4C54F852
:103FE00022400C43094D45F8224030BD30B542090E
:103FF00000F01F030121C3F11F04A140034C54F83A
:1040000022408C43014D45F8224030BDC0120020B3
:10401000FDA1C16100214161FC49096811B900217C
:10402000816105E0F94909688161F84909684861D9
:10403000F649086070472DE9F04104460E461746E0
:104040001D464FF00008F2480078002804DD42F6D3
:10405000E1602880BDE8F0811CB945F6C350288096
:10406000F8E700BF00BF02F00FFE804600BF00BFB0
:10407000E8482060276200206062666004F1080062
:10408000FFF768FA2046FFF7C3FFE3480088401CAB
:10409000E149088000BF00BF404602F0F9FD00BFC3
:1040A00000BF0020288000BFD4E710B50446DB48DD
:1040B0002060002020626062D9A0606004F10800E6
:1040C000FFF748FA10BD426981693AB9CF4B1960D0
:1040D00009B100234B610023836109E019B9002372
:1040E0009361436104E091614A610023836143610C
:1040F00070472DE9FC5F0746894614460020009072
:10410000C3480078002805DD43F2C9202080002044
:10411000BDE8FC9F27B945F6C35020800020F7E793
:1041200000BF00BF02F0B0FD009000BF00BF07F16C
:104130000808B8F808502E46B9F1000F03D0B9F1BD
:10414000010F64D120E0A6B93846FFF7BCFFB248A2
:104150000088401EB04908803846FFF7A6FF00BF20
:1041600000BF009802F094FD00BF00BF0020208037
:1041700009E000BF00BF009802F08AFD00BF00BF49
:1041800047F25E1020804DE000BFA7480078401C39
:10419000A549087000BF00BF009802F079FD00BF7C
:1041A00000BF00BF002001900AE0D8F800A0DAF8B4
:1041B00008B059463846019AFFF7F3F9681E85B2F0
:1041C000002DF2D13846FFF77EFF93480088401E4D
:1041D000914908803846FFF768FF00BF00BF00BF65
:1041E00002F052FD009000BF00BF8F480078401ED3
:1041F0008D49087000BF00BF009802F049FD00BF64
:1042000000BF00BFFEF7D9FD002020800AE000BFFC
:1042100000BF009802F03CFD00BF00BF45F62560DE
:10422000208000BF00BF304672E72DE9F04788B01C
:104230000646894690461C46109D4FF0000A744879
:104240000078002806DD46F2AE102880002008B075
:10425000BDE8F08726B945F6C35028800020F6E770
:10426000B8F1000F03D0B8F5004F02D100E000BF55
:1042700004E045F6256028800020E8E700BF0CB187
:104280000020206000BF00BF02F0FEFC824600BF9D
:1042900000BF306A88B1306A401E30620CB1706A6B
:1042A0002060376A00BF00BF504602F0F1FC00BF3B
:1042B00000BF002028803846C9E708F4004060B1FC
:1042C000376A00BF00BF504602F0E2FC00BF00BFEB
:1042D00046F2B01028803846B9E7534800780028E5
:1042E0000BDD00BF00BF504602F0D2FC00BF00BF94
:1042F00046F6635028800020A9E700BF4A480078AE
:10430000401C4949087000BF00BF504602F0C0FC85
:1043100000BF00BF00BF4B46062231466846FEF78D
:10432000A4FF00BF00BF00BF02F0AEFC824600BF8A
:1043300000BF3D480078401E3B49087000BF00BFE9
:10434000504602F0A5FC00BF00BF00BFFEF735FDE0
:1043500000BF00BF02F098FC824600BF00BF334898
:10436000006890F8350030B101280CD002281AD02E
:10437000032821D110E01CB12C480068006C20609B
:104380000020288024E01CB128480068006C2060D0
:1043900046F2A91028801BE00CB10020206047F2F3
:1043A000D920288014E01CB120480068006C2060EF
:1043B00045F6C25028800BE046F62B60288000BFEF
:1043C00000BF504602F064FC00BF00BF00203EE783
:1043D00000BF376A00BF00BF504602F059FC00BF63
:1043E00000BF384633E72DE9F05F07460D46144617
:1043F0004FF0000B06480078002819DD46F2AA109D
:1044000020800020BDE8F09F20000000FC1200206A
:10441000C812002053454D41001300204E4F4E4519
:104420003F53454D00000000F312002048130020C8
:1044300027B945F6C35020800020E3E71DB1B5F54C
:10444000807F02D100E000BF04E045F625602080B7
:104450000020D7E700BF00BF00BF02F015FC834675
:1044600000BF00BF07F10806308958B900BF00BF80
:10447000584602F00DFC00BF00BF46F2AB10208092
:104480000020BFE700BFAA480078401CA849087078
:1044900000BF00BF584602F0FBFB00BF00BF00BFDB
:1044A0004FF00008C2460FE03068D0F8089052463E
:1044B00049463846FEF7D0FF08F101001FFA80F8A0
:1044C000B5F5807F00D002E030890028ECDC00BF29
:1044D00000BF00BF00BF02F0D7FB834600BF00BF94
:1044E00093480078401E9249087000BF00BF5846AC
:1044F00002F0CEFB00BF00BF00BF05F4004008B9CA
:10450000FEF75BFC0020208040467BE72DE9FF5F43
:104510000446884691461D460020019000BF00BF1A
:1045200002F0B2FB019000BF00BF04F10807388918
:1045300000284FD10420012804D0022814D00428D8
:1045400034D123E0206AFF280DD100BF00BF0198BD
:1045500002F09EFB00BF00BF46F6C5502880002039
:1045600004B0BDE8F09F22E04FF6FF71206A884258
:104570000BD100BF00BF019802F08AFB00BF00BF53
:1045800046F6C55028800020EAE710E0206A401C6B
:1045900058B900BF00BF019802F07AFB00BF00BF0E
:1045A00046F6C55028800020DAE700E000BF00BFD3
:1045B000206A401C2062D4F820A0C4F8249000BFD8
:1045C00000BF019802F064FB00BF00BF00202880FC
:1045D0005046C5E700BF56480078401C5449087053
:1045E00000BF00BF019802F053FB00BF00BF00BF37
:1045F00008F4007008B13E8900E00126D7F800B049
:1046000011E0DBF808000290DBF8040003900023BF
:104610001A46CDF8009020460299FFF720F8DDF801
:104620000CB0701E86B2002EEBD1D4F820A000BFD3
:1046300000BF00BF02F028FB019000BF00BF3C4854
:104640000078401E3A49087000BF00BF019802F090
:104650001FFB00BF00BF00BF08F4004008B9FEF711
:10466000ACFB0020288050467AE72DE9FF41054643
:104670000F46144635B945F6C3502080002004B0DB
:10468000BDE8F08100262B48007800280CDD0020D2
:10469000034602462946CDE9017603940090264858
:1046A000FFF76EF90020EAE72346324639462846EE
:1046B000FFF72CFF80464046E1E72DE9F041044634
:1046C0000E4615464FF000081A480078002804DD11
:1046D00046F6C6502880BDE8F0811CB945F6C350A7
:1046E0002880F8E70020288000BF00BF02F0CCFA45
:1046F000804600BF00BF206A08B1266208E004F1CE
:104700000807388908B9266202E047F25E1028805F
:1047100000BF00BF404602F0BBFA00BF00BF00BFB1
:10472000D9E70021054A1160054A118001807047D0
:10473000F3120020C812002053454D41FC12002006
:104740000013002070B50446002600209E49086032
:104750009E4908809E4908609E4908609E490860FD
:104760009E4805680EE000BF00BF02F08DFA0646C5
:1047700000BF00BF2D6F00BF00BF304602F088FAB7
:1047800000BF00BF002DEED101F03CFB02F06CF940
:104790000020208070BDF8B5044600266A4600213E
:1047A000022001F041FBBDF8000018B1BDF8000087
:1047B0002080F8BD00BF00BF02F066FA064600BFC9
:1047C00000BF00208649086000BF00BF304602F0ED
:1047D0005FFA00BF00BF002582480068824909686F
:1047E000884205D97F4800687F490968B0FBF1F528
:1047F00025B97C4800680A21B0FBF1F56A46002122
:10480000284601F011FB00BF00BF02F03DFA06464A
:1048100000BF00BF00206E490860714800687349FE
:10482000086001207249087000BF00BF304602F0E6
:104830002FFA00BF00BF0020208000BFB9E708B5F5
:104840004FF0000800BF06E06749096848006A4663
:10485000002101F0E9FA664800780128F4D16846A1
:10486000FFF770FF00255F4800685F4909688842CC
:1048700005D95C4800685C490968B0FBF1F525B9C9
:10488000584800680A21B0FBF1F557E0002700BF47
:1048900000BF02F0F9F9804600BF00BF5048006831
:1048A0005449086000204E49086000BF00BF4046E0
:1048B00002F0EEF900BF00BF4C4800684D4909689E
:1048C000884213D94948006860B14A4800686421A9
:1048D000484346490968B0FBF1F0C0F1640046491D
:1048E000087006E064204449087002E064204249F0
:1048F000087002F040F93948046807E06B4604F19B
:104900006402111D204600F0B3FE246F002CF5D187
:104910003A480078012805D10020384908706846D7
:10492000FFF710FF7E422A480068864201D92848D6
:1049300006606A460021284601F076FAA6E710B51F
:104940008AB004460020264908602A4908602749A1
:10495000086027490870294908702948006820B96B
:1049600046F62C6020800AB010BD26480068264913
:104970000968884203D246F62D602080F3E7234879
:104980000078072803D346F273202080EBE703204A
:1049900000210591CDE907040691084619490968E7
:1049A0001B4A1268164B1B68CDE90132CDE9031092
:1049B000164800780023AFF2791216A100901A4829
:1049C00000F07FF800BFCEE7DC120020D6120020F6
:1049D000141300202C130020381300202013002073
:1049E0000413002064EB00084CEB000808130020BF
:1049F000101300200C1300200213002018130020B5
:104A000050EB000858EB000860EB000848EB00088A
:104A100054EB000875432F4F532D494949205374D7
:104A20006174205461736B00488900200021C166C5
:104A3000FE49096811B90021016705E0FB490968D1
:104A40000167FA490968C866F8490860704700229A
:104A5000026082604260C260026142618261C26142
:104A6000F3A20262002242628262C2620263C287D1
:104A70000264002106E0002300F15C0242F82130CC
:104A80004A1CD1B20029F6D00022343002614260C3
:104A900080F82C204263026302814FF000424261A1
:104AA00000228261C26102624262027042708270C0
:104AB0000822C27000228263C263DFA2026434381B
:104AC00070472DE9FF4F87B004469046DDE91BA5EE
:104AD000DDE91496179F00200390D848007800283D
:104AE00005DD47F24A1028800BB0BDE8F08F1CB9F5
:104AF00047F2AD102880F7E7B8F1000F03D147F275
:104B00004F102880F0E71EB946F62C602880EBE7AE
:104B1000CB480068874203D246F62D602880E3E741
:104B20001698B84203D346F62E602880DCE7B9F128
:104B3000080F03D346F273202880D5E7B9F1000FA0
:104B400006D1C048844203D046F273202880CBE7C8
:104B5000B9F1070F06D1BC48844203D046F2732056
:104B60002880C1E72046FFF772FF002028800AF066
:104B7000010090B10AF0020078B10596002006907D
:104B800008E00021059801600598001D0590069831
:104B9000401C06900698B842F3D3169806EB8000A6
:104BA0000490CDE9007A32464046049B0A9901F010
:104BB000E6FF0590C4F828800A98E0620898206211
:104BC00084F83790059820600498A0601998606573
:104BD000199818B99D480068A06501E01998A0656A
:104BE0001A9860606662A763A4F83CA04FF0000BBF
:104BF00008E0002104F15C0040F82B100BF10100EB
:104C00001FFA80FBBBF1000FF3D0204601F0B4FF88
:104C100000BF00BF00BF02F037F8039000BF00BF25
:104C20008B480078401C8A49087000BF00BF039879
:104C300002F02EF800BF00BF00BF94F83700FFF766
:104C4000C5F92046FEF7AAFB2046FFF7EFFE814894
:104C50000088401C7F4908807F48007801282DD0BB
:104C600000BF00BF00BF02F00FF8039000BF00BFFD
:104C700077480078401E7649087008460078A0B949
:104C800076480088002809DD00BF00BF039801F0C6
:104C9000FFFF00BF00BFFEF73CFD0DE000BF00BFFF
:104CA000039801F0F5FF00BF06E000BF00BF0398C6
:104CB00001F0EEFF00BF00BF00BF15E700BF00BF5F
:104CC00000BF01F0E1FF039000BF00BF6048007823
:104CD000401E5F49087000BF00BF039801F0D8FF75
:104CE00000BF00BF00BFFEF768F800BFFCE6C26E61
:104CF000016F3AB94D4B196009B10023CB6600230F
:104D0000036709E019B900231367C36604E011675C
:104D1000CA6600230367C366704770B504460D4634
:104D2000002646480078002803DD47F24E10288010
:104D300070BD4548844203D147F24C102880F7E704
:104D40004048844203D147F24D102880F0E77CB9F7
:104D500000BF00BF01F098FF064600BF00BF4048FB
:104D6000046800BF00BF304601F092FF00BF00BFE3
:104D700000BF00BF00BF01F087FF064600BF00BFB5
:104D800033480078401C3249087000BF00BF3046ED
:104D900001F07EFF00BF00BF00BF94F83600082876
:104DA0002DD2DFE800F004090E10080A0F1120468A
:104DB000FEF714FA72E071E000BF204600F0D8FD63
:104DC0006CE000BF00BF00BF204600F0D1FD94F8AA
:104DD0003400082810D2DFE800F004070508090AAB
:104DE0000B0600BF00BF08E000BF00BF00BF00BF50
:104DF0002046FEF78CFA00E000BF00BF4EE000BF87
:104E000000BF00BF01F040FF064600BF00BF1048D2
:104E10000078401E0E4908700846007888BB0F488D
:104E20000088002826DD00BF00BF1BE02013002003
:104E30003F5461736B00000020000000C812002086
:104E400060EB000870880020F8870020F412002032
:104E5000F312002024130020C9120020D4120020D5
:104E600048130020304601F013FF00BF00BFFEF7DB
:104E700050FC0EE000BF00BF304601F009FF00BF4C
:104E800007E0FFE700BF00BF304601F001FF00BFB1
:104E900000BF00BF46F62A60288049E700BF2046D1
:104EA00001F06BFE2046FFF722FFFE480088401EFF
:104EB000FC4908802046FFF7CAFDFF2084F8360031
:104EC00000BF00BF00BF01F0DFFE064600BF00BF0D
:104ED000F5480078401EF449087000BF00BF304616
:104EE00001F0D6FE00BF00BF00BFFDF766FF002047
:104EF000288000BF1CE72DE9F04104460D46164608
:104F00004FF000082DB146F6791030800020BDE842
:104F1000F08100BF00BF01F0B7FE804600BF00BFB8
:104F20000CB9E248046804F15C0050F8257000BF39
:104F300000BF404601F0ACFE00BF00BF0020308043
:104F40003846E4E72DE9F04104460D4617461E4673
:104F50004FF0000825B146F679103080BDE8F081A9
:104F600000BF00BF01F090FE804600BF00BF0CB93B
:104F7000CE48046804F15C0040F8257000BF00BF13
:104F8000404601F085FE00BF00BF0020308000BF1A
:104F9000E4E770B504460D460026C54800780028B1
:104FA00003DD47F25510288070BD00BF00BF01F03F
:104FB0006BFE064600BF00BF1CB1BC4800688442BF
:104FC0000AD100BF00BF304601F062FE00BF00BF43
:104FD00047F257102880E7E70020288094F8360031
:104FE00008287BD2DFE800F0040506071243556766
:104FF00000BF00BF00BF00BF00BF304601F048FE49
:1050000000BF00BF47F25310288072E000BFA648DF
:105010000078401CA449087000BF00BF304601F072
:1050200037FE00BF00BF00BF14F8600F401E2070A5
:1050300014F8600928B9002084F836002046FEF7ED
:10504000FDF900BF00BF00BF01F01EFE064600BF15
:1050500000BF95480078401E9349087000BF00BF0C
:10506000304601F015FE00BF00BF00BF41E014F85C
:10507000600F401E207014F8600910B9012084F8F8
:10508000360000BF00BF304601F002FE00BF00BF87
:105090002FE014F8600F401E207014F8600910B95A
:1050A000022084F8360000BF00BF304601F0F0FD5A
:1050B00000BF00BF1DE014F8600F401E207014F800
:1050C000600910B9032084F8360000BF00BF3046E5
:1050D00001F0DEFD00BF00BF0BE0FFE700BF00BF37
:1050E000304601F0D5FD00BF00BF46F62A6028809B
:1050F0005AE700BFFDF761FE00BF55E72DE9F04715
:105100000746884614461D464FF000096848007857
:10511000002805DD46F2AE1028800020BDE8F087AB
:105120000CB10020206000BF00BF01F0ADFD814642
:1051300000BF00BF5D480068406CC8B15B480068B4
:10514000406C401E59490968486458480068466CDC
:105150001CB156480068006C206000BF00BF484684
:1051600001F096FD00BF00BF002028803046D5E743
:1051700008F4004058B100BF00BF484601F088FD68
:1051800000BF00BF46F2B01028800020C6E74648A6
:10519000007800280BDD00BF00BF484601F078FD15
:1051A00000BF00BF46F6635028800020B6E700BF6E
:1051B0003D480078401C3C49087000BF00BF48468D
:1051C00001F066FD00BF00BF00BF3B460722002183
:1051D0000846FEF74AF800BF00BF00BF01F054FDCB
:1051E000814600BF00BF30480078401E2E4908703D
:1051F00000BF00BF484601F04BFD00BF00BF00BF2D
:10520000FDF7DBFD00BF00BF01F03EFD814600BFA2
:1052100000BF2648006890F8350020B101280AD068
:10522000032818D110E01CB120480068006C2060F1
:105230000020288013E01CB11C480068006C20602E
:1052400046F2A91028800AE00CB10020206047F245
:10525000D920288003E046F62B60288000BF00BFDD
:1052600012480068466C00BF00BF484601F010FDC0
:1052700000BF00BF304651E72DE9F8430446884699
:1052800017461D464FF0000900BF00BF00BF01F0E8
:10529000FBFC814600BF00BF03480078401C024968
:1052A000087007E024130020F312002048130020A8
:1052B000C812002000BF00BF484601F0E9FC00BF53
:1052C00000BF00BF0CB9F84804682764002028809C
:1052D00094F83600082871D2DFE800F00405EFF0FA
:1052E0000607F1F200BF00BF00BF0420012804D070
:1052F000022839D004286FD170E0606CFF2832D1C9
:1053000000BF00BF00BF01F0BFFC814600BF00BF6F
:10531000E6480078401EE549087008460078A0B9C4
:10532000E3480088002809DD00BF00BF484601F0BF
:10533000AFFC00BF00BFFEF7ECF90DE000BF00BFFF
:10534000484601F0A5FC00BF06E000BF00BF48468C
:1053500001F09EFC00BF00BF00BF46F6C55028808C
:105360000020BDE8F88371E04FF6FF71606C884261
:1053700033D100BF00BF00BF01F086FC814600BFF3
:1053800000BFCA480078401EC84908700846007827
:10539000A8B9C7480088002809DD00BF00BF4846FB
:1053A00001F076FC00BF00BFFEF7B3F90EE000BFCE
:1053B00000BF484601F06CFC00BF07E0D9E000BF29
:1053C00000BF484601F064FC00BF00BF00BF46F6C6
:1053D000C55028800020C4E737E037E0606C401CEF
:1053E00088BB00BF00BF00BF01F04EFC814600BF7C
:1053F00000BFAE480078401EAC49087008460078EF
:10540000A0B9AB480088002809DD00BF00BF4846AE
:1054100001F03EFC00BF00BFFEF77BF90DE000BFCE
:1054200000BF484601F034FC00BF06E000BF00BFEB
:10543000484601F02DFC00BF00BF00BF46F6C55036
:10544000288000208DE7FFE700E000BF00BF606C10
:10545000401C6064666C00BF00BF00BF01F014FC1C
:10546000814600BF00BF91480078401E8F490870F8
:1054700008460078A0B98E480088002809DD00BFE2
:1054800000BF484601F004FC00BF00BFFEF741F931
:105490000DE000BF00BF484601F0FAFB00BF06E088
:1054A00000BF00BF484601F0F3FB00BF00BF00BFD4
:1054B00091E005E003E001E0FFE700BF00BF00BFAF
:1054C00094F83400072822D100231A4621461846B2
:1054D0000097FEF7C4F8666C00BF00BF00BF01F084
:1054E000D3FB814600BF00BF70480078401E6F4963
:1054F000087000BF00BF484601F0CAFB00BF00BFF4
:1055000000BF08F4004098BBFDF757FC30E0606C2A
:10551000401C6064666C00BF00BF00BF01F0B4FBBC
:10552000814600BF00BF61480078401E5F49087097
:1055300008460078A0B95E480088002809DD00BF51
:1055400000BF484601F0A4FB00BF00BFFEF7E1F832
:105550000DE000BF00BF484601F09AFB00BF06E027
:1055600000BF00BF484601F093FB00BF00BF00BF73
:1055700031E000BF00BF00BF01F086FB814600BFE5
:1055800000BF4A480078401E484908700846007825
:10559000A0B947480088002809DD00BF00BF484681
:1055A00001F076FB00BF00BFFEF7B3F80DE000BFCF
:1055B00000BF484601F06CFB00BF06E000BF00BF23
:1055C000484601F065FB00BF00BF00BF46F62A60F9
:1055D0002880002600BF00BF3046C2E62DE9FF410B
:1055E00005460F46144600263248007800280EDD96
:1055F00000200090034602462946CDE9026401904E
:105600002D48FEF7BDF9002004B0BDE8F081234627
:10561000324639462846FFF72FFE80464046F3E7DC
:105620002DE9F04104460F4615464FF00008214889
:105630000078002805DD46F6C65028800020BDE829
:10564000F08100BF00BF01F01FFB804600BF00BF1C
:105650000CB915480468666C676400BF00BF40461B
:1056600001F016FB00BF00BF002028803046E6E7AF
:105670002DE9F04705460E4617461C464FF0000A36
:105680000C480078002804DD47F258102080BDE85F
:10569000F0871EB946F2D5202080F8E777B946F2A8
:1056A000D5202080F3E7000048130020F3120020EB
:1056B000D4120020C81200205453494700BF00BF35
:1056C00001F0E2FA824600BF00BF0DB99F480568AD
:1056D000286868B900BF00BF504601F0D9FA00BF82
:1056E00000BF00203060386047F252102080CEE7C3
:1056F00095F83C0000F0010068B900BF00BF5046BB
:1057000001F0C6FA00BF00BF00203060386047F2E9
:1057100054102080BBE700BF00BF504601F0B8FA2C
:1057200000BF00BF4FF00008D5F8249003E009F156
:10573000040908F10108D9F800000028F7D0C6F8DC
:105740000080A86BA0EB080038600020208000BF1C
:105750009DE770B504460D4600267D480078002878
:1057600003DD47F25C10288070BD7A48844203D183
:1057700047F25A102880F7E77748844203D147F26E
:105780005B102880F0E700BF00BF01F07DFA0646FD
:1057900000BF00BF0CB96D4804686C4800688442C3
:1057A0000ED16E48007800280ADD00BF00BF3046E9
:1057B00001F06EFA00BF00BF46F663502880D3E7C1
:1057C0000020288094F8360008286CD2DFE800F02A
:1057D00004313F4D5B5C5D5E00BF60480078401C5B
:1057E0005E49087000BF00BF304601F051FA00BFAB
:1057F00000BF00BF042084F83600012084F8600058
:105800002046FDF7EBFC00BF00BF00BF01F03CFAF3
:10581000064600BF00BF51480078401E4F4908703F
:1058200000BF00BF304601F033FA00BF00BF00BF29
:1058300044E0052084F83600012084F8600000BFB1
:1058400000BF304601F024FA00BF00BF36E006205A
:1058500084F83600012084F8600000BF00BF3046A5
:1058600001F016FA00BF00BF28E0072084F83600D8
:10587000012084F8600000BF00BF304601F008FA44
:1058800000BF00BF1AE000BF00BF00BF94F8600077
:10589000401C84F8600000BF00BF304601F0F8F9FA
:1058A00000BF00BF0AE000BF00BF304601F0F0F9C2
:1058B00000BF00BF46F62A60288055E700BFFDF70D
:1058C0007CFA00BF50E72DE9F04104460D4616462C
:1058D00000271F480078002804DD46F6C6503080B7
:1058E000BDE8F08100BF00BF01F0CEF9074600BF60
:1058F00000BF0CB9154804681DB9194800686065F7
:1059000000E06565D4E91501884201D9606DA065A4
:1059100000BF00BF384601F0BBF900BF00BF002048
:10592000308000BFDCE700210E4A11600E4A118072
:105930000E4A11600180704708B50448006801F004
:105940001DF969460020FFF7E8F908BD481300205B
:10595000C8120020F887002070880020F312002071
:10596000F412002020130020241300201C13002018
:1059700010B5C269BAB1002404651468844205D127
:105980004169116039B100248C6104E08169436987
:105990004B6103B19961002444618461C461C464B2
:1059A0009488641E948010BD2DE9F05F4FF0000BC9
:1059B00000BF00BF00BF01F067F9834600BF00BF12
:1059C000FE480078401CFD49087000BF00BF5846E3
:1059D00001F05EF900BF00BF00BF4FF0000AF848B9
:1059E0000068401CF649086008460068F5490988C7
:1059F000B0FBF1F201FB12001FFA80F9F24800EB54
:105A0000C9073C68002678E0002C75D0D4F81480D3
:105A100094F8360008286BD2DFE800F00408051B74
:105A20000638074B00BF00BF00BF62E0E449E06CEE
:105A30000968401A2065E249E06C0968884206D18D
:105A4000002084F836002046FDF7F8FC00E001262F
:105A50004FE0DB49E06C0968401A2065D849E06CEA
:105A60000968884210D1002020642046FDF74FFCD1
:105A70002046FDF7E3FC00203434A0700320607062
:105A8000002004F8340900E0012632E0CC49E06C43
:105A90000968401A2065CA49E06C0968884206D145
:105AA000042084F836002046FFF762FF00E001265C
:105AB0001FE0C349E06C0968401A2065C049E06CEA
:105AC0000968884210D1002020642046FDF71FFCA1
:105AD0002046FFF74DFF04203434A070032060708F
