:020000040800F2
:1000000060BD002045010008C9010008CB010008BF
:10001000CF010008D3010008D7010008000000004C
:10002000000000000000000000000000DB010008EC
:10003000DD010008000000004F540008F101000835
:100040005F0100085F0100085F0100085F01000810
:100050005F0100085F0100085F0100085F01000800
:100060005F0100085F0100085F0100085F010008F0
:100070005F0100085F0100085F0100085F010008E0
:100080005F0100085F0100085F0100085F010008D0
:100090005F0100085F0100085F0100085F010008C0
:1000A0005F0100085F0100085F0100085F010008B0
:1000B0005F0100085F0100085F0100085F010008A0
:1000C0005F0100085F0100085F0100085F01000890
:1000D0005F0100085F010008DF0100085F01000800
:1000E0005F0100085F0100085F0100085F01000870
:1000F0005F0100085F0100085F0100085F01000860
:100100005F0100085F0100085F0100085F0100084F
:100110005F0100085F0100085F0100085F0100083F
:100120005F0100085F0100085F0100085F0100082F
:10013000DFF80CD006F01EF80048004769010008FF
:1001400060BD00200648804706480047FEE7FEE7FE
:10015000FEE7FEE7FEE7FEE7FEE7FEE7FEE7FEE777
:10016000CB0E00083101000800B58BB000F06BFF2A
:100170000AA801F0EDFD0AA8032100220592CDE9AD
:100180000621089010464FF480616622094BCDE9A4
:100190000132CDE9031003200023074A07A1009094
:1001A000084803F0F0FC0AA802F011F800200BB098
:1001B00000BD0000800C0020891200085374617299
:1001C00074557000080C0020704700BFFEE700BFA8
:1001D000FEE700BFFEE700BFFEE77047704710B5BF
:1001E00001F00DFE074805F007FB01F019FE10BDF8
:1001F00010B501F004FE05F0F6F801F0E3FA01F0A5
:100200000FFE10BDA8240020DF48006840F0010068
:10021000DD49086008464068DC490840DA49486022
:1002200008460068DA490840D7490860084600686F
:1002300020F4802008600846406820F4FE004860F2
:100240004FF41F0088607047CF49096821F480315E
:10025000CD4A11601146096821F480211160B0F582
:10026000803F03D0B0F5802F0ED106E0C649096863
:1002700041F48031C44A116007E0C349096841F480
:10028000A021C14A116000E000BF00BF704710B557
:1002900001460022002300204A11012A02D1BA4C53
:1002A000236806E0022A02D1B74C236A01E0B64C6B
:1002B000636A01F01F02012494401C400CB101202C
:1002C00000E0002010BD38B500200090002400257B
:1002D00000BF3120FFF7DBFF05460098401C00906F
:1002E0000098B0F5A06F01D0002DF2D03120FFF7BB
:1002F000CEFF08B1012400E00024204638BD0146AD
:100300000020A14A106820F0F80040EAC100106007
:100310007047A04908607047024600209A4B586811
:1003200020F47C1042EA01031843974B5860704751
:1003300098490866704701460020934A506820F0AB
:1003400003000843506070478F48406800F00C007D
:100350007047014600208C4A506820F0F0000843A6
:100360005060704701460020874A506820F4E060E2
:1003700008435060704701460020834A506820F4CB
:10038000605040EAC1005060704729B17E4A527AFD
:1003900002437D4B5A7204E07B4A527A82437A4B85
:1003A0005A7270477B49D831086070470146002077
:1003B000754A506820F4404008435060704700215F
:1003C000714A20321170704A82F82010012802D040
:1003D00004280AD104E001216B4A2032117005E0A3
:1003E0000521694A2032117000E000BF00BF70474C
:1003F0006949086070476449096A0143624A1162A9
:100400007047654944390860704730B500210022C3
:10041000002400235C4D6D6805F00C0121B1042916
:1004200005D0082923D105E05C4D056022E05B4D35
:1004300005601FE0544D6D6805F47012524D6D68F3
:1004400005F48034022505EB92421CB9544D554306
:1004500005600BE04C4D6D6805F400351DB1504D45
:100460005543056002E04D4D5543056002E04B4D9C
:10047000056000BF00BF444D6D6805F0F00109093B
:10048000484D6B5C0568DD4045603F4D6D6805F487
:10049000E061090A434D6B5C4568DD4085603A4D7B
:1004A0006D6805F46051C90A3E4D6B5C4568DD40DE
:1004B000C560354D6D6805F44041890B3A4D6B5C64
:1004C000C568B5FBF3F5056130BD29B12E4A526907
:1004D00002432D4B5A6104E02B4A526982432A4B56
:1004E0005A61704729B1284A92690243264B9A61A2
:1004F00004E0254A92698243234B9A61704729B1EF
:10050000214AD2690243204BDA6104E01E4AD269D3
:1005100082431D4BDA61704729B11B4AD2680243FE
:10052000194BDA6004E0184AD2688243164BDA604D
:10053000704729B1144A12690243134B1A6104E04F
:10054000114A12698243104B1A61704712494039AF
:10055000086070470F49C86470470B49C8717047FD
:100560000948406A40F08070074948627047014678
:100570000020054A92680A400AB1012000E00020EC
:100580007047014988727047001002400000FFF870
:10059000FFFFF6FE000042428004424200127A0051
:1005A00000093D00000000201000002010B50446A6
:1005B000CC48844208D101210420FFF7ADFF00217F
:1005C0000420FFF7A9FF46E0C748844208D1012173
:1005D0000820FFF7A1FF00210820FFF79DFF3AE068
:1005E000C248844208D101211020FFF795FF002165
:1005F0001020FFF791FF2EE0BD48844208D1012171
:100600002020FFF789FF00212020FFF785FF22E04F
:10061000B848844208D101214020FFF77DFF002126
:100620004020FFF779FF16E0B348844208D101214A
:100630008020FFF771FF00218020FFF76DFF0AE0A7
:10064000AE48844207D101218015FFF765FF0021E4
:10065000A015FFF761FF10BD10B501210846FFF797
:100660005BFF00210120FFF757FF10BD2DE9F0418E
:10067000024600250026002000230024002791F8D0
:1006800003C00CF00F0591F803C00CF0100CBCF186
:10069000000F03D091F802C04CEA050591F800C0A4
:1006A000BCF1000F31D0146800202BE04FF0010C9A
:1006B0000CFA00F3B1F800C00CEA03069E4220D108
:1006C00083004FF00F0C0CFA03F7BC4305FA03FC50
:1006D0004CEA040491F803C0BCF1280F06D14FF096
:1006E000010C0CFA00FCC2F814C00AE091F803C037
:1006F000BCF1480F05D14FF0010C0CFA00FCC2F818
:1007000010C0401C0828D1D31460B1F800C0BCF15F
:10071000FF0F34DD546800202EE000F1080C4FF08C
:10072000010808FA0CF3B1F800C00CEA03069E4277
:1007300021D183004FF00F0C0CFA03F7BC4305FAEC
:1007400003FC4CEA040491F803C0BCF1280F05D166
:1007500000F1080C08FA0CF8C2F8148091F803C0F4
:10076000BCF1480F07D100F1080C4FF0010808FA5E
:100770000CF8C2F81080401C0828CED35460BDE8A5
:10078000F0814FF6FF710180022181700421C17058
:1007900070470246002093680B400BB1012000E037
:1007A000002070470146886880B2704702460020EA
:1007B000D3680B400BB1012000E0002070470146D8
:1007C000C86880B2704701617047416170470AB1E3
:1007D000016100E041617047C16070474FF48032B1
:1007E0000A4382618161826182698269704702463F
:1007F0000020434B18684FF68073184040EA0210FF
:1008000008433F4B186070473E49C8617047F0B5D8
:100810000A46002300240021002500F00046B6F11E
:10082000004F02D1364EF16901E0354E7168C0F3D8
:10083000034583B200F44016B6F5401F08D121F0FD
:1008400070612F4E766826F070662D4F7E6012E044
:1008500000F48016B6F5801F06D1032606FA05F4CB
:10086000A14341F0706106E0460D360103FA06F639
:10087000B14341F0706122B1460D360103FA06F62C
:10088000314300F00046B6F1004F02D11C4EF16139
:1008900001E01B4E7160F0BD30B500228B071C0FCC
:1008A0000F2303FA04F2164B08338C1053F824304C
:1008B0009343134C08348D1044F8253023468C1094
:1008C00053F824308C07240F00FA04F423430C4C13
:1008D00008348D1044F8253030BD0A49DC310860F9
:1008E0007047000000080140000C0140001001406A
:1008F0000014014000180140001C0140002001408C
:10090000000001400000204231490143314A11609A
:10091000704770B5002100230F22C47804B32D4C1A
:10092000246804F4E064C4F5E064210AC1F104031E
:10093000CA40447804FA03F1847814402143090141
:10094000254C0678A155047804F01F050124AC401D
:1009500005786D11AD0005F1E025C5F8004109E00D
:10096000047804F01F050124AC401C4D0678761174
:1009700045F8264070BD1A4A0A400243154B1B1F1A
:100980001A60704739B1134A121D12680243114BA5
:100990001B1D1A6006E00F4A121D126882430D4BA0
:1009A0001B1D1A607047042808D14FF0E021096927
:1009B00041F004014FF0E022116107E04FF0E02127
:1009C000096921F004014FF0E02211617047000035
:1009D0000000FA050CED00E000E400E080E100E03A
:1009E00080FFFF1F10B50446FB48844209D1012156
:1009F0008803FFF791FD00214FF48040FFF78CFD45
:100A000032E0F648844209D101214804FFF791FD04
:100A100000214FF40030FFF78CFD25E0F0488442C0
:100A200009D101218804FFF784FD00214FF48020C3
:100A3000FFF77FFD18E0EB48844209D10121C8048B
:100A4000FFF777FD00214FF40020FFF772FD0BE068
:100A5000E548844208D101210805FFF76AFD00211D
:100A60004FF48010FFF765FD10BD2DE9F04786B00B
:100A700005460E460024A24600BFA1460027B089C5
:100A800000B100BF2F462C8A4CF6FF700440F0885E
:100A900004432C82AC894EF6F3100440B0883189AF
:100AA0000843718908430443AC81AC8A4FF6FF4088
:100AB0000440B0890443AC8201A8FFF7A6FCC648F5
:100AC000874202D1DDF810A001E0DDF80CA0A88972
:100AD00000F4004040B10AEBCA0000EB0A10316894
:100AE0004900B0FBF1F807E00AEBCA0000EB0A107E
:100AF00031688900B0FBF1F86420B8FBF0F0040124
:100B00002009642101FB1089A88900F4004040B14C
:100B1000322000EBC900B0FBF1F000F00700044305
:100B200008E0322000EB09106421B0FBF1F000F086
:100B30000F0004432C8106B0BDE8F0874FF4165136
:100B4000016000218180C18001810C21418100214F
:100B50008181704710B502460020108A4FF2FF03D2
:100B600018400B884C8823438C882343CC8823432C
:100B70001843108210BD0021018041808180C18016
:100B8000704721B1828942F40052828104E0828957
:100B90004DF6FF731A4082817047F0B5034600247A
:100BA00000260025002040F66A17B94200D100BF98
:100BB0001846C1F3421401F01F06012707FA06F593
:100BC000012C01D10C3004E0022C01D1103000E0E6
:100BD00014301AB107682F43076002E00768AF437B
:100BE0000760F0BD1AB1838A0B43838202E0838AD7
:100BF0008B4383827047028A4FF6F0731A40028259
:100C0000028A0A430282704782894FF2FF731A40B8
:100C1000828182890A438281704721B1828942F0B0
:100C20000202828104E082894FF6FD731A408281BC
:100C30007047028A4FF6DF731A400282028A0A4323
:100C40000282704721B1028A42F48042028204E0AB
:100C5000028A4BF6FF731A4002827047C1F3080202
:100C60008280704701468888C0F3080070478189F8
:100C700041F0010181817047028BD2B20283028B65
:100C800042EA012202837047028B02F47F42028310
:100C9000028B0A430283704721B1828A42F020020C
:100CA000828204E0828A4FF6DF731A4082827047A4
:100CB00021B1828A42F01002828204E0828A4FF6D9
:100CC000EF731A408282704721B1828A42F0080293
:100CD000828204E0828A4FF6F7731A40828270475C
:100CE00021B1828942F40042828103E08289C2F309
:100CF0000E028281704721B1828A42F400628282B0
:100D000004E0828A4FF2FF731A4082827047828A1F
:100D10004FF6FB731A408282828A0A4382827047AE
:100D200021B1828A42F00202828204E0828A4FF676
:100D3000FD731A408282704702460020B1F5007FA1
:100D400000D100BF13880B400BB1012000E0002050
:100D5000704701F40072B2F5007F00D100BFCA43B2
:100D60000280704770B50246002400230025002051
:100D700040F66A16B14200D100BFC1F3421501F03E
:100D80001F03012606FA03F3012D02D19689334091
:100D900006E0022D02D1168A334001E0968A3340E4
:100DA0000C12012606FA04F41688344013B10CB173
:100DB000012000E0002070BD10B50022002340F6A5
:100DC0006A14A14200D100BF0A1201249440A3B2C8
:100DD000DC43048010BD00000038014000440040A6
:100DE00000480040004C0040005000400CB500207E
:100DF000019000906C48006840F480306A490860B7
:100E000000BF6948006800F4003000900198401C61
:100E10000190009818B90198B0F5A06FF1D162481F
:100E2000006800F4003010B10120009001E00020C3
:100E300000900098012843D15C48006840F0100001
:100E40005A4908600846006820F003000860084618
:100E5000006840F00200086053484068524948600A
:100E60000846406848600846406840F48060486032
:100E70000846406820F47C1048600846406840F40A
:100E8000E81048600846006840F08070086000BFC5
:100E90004548006800F000700028F9D042484068DA
:100EA00020F00300404948600846406840F00200D6
:100EB000486000BF3C48406800F00C000828F9D1A9
:100EC0000CBD10B5FFF792FF10BD10B53648006895
:100ED00040F0010034490860084640683449084041
:100EE0003149486008460068324908402E49086088
:100EF0000846006820F4802008600846406820F416
:100F0000FE0048604FF41F008860FFF7DAFF4FF0E3
:100F100000602949086010BD10B5002100200022A2
:100F2000214B5B6803F00C0121B1042906D008298C
:100F300028D107E0214B224C236027E01F4B204C97
:100F4000236023E0184B5B6803F47010164B5B685A
:100F500003F48032022303EB904022B9194B434340
:100F6000174C23600DE0104B5B6803F4003323B192
:100F7000144B4343124C236003E0104B4343104C8B
:100F8000236003E00D4B0E4C236000BF00BF064BF7
:100F90005B68C3F303130C4CE15C094B1B68CB404B
:100FA000074C236010BD00000010024000200240EA
:100FB0000000FFF8FFFFF6FE08ED00E000127A00E7
:100FC0001400002000093D001800002030B5014643
:100FD000B1F1807F01D3012030BD21F07F40401E60
:100FE0004FF0E022506150170F22002807DA130754
:100FF0001D0E254B00F00F04241F1D5503E01307A1
:101000001C0E224B1C5400BF00204FF0E0229061C8
:10101000072010610020DFE710B51D4800684FF47D
:101020007A71B0FBF1F42046FFF7D0FF1848006852
:101030004FF47A71B0FBF1F42046FFF7C7FF08B117
:1010400000BFFEE710BD00B587B000F031F804F036
:10105000E7FC00204FF48063CDE90130039000935A
:1010600004900C4B0C4A0D490D4804F0F8FA00F0BE
:10107000BCFDFFF7D1FF06AB01220AA10B4802F02D
:1010800042F807B000BD000018ED00E000E400E009
:1010900014000020A8200020A81C002000440040CC
:1010A000A82400207561727453656D00801C0020B7
:1010B00008B501210846FFF715FA01213F48FFF75F
:1010C000A6FB01213E48FFF7A2FB01210420FFF708
:1010D00009FA01210820FFF705FA01211020FFF786
:1010E00001FA01212020FFF7FDF94FF47A70ADF8E5
:1010F000000010208DF8030003208DF802006946DF
:101100003048FFF7B3FABDF800102E48FFF75DFB3B
:101110004FF4E050ADF8000010208DF803000320DC
:101120008DF8020069462848FFF7A0FABDF80010C4
:101130002548FFF74AFB4FF47070ADF800002820F7
:101140008DF8030003208DF8020069461E48FFF762
:101150008DFA4FF44040ADF8000028208DF80300D0
:1011600003208DF8020069461648FFF77FFA4FF416
:101170001E40ADF8000010208DF8030003208DF80C
:10118000020069461148FFF771FABDF800100F48D8
:10119000FFF71BFB0420ADF8000010208DF80300C2
:1011A00003208DF8020069460948FFF75FFABDF891
:1011B00000100748FFF709FB08BD000000043000DD
:1011C00000023000000C0140001001400008014006
:1011D000001401400EB5002000F091FA04460CE026
:1011E000204600F08CFA044602A800211E230A467D
:1011F000CDE90010084603F0FEFEF1E71FB5002020
:1012000002901CE00CE09DF8080004F06FFC03A8BD
:10121000002101230A46CDE90010084603F0EBFE49
:1012200002A9714804F05AFA0028ECD003A8002162
:101230000A230A46CDE90010084603F0DCFEE1E788
:101240000EB512E002A800231A46642100906748F8
:1012500002F053F800F0F2F802A800213C230A46FD
:10126000CDE90010084603F0C6FEEBE70EB50AE034
:1012700004F031FD02A8002132230A46CDE9001016
:10128000084603F0B8FEF3E730B58BB005460024FE
:1012900000BF00BF00BF04F09FF9044600BF00BFBD
:1012A00053480078401C5249087000BF00BF2046D8
:1012B00004F096F900BF00BF00BF0AA80321002276
:1012C0000592CDE90621089010464FF48061662210
:1012D000484BCDE90132CDE9031006200023AFF2DF
:1012E000730245A10090464802F04DFC0AA8032174
:1012F00000220592CDE90621089010464FF4806146
:101300006622404BCDE90132CDE9031005200023D0
:10131000AFF2D3023CA100903D4802F034FC0AA891
:10132000032100220592CDE90621089010464FF4D2
:1013300080616622374BCDE90132CDE903100420EC
:101340000023AFF2471234A10090354802F01BFC95
:101350000AA8032100220592CDE906210890104633
:101360004FF4806166222F4BCDE90132CDE90310A5
:1013700003200023AFF2A3122BA100902C4802F00F
:1013800002FC00BF00BF00BF04F026F9044600BF06
:1013900000BF17480078401E1549087008460078BD
:1013A000A0B924480088002809DD00BF00BF2046FE
:1013B00004F016F900BF00BF01F035FA0DE000BFE0
:1013C00000BF204604F00CF900BF06E000BF00BFDC
:1013D000204604F005F900BF00BF00BF0AA9164867
:1013E00002F0FDFC0BB030BDA8240020801C0020C2
:1013F000A30B00204C2500206B65797363616E00A0
:10140000D4240020C435002073686F7774636200B1
:101410004C3500203C4600207561727400000000CD
:10142000C4450020B45600206661636500000000DA
:101430003C560020840B0020080C00207047000060
:101440002DE9F04105460C4616461F466D1E641EEA
:10145000152000F0E9F9284600F07AFAA919481E8B
:1014600000F076FA752000F0DFF9204600F070FAFF
:10147000E119481E00F06CFA302000F0D5F95C202C
:1014800000F0D2F9BDE8F08170B515234FF48072F9
:1014900001210846FFF7D4FF002408E0002503E0FF
:1014A000002000F055FA6D1CFF2DF9DD641C152C91
:1014B000F4DB70BD2DE9F04781468A4614461D468F
:1014C00022012B4651464846FFF7BAFF00270FE09E
:1014D0004FF0000809E0002603E0002000F038FA91
:1014E000761C102EF9DB08F10108A845F3DB7F1C00
:1014F000A742EDDBBDE8F0870820A74908607047E8
:101500001020A549086070472DE9F041074688463C
:1015100015461E46FFF7F0FF0223012241463846DA
:10152000FFF7C8FFFFF7ECFF0223042241463846CD
:10153000FFF786FF00240AE0012E03D1285D00F0AA
:1015400007FA03E0295DC84300F002FA641C082C86
:10155000F2DBBDE8F0812DE9F0478046894616466A
:101560001F46DDF820A002233A4649464046FFF7D1
:10157000A1FF00241AE00223102249464046FFF74B
:101580005FFF00250FE0BAF1010F05D106EB441112
:10159000485D00F0DDF905E006EB4411495DC84304
:1015A00000F0D6F96D1C202DEDDB641CBC42E2DBA3
:1015B000BDE8F08779480068B0F5807F0BDD012039
:1015C0007649086076480068801C754908601528CF
:1015D00001DD01200860704710B50246012907D1DE
:1015E0005078A1381378A13B5E2404FB030010BDA2
:1015F0000120FCE72DE9F04105460E4600270024B6
:1016000000BF11E028190121FFF7E6FF0746A046B9
:1016100004EBD872521006EB4210624A02EB4711FB
:10162000202204F08FFBA41C284604F09DFBA0425E
:10163000E8D8214604EBD1704010BDE8F08130B508
:10164000ADF5217D044601A92046FFF7D3FF0546ED
:10165000554800682B4601AA0090514801684F4840
:101660000068FFF778FF0DF5217D30BD4B4A106013
:101670004B4A116070474C49086070477CB504467E
:101680000D46202C18DB7E2C16DCA4F120004749E7
:1016900001EBC00103C9CDE9000143486A46036874
:1016A0003F4801683D480068FFF72EFF3B4800684F
:1016B00008303A49086000BF3D48007890B13C4886
:1016C00000788DF80400E0B28DF8050001A8FFF75E
:1016D000B6FF3248006810303049086000203449B5
:1016E000087008E03248007828B9202C01DB7E2CF5
:1016F00001DD2F490C70FFF75DFF20467CBD70B502
:101700000446FF252B482C49884200D10024FF2C99
:1017100016D12A480068026928480168284890477D
:101720000546002025490968C86124490968C96837
:10173000486022480068C06800682049086028E0C6
:101740001C4800EB44101D490968C96848601B48E3
:101750000068184901EB4411C9680860154800EB9E
:101760004410164908600846006802690846016886
:10177000134890470546002010490968C8610F4981
:101780000968C96848600D480068C06800680B496E
:101790000860284670BD00002C0B0020200B0020A4
:1017A000240B00207C6E0008280B00202808002055
:1017B000300B0020C80500203C0B00205C0B0020F3
:1017C000640B0020FE480068401CFD490860084684
:1017D0000068FC490968884204D10020F849086083
:1017E000F8490860F64800684FF6FF7190FBF1F287
:1017F00001FB1200F24908607047002106E00A214F
:1018000000BF0A1EA1F1010399B2FAD1021EA0F194
:101810000100F4D1704710B504464FF47A7104FB0F
:1018200001F0FFF7EAFF10BD10B504464FF4007158
:10183000E548FEF7CAFF4FF48071E348FEF7C5FFA5
:101840008021E148FEF7C1FF0120FFF7D6FF4021CC
:10185000DD48FEF7BAFF04F0800028B94FF40061BC
:10186000DA48FEF7B2FF04E04FF40061D748FEF714
:10187000AAFF04F0400028B94FF48051D348FEF786
:10188000A4FF04E04FF48051D048FEF79CFF04F021
:10189000200028B94FF40041CC48FEF796FF04E041
:1018A0004FF40041C948FEF78EFF04F0100028B93C
:1018B0004FF48061C648FEF788FF04E04FF4806172
:1018C000C348FEF780FF04F0080028B94FF4006118
:1018D000BF48FEF77AFF04E04FF40061BC48FEF712
:1018E00072FF04F0040028B94FF48051B848FEF7A5
:1018F0006CFF04E04FF48051B548FEF764FF04F03C
:10190000020020B90421B348FEF75FFF03E0042181
:10191000B048FEF758FF04F0010020B90821AA489A
:10192000FEF753FF03E00821A748FEF74CFF802194
:10193000A548FEF748FF0120FFF75FFF4FF4007155
:10194000A148FEF740FF80219F48FEF73EFF10BDF3
:1019500010B504464FF400719B48FEF736FF4FF474
:1019600080719948FEF72FFF80219748FEF72DFFE1
:101970000120FFF742FF40219348FEF726FF04F0C5
:10198000800028B94FF400619048FEF71EFF04E084
:101990004FF400618D48FEF716FF04F0400028B9AF
:1019A0004FF480518948FEF710FF04E04FF4805156
:1019B0008648FEF708FF04F0200028B94FF40041E4
:1019C0008248FEF702FF04E04FF400417F48FEF733
:1019D000FAFE04F0100028B94FF480617C48FEF74D
:1019E000F4FE04E04FF480617948FEF7ECFE04F069
:1019F000080028B94FF400617548FEF7E6FE04E0E0
:101A00004FF400617248FEF7DEFE04F0040028B9CE
:101A10004FF480516E48FEF7D8FE04E04FF4805139
:101A20006B48FEF7D0FE04F0020020B9042169489B
:101A3000FEF7CBFE03E004216648FEF7C4FE04F087
:101A4000010020B908216048FEF7BFFE03E008212D
:101A50005D48FEF7B8FE80215B48FEF7B4FE01202A
:101A6000FFF7CBFE4FF400715748FEF7ACFE802124
:101A70005548FEF7AAFE10BD10B520215248FEF7CA
:101A8000A4FE0A20FFF7C7FE20214F48FEF79BFE69
:101A90000A20FFF7C0FE3020FFF7C6FE0820FFF740
:101AA000C3FE9420FFF7C0FE3120FFF7BDFED72014
:101AB000FFF7BAFE9F20FFF74BFFAA20FFF7B4FE07
:101AC0000120FFF745FF3220FFF7AEFE0020FFF7B1
:101AD0003FFF0120FFF73CFF0320FFF739FF2020E5
:101AE000FFF7A2FE0120FFF733FF0320FFF730FFCF
:101AF0000520FFF72DFF0720FFF72AFF0920FFF73A
:101B000027FF0B20FFF724FF0D20FFF721FF1020F8
:101B1000FFF71EFF1120FFF71BFF1320FFF718FF31
:101B20001520FFF715FF1720FFF712FF1920FFF709
:101B30000FFF1B20FFF70CFF1D20FFF709FF1F20E1
:101B4000FFF706FF3020FFF76FFEA620FFF76CFEC1
:101B50007520FFF769FE0020FFF7FAFE2820FFF747
:101B6000F7FE1520FFF760FE0020FFF7F1FEFF20D3
:101B7000FFF7EEFEBC20FFF757FE0020FFF7E8FE60
:101B8000CA20FFF751FE0020FFF7E2FE9F20FFF77B
:101B9000DFFE2020FFF7DCFEF020FFF745FE1020DF
:101BA000FFF7D6FE8120FFF73FFE3820FFF7D0FE7B
:101BB0000420FFF7CDFE2020FFF736FE0B200BE0C0
:101BC000680B00206C0B0020000C01400008014055
:101BD0000010014000140140FFF7BAFE6420FFF737
:101BE0000CFEAF20FFF720FE10BD10B5FFF744FF3D
:101BF000FFF74AFC10BD00000F481048104811487C
:101C000011481248124813481348144814481548FC
:101C100015481648164817481748184818481948CC
:101C200019481A481A481B481B481C481C481D489C
:101C30001D481E4800BF70470C6D00086C6C000802
:101C4000706C0008746C0008786C00087C6C0008EC
:101C5000806C0008846C0008886C00088C6C00089C
:101C6000906C0008946C0008986C00089C6C00084C
:101C7000A06C0008B06C0008B46C0008B86C0008D8
:101C8000BC6C0008C06C0008C46C0008C86C00087C
:101C9000CC6C0008D06C0008D46C0008D86C00082C
:101CA000DC6C0008E06C0008E46C0008E86C0008DC
:101CB000002400BF19E000BF00BF03F08DFC044604
:101CC00000BF00BFF9480068401CF8490860F848A8
:101CD0000068401CF649086000BF00BF204603F0C2
:101CE0007FFC00BF00BF03F0E3FBE4E710B58AB060
:101CF00004460020ED490860032000210591CDE94C
:101D0000070406910846EB490968EB4A1268EB4B59
:101D10001B68CDE90132CDE9031007200023AFF2A3
:101D20006F02E7A10090EB4801F02DFF0AB010BD53
:101D300000210AE001EB4102E74B03EB82000022A5
:101D40000281026042604A1CD1B20829F2D3704776
:101D500070B5044603F0ADFB0020E0490870E0498F
:101D60000870E0490870E0490870E04800680A21FE
:101D7000B0FBF1F0DE490860DE48006858B1DE488B
:101D8000056845B1DB48066803E0761E0020286040
:101D90002D1D002EF9D101F065F9FFF7C9FF20468E
:101DA00002F023FE208800B170BD204600F07EFFC7
:101DB000208800B1F8E72046FFF798FF208800B19F
:101DC000F2E7204602F057FF208800B1ECE72046FA
:101DD00001F019FE208800B1E6E7204601F02EF957
:101DE000208800B1E0E7204601F003FD208800B123
:101DF000DAE700F0A5FDFFF7FFFE00BFD4E7B84823
:101E00000078012800D07047B4480078FA2800DB39
:101E1000F9E7B2480078401CB049087000BFF2E70B
:101E200010B50024AE480078012800D010BD00BFD6
:101E300003F0D2FB044600BFA848007828B900BFD1
:101E4000204603F0CDFB00BFF0E7A4480078401E19
:101E5000A249087008460078002805DD00BF20462A
:101E600003F0BEFB00BFE1E79E480078002805DDD7
:101E700000BF204603F0B4FB00BFD7E701F0FCF839
:101E80009E4908700846007800EB4000924951F8DE
:101E900020009B490860084600689A490968884202
:101EA00005D100BF204603F09BFB00BFBEE796486C
:101EB0000068401C944908604FF0805093490860C6
:101EC00000BF204603F08CFB00BF00BFAEE710B59B
:101ED000002482480078002800DD10BD8148007889
:101EE000002800DDF9E700BF03F076FB044600BFE1
:101EF00001F0C2F8814908700846007800EB400004
:101F0000754951F820007E490860084600687D49FF
:101F10000968884205D100BF204603F061FB00BF7D
:101F2000DBE779480068401C774908604FF0805033
:101F30007649086000BF204603F052FB00BF00BF97
:101F4000CBE770B50446002564480078002803DD1F
:101F500046F66250208070BD61480078012803D0A9
:101F600045F689602080F6E75E480078FA2803DBB2
:101F700045F209202080EEE700BF00BF03F02CFBF4
:101F8000054600BF00BF57480078401C55490870FF
:101F900000BF00BF284603F023FB00BF00BF0020A6
:101FA000208000BFD7E770B5044600254B48007875
:101FB000002803DD46F66550208070BD4848007853
:101FC000012803D045F689602080F6E7454800786F
:101FD00018B946F664502080EFE700BF00BF03F059
:101FE000FBFA054600BF00BF3E480078401E3D4951
:101FF00008700846007800280ADD00BF00BF2846A8
:1020000003F0EEFA00BF00BF46F663502080D4E72D
:1020100000BF00BF284603F0E3FA00BF00BFFFF790
:1020200056FF0020208000BFC7E72DE9F04105469C
:102030000C461646002700BF00BF03F0CDFA074646
:1020400000BF00BF012D03D000202749087002E027
:1020500001202549087014B12548046006E0234892
:1020600000680A21B0FBF1F02149086000BF00BF01
:10207000384603F0B5FA00BF00BF00203080BDE84D
:10208000F08110B501460C8924B1012C03D0022C3B
:102090003ED101E000BF46E008684A6802610024C2
:1020A000C4601461D0600A6048603CE0740B00209A
:1020B000B40B0020746C0008706C00086C6C000895
:1020C00075432F4F532D4949492049646C6520546D
:1020D00061736B000C730020FC730020780B0020F0
:1020E000790B0020A30B0020A80B0020CC6C00086B
:1020F000A40B00209C6C0008986C0008A10B002029
:10210000E40B0020E00B0020CC0B002004ED00E0ED
:1021100008684A68C36800241C61C4600261D0601A
:102120000B60486000BF00BF10BD2DE9F0410446C0
:102130000027F7480078002804DD48F2D1402080CD
:10214000BDE8F081F3480078002803DD46F66350CF
:102150002080F5E7F0480078012803D046F67B1090
:102160002080EDE700BF00BF03F036FA074600BF4E
:1021700000BFEA48007800EB4000E94901EB800627
:10218000308902280ADA00BF00BF384603F028FA77
:1021900000BF00BF46F67A102080D1E73046FFF737
:1021A00070FF3568686D18B9DE480068A86501E001
:1021B000686DA86500BF00BF384603F011FA00BF84
:1021C00000BFFFF784FE0020208000BFB8E710B5F5
:1021D0000446D5480078E8B900F04EFFD3490870AE
:1021E00008460078CD490870D048007800EB4000E0
:1021F000CB4951F82000CE49086008460068CD4917
:1022000008600120C849087003F010F943F69920CE
:10221000208002E045F68A60208010BD0146002043
:10222000088047F2F850704730B540B145684D67B7
:1022300000F10804226893681D6AC56110E091F8F6
:102240003450022D02D0072D06D102E0BAA54D6709
:1022500005E0BBA54D6702E0BCA54D6700BF00BF10
:1022600030BDF0B58E6896F8375007893FB9012721
:10227000078100274F600F600160416023E00789FC
:102280007F1C0781026806E0946894F83770AF42BB
:1022900000DD02E05268002AF6D100BF32B9002703
:1022A0004F6043680B60596041600CE017682FB9BC
:1022B000116000270F604A60016004E013680B6042
:1022C0004A6059601160F0BD10B5C28701630023F8
:1022D0000AE000244C600C600C614C610C83CC6102
:1022E000886020315C1CA3B29342F2DB10BD2DE963
:1022F000F041054695F8370000EB4000884901EBB6
:1023000080042F69EE6887B946B9002020812060DB
:10231000606095F8370000F0D1FE0EE02089401E85
:10232000208100203061266007E02089401E208146
:10233000FE600EB9676000E0376100202861E86048
:10234000BDE8F08138B504460D4685B16B460222E2
:102350002946204602F0BEFCBDF8000018B9032053
:1023600084F8360006E0022084F8360002E00220FD
:1023700084F836002046FFF7BAFF38BD2DE9F0415A
:1023800005460C4616461F466A48006880F83460C9
:1023900000206849096881F83500394665480068B9
:1023A000FFF7D0FF6CB104F10808EC600122294668
:1023B00060480068FFF788FF29464046FFF751FF55
:1023C00006E000205B490968C8875A490968086324
:1023D000584801682046FFF727FFBDE8F08110B597
:1023E0000489012C03D100240460446011E00C68CE
:1023F00024B94A680024146002600AE04C6824B9D9
:102400000B6800245C60436003E00B684A685A6014
:1024100013600489641E048100244C600C6010BDAC
:102420002DE9F0410446256BE68F0AE0D5F80C80D3
:1024300008F1080729463846FFF7D1FF2035701EFE
:1024400086B2002EF2DC0020E0872063BDE8F08138
:1024500030B50346086BCC8F08E0C5689D4202D1B9
:102460000361C26104E02030651EACB2002CF4DCD4
:1024700000BF30BD10B590F8373003EB4303284C54
:1024800004EB83010B893BB901230B810023C3605B
:1024900003610860486009E00B895B1C0B810B68D5
:1024A000C360002303610A681061086010BD10B5A5
:1024B00090F8373003EB4303194C04EB83010B898D
:1024C0003BB901230B810023C360036108604860AE
:1024D00008E00B895B1C0B810023C3604A68026122
:1024E000D060486010BD10B5044694F8370000F085
:1024F000D5FD94F8370009490978884203D1204670
:10250000FFF7D5FF02E02046FFF7B4FF10BD000043
:10251000780B0020A30B0020A80B0020A00B0020AC
:10252000FC730020A40B0020790B0020A10B0020DD
:10253000E40B0020E00B00205461736B205100007D
:102540005461736B2053656D000000002000000093
:1025500010B50446204602F06DFA94F8360000F0FB
:10256000040010B92046FFF7BEFF10BD70B5054648
:102570000C46164694F8360008283FD2DFE800F0F3
:10258000040508090607232400BF00BF00BF36E08A
:1025900000BF94F83400032804D13246214628466F
:1025A000FFF756FF266415B12046FFF739FF204696
:1025B000FFF7CEFF00203434A070012060700020AF
:1025C00004F834091BE000BF94F83400032804D158
:1025D000324621462846FFF73BFF266415B12046C8
:1025E000FFF71EFF204602F025FA04203434A070C5
:1025F00001206070002004F8340900E000BF00BF33
:1026000070BD30B5AFF2BC054D6700F1080422681B
:102610001AB193681D6AC56102E0AFF2D005C561C9
:1026200030BD2DE9F04304460F4684F83770256B22
:10263000B4F83E8013E0D5F80C9009F10806308913
:10264000012807D929463046FFF7C9FE29463046FA
:10265000FFF707FE2035A8F101001FFA80F8B8F156
:10266000000FE8D1BDE8F0830021016041600181E5
:10267000704703895B1C038103684B6000230B6078
:10268000026802B1116001600389012B00D1416031
:10269000704730B50346086BCC8F08E0C5689D4293
:1026A00002D10361C26104E02030651EACB2002C8F
:1026B000F4DC00BF30BD70B506460C46154694F8F4
:1026C000360008283DD2DFE800F0040508090607B7
:1026D000222300BF00BF00BF34E000BF94F83400E5
:1026E000032804D12A4621463046FFF7D2FF25644D
:1026F0002046FFF795FE2046FFF72AFF00203434DE
:10270000A07002206070002004F834091AE000BFB5
:1027100094F83400032804D12A4621463046FFF7B6
:10272000B8FF2564204602F085F92046FFF778FEC1
:1027300004203434A07002206070002004F83409B2
:1027400000E000BF00BF70BDF0B50446059E086BF9
:10275000CD8F0AE0C768A74204D1046142610383B8
:10276000C66104E020306F1EBDB2002DF2DC00BF58
:10277000F0BD2DE9F84306460C4617469846089DDD
:1027800094F8360008284AD2DFE800F0040508096A
:102790000607282900BF00BF00BF41E000BF94F832
:1027A0003400032807D143463A4621463046009577
:1027B000FFF7CAFF00E0256436B12046FFF730FE80
:1027C00021463046FFF71DFF2046FFF7C1FE0020DF
:1027D0003434A070607004F8340921E000BF94F82C
:1027E0003400032807D143463A4621463046009537
:1027F000FFF7AAFF00E02564204602F01BF936B17E
:102800002046FFF70DFE21463046FFF7FAFE042072
:102810003434A0700020607004F8340900E000BF78
:1028200000BFBDE8F88310B5002400BF02F0D4FE5D
:10283000044600BF0020394908703948394908600A
:1028400039480068401C384908604FF080503749CB
:10285000086000BF204602F0C3FE00BF10BD70B587
:102860000546002632480078012800D070BD00BF20
:1028700000BF02F0B1FE064600BF00BF2C683CB9A5
:1028800000BF00BF304602F0ABFE00BF00BFEDE767
:102890002848844207D100BF00BF304602F0A0FEA6
:1028A00000BF00BFE2E7A06D10B1A06D401EA065A3
:1028B000A06D38B100BF00BF304602F091FE00BFEE
:1028C00000BFD3E72889022807DA00BF00BF3046DF
:1028D00002F086FE00BF00BFC8E717480078002856
:1028E00007DD00BF00BF304602F07AFE00BF00BF28
:1028F000BCE72846FFF7C5FB2C68606D18B90F4888
:102900000068A06501E0606DA06500BF00BF3046B3
:1029100002F066FE00BF00BF00BFA7E7A10B0020CA
:1029200084730020E40B0020CC0B002004ED00E0B9
:10293000A80B00200C730020A30B0020A40B002088
:102940001B481C481C481D481D481E481E481F485F
:102950001F4820482048214821482248224823482F
:1029600023482448244825482548264826482748FF
:10297000274828482848294829482A482A482B48CF
:102980002B482C482C482D482D482E482E482F489F
:102990002F4830483048314831483248324833486F
:1029A0003348344834483548354800BF7047000044
:1029B000106D0008786E0008126D0008136D000895
:1029C000146D0008186D00081C6D0008196D0008D2
:1029D0004C6D00084E6D0008506D0008706D0008C9
:1029E000726D0008746D00087C6D0008A86D000809
:1029F000AE6D0008AF6D0008B06D0008B26D000844
:102A0000B46D0008B66D0008B86D0008BA6D000816
:102A1000BC6D0008EC6D0008F26D0008F46D000854
:102A20001C6E00081D6E00081E6E00081F6E000858
:102A3000206E0008226E0008246E0008286E000830
:102A4000296E00082A6E00082B6E00082C6E000804
:102A50002D6E00082E6E00082F6E0008306E0008E4
:102A6000326E0008336E0008346E0008366E0008BF
:102A7000386E0008396E00083C6E0008706E000861
:102A8000766E00082DE9F84F04460D4616461F469F
:102A9000DDE90BABDDF82890DDF8348000200090F4
:102AA00000BF00BF02F098FD009000BF00BFB34818
:102AB0000088B349098888423BDAB0480088401C46
:102AC000AE490880AF4800880988884203DAAB48DD
:102AD0000088AC490880AC4800680460AA480068D7
:102AE0008560A9480068C660A74800680782A648B4
:102AF0000068C0F81490A4480068A0F818A0A24884
:102B00000068C0F81CB0A048006840689E49086092
:102B100001209E4908819E4808604860002000F01E
:102B2000BDFA9C4800789C4908700020A8F8000075
:102B300008E09A480088401C9849088044F2536095
:102B4000A8F8000000BF00BF009802F049FD00BFD8
:102B500000BFBDE8F88F2DE9F84F4FF0000B00BF24
:102B600000BF02F039FD834600BF00BF8C480068FB
:102B700006688B480068846889480068D0F80C8033
:102B800087480068B0F810A085480068D0F8149015
:102B900083480068078B82480068C56980480068E0
:102BA00040687F49086000BF00BF584602F018FD2A
:102BB00000BF00BF7B49701A8E421AD009DC7A48E8
:102BC000304478B17949084450B17949084440BB50
:102BD00010E078490844A0B17749084408BB00E0F8
:102BE00020E01FE06B462A463946204600F0F6FCFE
:102BF00018E017E06B462A463946204601F09EFB56
:102C000010E06549097801EB4101604A02EB81005F
:102C1000FFF725FE6B462A460021684801F08EFB2F
:102C200000E000BF00BFBDE8F88F002700BF3CE018
:102C3000002638E051480088C0B900BF00BF02F04C
:102C4000CBFC074600BF00BF002050490881086048
:102C5000486000F033FA00BF00BF384602F0C0FC05
:102C600000BF00BFFFF733F901261CE00025FFF786
:102C700072FF6C4252480068844201D95048046097
:102C800000BF00BF02F0A8FC074600BF00BF3B48E2
:102C90000088401E3949088000BF00BF384602F056
:102CA0009FFC00BF00BF002EC4D0C1E7F0B589B0C3
:102CB00005460020394908804248006820B944F29E
:102CC0005260288009B0F0BD2D480088022803DA40
:102CD00044F254602880F5E70020394908603948FB
:102CE00004682646203600270CE037482060002084
:102CF000A060E0602082606120836660203420361E
:102D0000781C87B21E4800888742EEDB203C2D48A5
:102D1000066866601C480660214806600020174966
:102D20000880184908802948006818B946F62C60C0
:102D30002880C7E72648006826490968884203D2E8
:102D400046F62D602880BDE7032000210591CDE9DE
:102D5000070506911E4800681F4A12681B4B1B6836
:102D6000CDE90301CDE9013200910B46AFF24512E6
:102D70001AA1074800F007FF00BFA3E7840B00205B
:102D8000806C0008860B00207C0B0020FC73002068
:102D900084730020A00B0020A20B0020880B0020D1
:102DA000800B0020544D5347ADBAB2BE0DF90BFA5B
:102DB000F2F8F7FF000410FC03F4FDF5D4740020D2
:102DC0008C0B00207C6C00084E4F4E45886C000830
:102DD000906C0008C86C00088C6C000875432F4F7D
:102DE000532D494949204953522051756575652035
:102DF0005461736B000000000021816193490968F0
:102E000011B90021C16105E090490968C1618F498C
:102E1000096888618D49086070472DE9FF4F83B0CC
:102E2000044615461F46DDE91096002000908848AC
:102E30000078002805DD45F2B960308007B0BDE8B4
:102E4000F08F1DB945F2BB603080F7E7022F03DA3F
:102E500045F2BC603080F1E7B9F1040F03D245F2CE
:102E6000C1603080EAE74FF0030ABAF1000F0CD0DE
:102E700005EA0A0018B145F2BB603080DEE709EAD6
:102E80000A0010B145F2C1603080AB46A846781EFA
:102E900080B201900020029007E0C844CBF8008087
:102EA000C3460298401C80B20290DDE901108842BE
:102EB000F3DB0020CBF8000000BF00BF00BF02F032
:102EC0008BFB009000BF00BF62480078401C614946
:102ED000087000BF00BF009802F082FB00BF00BF77
:102EE00000BF5D4820600498A0606560E560A7822F
:102EF0006782A4F810902046FFF77EFF57480088AD
:102F0000401C5649088000BF00BF00BF02F064FBB0
:102F1000009000BF00BF4F480078401E4D49087028
:102F200008460078A0B94E480088002809DD00BF97
:102F300000BF009802F054FB00BF00BFFFF773FC16
:102F40000DE000BF00BF009802F04AFB00BF06E0A2
:102F500000BF00BF009802F043FB00BF00BF00BFEE
:102F60000020308000BF69E72DE9F04104460D469E
:102F700000272CB945F2BF6028800020BDE8F08111
:102F800000BF00BF02F028FB074600BF00BFA08AB9
:102F900058B900BF00BF384602F022FB00BF00BF97
:102FA00045F2C26028800020E8E7E6683068E0600B
:102FB000A08A401EA08200BF00BF384602F010FB6E
:102FC00000BF00BF002028803046D7E72DE9F04140
:102FD00004460E461546002724B945F2BF602880F6
:102FE000BDE8F0811EB945F2BE602880F8E700BF59
:102FF00000BF02F0F1FA074600BF00BFA08A618A55
:1030000088420ADB00BF00BF384602F0E9FA00BF81
:1030100000BF45F2BA602880E2E7E0683060E66011
:10302000A08A401CA08200BF00BF384602F0D8FA38
:1030300000BF00BF0020288000BFD1E70021034A65
:103040001160064A1180018070470000900B00203B
:10305000780B0020A30B00204D454D20940B002041
:10306000840B0020002004E000211C4A42F82010BC
:10307000401C0028F8D0704770B50025174C03E0BD
:1030800005F12000C5B2241D20680028F8D0206872
:1030900002F0A9FA2844C5B2284670BD30B54209ED
:1030A00000F01F030121C3F11F04A1400B4C54F891
:1030B00022400C43094D45F8224030BD30B542094D
:1030C00000F01F030121C3F11F04A140034C54F879
:1030D00022408C43014D45F8224030BD700B00204A
:1030E000FDA1C16100214161FC49096811B90021BC
:1030F000816105E0F94909688161F8490968486119
:10310000F649086070472DE9F04104460E4617461F
:103110001D464FF00008F2480078002804DD42F612
:10312000E1602880BDE8F0811CB945F6C3502880D5
:10313000F8E700BF00BF02F04FFA804600BF00BFB3
:10314000E8482060276200206062666004F10800A1
:10315000FFF78AFA2046FFF7C3FFE3480088401CC8
:10316000E149088000BF00BF404602F039FA00BFC5
:1031700000BF0020288000BFD4E710B50446DB481C
:103180002060002020626062D9A0606004F1080025
:10319000FFF76AFA10BD426981693AB9CF4B1960ED
:1031A00009B100234B610023836109E019B90023B1
:1031B0009361436104E091614A610023836143614B
:1031C00070472DE9FC5F07468946144600200090B1
:1031D000C3480078002805DD43F2C9202080002084
:1031E000BDE8FC9F27B945F6C35020800020F7E7D3
:1031F00000BF00BF02F0F0F9009000BF00BF07F170
:103200000808B8F808502E46B9F1000F03D0B9F1FC
:10321000010F64D120E0A6B93846FFF7BCFFB248E1
:103220000088401EB04908803846FFF7A6FF00BF5F
:1032300000BF009802F0D4F900BF00BF002020803A
:1032400009E000BF00BF009802F0CAF900BF00BF4C
:1032500047F25E1020804DE000BFA7480078401C78
:10326000A549087000BF00BF009802F0B9F900BF7F
:1032700000BF00BF002001900AE0D8F800A0DAF8F3
:1032800008B059463846019AFFF715FA681E85B20C
:10329000002DF2D13846FFF77EFF93480088401E8C
:1032A000914908803846FFF768FF00BF00BF00BFA4
:1032B00002F092F9009000BF00BF8F480078401ED6
:1032C0008D49087000BF00BF009802F089F900BF67
:1032D00000BF00BFFEF7FBFD002020800AE000BF1A
:1032E00000BF009802F07CF900BF00BF45F62560E2
:1032F000208000BF00BF304672E72DE9F04788B05C
:103300000646894690461C46109D4FF0000A7448B8
:103310000078002806DD46F2AE102880002008B0B4
:10332000BDE8F08726B945F6C35028800020F6E7AF
:10333000B8F1000F03D0B8F5004F02D100E000BF94
:1033400004E045F6256028800020E8E700BF0CB1C6
:103350000020206000BF00BF02F03EF9824600BF9F
:1033600000BF306A88B1306A401E30620CB1706AAA
:103370002060376A00BF00BF504602F031F900BF3D
:1033800000BF002028803846C9E708F4004060B13B
:10339000376A00BF00BF504602F022F900BF00BFED
:1033A00046F2B01028803846B9E753480078002824
:1033B0000BDD00BF00BF504602F012F900BF00BF96
:1033C00046F6635028800020A9E700BF4A480078ED
:1033D000401C4949087000BF00BF504602F000F988
:1033E00000BF00BF00BF4B46062231466846FEF7CD
:1033F000C5FF00BF00BF00BF02F0EEF8824600BF6D
:1034000000BF3D480078401E3B49087000BF00BF28
:10341000504602F0E5F800BF00BF00BFFEF757FDC1
:1034200000BF00BF02F0D8F8824600BF00BF33489B
:10343000006890F8350030B101280CD002281AD06D
:10344000032821D110E01CB12C480068006C2060DA
:103450000020288024E01CB128480068006C20600F
:1034600046F2A91028801BE00CB10020206047F232
:10347000D920288014E01CB120480068006C20602E
:1034800045F6C25028800BE046F62B60288000BF2E
:1034900000BF504602F0A4F800BF00BF00203EE786
:1034A00000BF376A00BF00BF504602F099F800BF66
:1034B00000BF384633E72DE9F05F07460D46144656
:1034C0004FF0000B06480078002819DD46F2AA10DC
:1034D00020800020BDE8F09F20000000AC0B002001
:1034E000780B002053454D41B00B00204E4F4E4508
:1034F0003F53454D00000000A30B0020E00B0020CF
:1035000027B945F6C35020800020E3E71DB1B5F58B
:10351000807F02D100E000BF04E045F625602080F6
:103520000020D7E700BF00BF00BF02F055F8834678
:1035300000BF00BF07F10806308958B900BF00BFBF
:10354000584602F04DF800BF00BF46F2AB10208095
:103550000020BFE700BFAA480078401CA8490870B7
:1035600000BF00BF584602F03BF800BF00BF00BFDD
:103570004FF00008C2460FE03068D0F8089052467D
:1035800049463846FEF7F2FF08F101001FFA80F8BD
:10359000B5F5807F00D002E030890028ECDC00BF68
:1035A00000BF00BF00BF02F017F8834600BF00BF96
:1035B00093480078401E9249087000BF00BF5846EB
:1035C00002F00EF800BF00BF00BF05F4004008B9CC
:1035D000FEF77DFC0020208040467BE72DE9FF5F61
:1035E0000446884691461D460020019000BF00BF5A
:1035F00001F0F2FF019000BF00BF04F10807388915
:1036000000284FD10420012804D0022814D0042817
:1036100034D123E0206AFF280DD100BF00BF0198FC
:1036200001F0DEFF00BF00BF46F6C5502880002035
:1036300004B0BDE8F09F22E04FF6FF71206A884297
:103640000BD100BF00BF019801F0CAFF00BF00BF4F
:1036500046F6C55028800020EAE710E0206A401CAA
:1036600058B900BF00BF019801F0BAFF00BF00BF0A
:1036700046F6C55028800020DAE700E000BF00BF12
:10368000206A401C2062D4F820A0C4F8249000BF17
:1036900000BF019801F0A4FF00BF00BF00202880F8
:1036A0005046C5E700BF56480078401C5449087092
:1036B00000BF00BF019801F093FF00BF00BF00BF33
:1036C00008F4007008B13E8900E00126D7F800B088
:1036D00011E0DBF808000290DBF8040003900023FF
:1036E0001A46CDF8009020460299FFF742F8DDF81F
:1036F0000CB0701E86B2002EEBD1D4F820A000BF13
:1037000000BF00BF01F068FF019000BF00BF3C4850
:103710000078401E3A49087000BF00BF019801F0D0
:103720005FFF00BF00BF00BF08F4004008B9FEF70C
:10373000CEFB0020288050467AE72DE9FF41054660
:103740000F46144635B945F6C3502080002004B01A
:10375000BDE8F08100262B48007800280CDD002011
:10376000034602462946CDE9017603940090264897
:10377000FFF788F90020EAE7234632463946284613
:10378000FFF72CFF80464046E1E72DE9F041044673
:103790000E4615464FF000081A480078002804DD50
:1037A00046F6C6502880BDE8F0811CB945F6C350E6
:1037B0002880F8E70020288000BF00BF01F00CFF40
:1037C000804600BF00BF206A08B1266208E004F10D
:1037D0000807388908B9266202E047F25E1028809F
:1037E00000BF00BF404601F0FBFE00BF00BF00BFAE
:1037F000D9E70021054A1160054A11800180704710
:10380000A30B0020780B002053454D41AC0B00204A
:10381000B00B002070B50446002600209C490860CB
:103820009C4908809C4908609C4908609C48056840
:103830000EE000BF00BF01F0CFFE064600BF00BF94
:103840002D6F00BF00BF304601F0CAFE00BF00BFB1
:10385000002DEED101F038FB0020208070BDF8B5BE
:10386000044600266A460021022001F03FFBBDF815
:10387000000018B1BDF800002080F8BD00BF00BFF7
:1038800001F0AAFE064600BF00BF0020854908607F
:1038900000BF00BF304601F0A3FE00BF00BF0025FF
:1038A0008148006881490968884205D97E480068D6
:1038B0007E490968B0FBF1F525B97B4800680A210B
:1038C000B0FBF1F56A460021284601F00FFB00BF6E
:1038D00000BF01F081FE064600BF00BF00206E4918
:1038E00008607048006872490860012071490870DA
:1038F00000BF00BF304601F073FE00BF00BF0020D4
:10390000208000BFB9E708B54FF0000800BF06E00F
:103910006649096848006A46002101F0E7FA6548EF
:1039200000780128F4D16846FFF774FF00255E484F
:1039300000685E490968884205D95B4800685B49B0
:103940000968B0FBF1F525B9574800680A21B0FBBA
:10395000F1F557E0002700BF00BF01F03DFE8046B3
:1039600000BF00BF4F4800685349086000204D4920
:10397000086000BF00BF404601F032FE00BF00BF3C
:103980004B4800684C490968884213D94848006888
:1039900060B1494800686421484345490968B0FB63
:1039A000F1F0C0F164004549087006E06420434925
:1039B000087002E064204149087001F084FD384835
:1039C000046807E06B4604F16402111D204600F014
:1039D000B1FE246F002CF5D139480078012805D1BB
:1039E0000020374908706846FFF714FF7E422A48D6
:1039F0000068864201D9284806606A4600212846A8
:103A000001F074FAA6E710B58AB0044600202549F3
:103A10000860294908602649086026490870284935
:103A200008702848006820B946F62C6020800AB04B
:103A300010BD2548006825490968884203D246F62A
:103A40002D602080F3E722480078072803D346F250
:103A500073202080EBE7032000210591CDE90704C6
:103A600006910846184909681A4A1268154B1B68DE
:103A7000CDE90132CDE90310154800780023AFF2FB
:103A8000791215A10090194800F07DF800BFCEE72B
:103A90008C0B0020860B0020C40B0020DC0B0020C8
:103AA000D00B0020B40B0020CC6C0008B46C0008D4
:103AB000B80B0020C00B0020BC0B0020B20B002074
:103AC000C80B0020B86C0008C06C0008C86C000867
:103AD000B06C0008BC6C000875432F4F532D49494A
:103AE000492053746174205461736B005C7400202E
:103AF0000021C166FE49096811B90021016705E08E
:103B0000FB4909680167FA490968C866F84908600D
:103B100070470022026082604260C26002614261BE
:103B20008261C261F3A20262002242628262C262C8
:103B30000263C2870264002106E0002300F15C02F8
:103B400042F821304A1CD1B20029F6D0002234308C
:103B50000261426080F82C204263026302814FF0D0
:103B60000042426100228261C261026242620270CE
:103B7000427082700822C27000228263C263DFA298
:103B80000264343870472DE9FF4F87B004469046F1
:103B9000DDE91BA5DDE91496179F00200390D848A6
:103BA0000078002805DD47F24A1028800BB0BDE8F8
:103BB000F08F1CB947F2AD102880F7E7B8F1000F7D
:103BC00003D147F24F102880F0E71EB946F62C606B
:103BD0002880EBE7CB480068874203D246F62D6089
:103BE0002880E3E71698B84203D346F62E60288073
:103BF000DCE7B9F1080F03D346F273202880D5E73C
:103C0000B9F1000F06D1C048844203D046F27320B8
:103C10002880CBE7B9F1070F06D1BC48844203D016
:103C200046F273202880C1E72046FFF772FF00208C
:103C300028800AF0010090B10AF0020078B10596E0
:103C40000020069008E00021059801600598001DFD
:103C500005900698401C06900698B842F3D3169833
:103C600006EB80000490CDE9007A32464046049B82
:103C70000A9901F02CFC0590C4F828800A98E062AB
:103C80000898206284F83790059820600498A06016
:103C900019986065199818B99D480068A06501E0F9
:103CA0001998A0651A9860606662A763A4F83CA0A2
:103CB0004FF0000B08E0002104F15C0040F82B10ED
:103CC0000BF101001FFA80FBBBF1000FF3D020467F
:103CD00001F0FAFB00BF00BF00BF01F07DFC0390C4
:103CE00000BF00BF8B480078401C8A49087000BFA5
:103CF00000BF039801F074FC00BF00BF00BF94F840
:103D00003700FFF7CBF92046FEF7D1FB2046FFF73F
:103D1000EFFE81480088401C7F4908807F4800787A
:103D200001282DD000BF00BF00BF01F055FC03905B
:103D300000BF00BF77480078401E764908700846EB
:103D40000078A0B976480088002809DD00BF00BFD0
:103D5000039801F045FC00BF00BFFEF764FD0DE0D5
:103D600000BF00BF039801F03BFC00BF06E000BFAE
:103D700000BF039801F034FC00BF00BF00BF15E78F
:103D800000BF00BF00BF01F027FC039000BF00BFD1
:103D900060480078401E5F49087000BF00BF03986C
:103DA00001F01EFC00BF00BF00BFFEF790F800BF8F
:103DB000FCE6C26E016F3AB94D4B196009B10023A0
:103DC000CB660023036709E019B900231367C366B4
:103DD00004E01167CA6600230367C366704770B5C5
:103DE00004460D46002646480078002803DD47F2C9
:103DF0004E10288070BD4548844203D147F24C10D4
:103E00002880F7E74048844203D147F24D102880CC
:103E1000F0E77CB900BF00BF01F0DEFB064600BF43
:103E200000BF4048046800BF00BF304601F0D8FB27
:103E300000BF00BF00BF00BF00BF01F0CDFB0646C2
:103E400000BF00BF33480078401C3249087000BFF3
:103E500000BF304601F0C4FB00BF00BF00BF94F8B4
:103E6000360008282DD2DFE800F004090E10080AF9
:103E70000F112046FEF73BFA72E071E000BF2046CA
:103E800000F0D8FD6CE000BF00BF00BF204600F08E
:103E9000D1FD94F83400082810D2DFE800F00407C0
:103EA0000508090A0B0600BF00BF08E000BF00BFFD
:103EB00000BF00BF2046FEF7B3FA00E000BF00BF1E
:103EC0004EE000BF00BF00BF01F086FB064600BF0A
:103ED00000BF10480078401E0E4908700846007860
:103EE00088BB0F480088002826DD00BF00BF1BE00C
:103EF000D00B00203F5461736B00000020000000D5
:103F0000780B0020C86C0008847300200C7300201C
:103F1000A40B0020A30B0020D40B0020790B002061
:103F2000840B0020E00B0020304601F059FB00BF5D
:103F300000BFFEF778FC0EE000BF00BF304601F086
:103F40004FFB00BF07E0FFE700BF00BF304601F0B6
:103F500047FB00BF00BF00BF46F62A60288049E744
:103F600000BF204601F0B1FA2046FFF722FFFE48CD
:103F70000088401EFC4908802046FFF7CAFDFF204C
:103F800084F8360000BF00BF00BF01F025FB0646E5
:103F900000BF00BFF5480078401EF449087000BF1C
:103FA00000BF304601F01CFB00BF00BF00BFFDF7A3
:103FB0008EFF0020288000BF1CE72DE9F041044659
:103FC0000D4616464FF000082DB146F679103080A8
:103FD0000020BDE8F08100BF00BF01F0FDFA80467F
:103FE00000BF00BF0CB9E248046804F15C0050F85F
:103FF000257000BF00BF404601F0F2FA00BF00BFCD
:10400000002030803846E4E72DE9F04104460D46B3
:1040100017461E464FF0000825B146F6791030804D
:10402000BDE8F08100BF00BF01F0D6FA804600BFB6
:1040300000BF0CB9CE48046804F15C0040F825705C
:1040400000BF00BF404601F0CBFA00BF00BF002018
:10405000308000BFE4E770B504460D460026C54831
:104060000078002803DD47F25510288070BD00BF9E
:1040700000BF01F0B1FA064600BF00BF1CB1BC484A
:10408000006884420AD100BF00BF304601F0A8FAA0
:1040900000BF00BF47F257102880E7E700202880C4
:1040A00094F8360008287BD2DFE800F00405060704
:1040B0001243556700BF00BF00BF00BF00BF3046BE
:1040C00001F08EFA00BF00BF47F25310288072E063
:1040D00000BFA6480078401CA449087000BF00BF7C
:1040E000304601F07DFA00BF00BF00BF14F8600F3A
:1040F000401E207014F8600928B9002084F83600AA
:104100002046FEF725FA00BF00BF00BF01F064FAA9
:10411000064600BF00BF95480078401E93490870CE
:1041200000BF00BF304601F05BFA00BF00BF00BF18
:1041300041E014F8600F401E207014F8600910B9B7
:10414000012084F8360000BF00BF304601F048FA75
:1041500000BF00BF2FE014F8600F401E207014F85D
:10416000600910B9022084F8360000BF00BF304655
:1041700001F036FA00BF00BF1DE014F8600F401ECA
:10418000207014F8600910B9032084F8360000BFCD
:1041900000BF304601F024FA00BF00BF0BE0FFE78C
:1041A00000BF00BF304601F01BFA00BF00BF46F65B
:1041B0002A6028805AE700BFFDF789FE00BF55E757
:1041C0002DE9F0470746884614461D464FF0000982
:1041D00068480078002805DD46F2AE1028800020EF
:1041E000BDE8F0870CB10020206000BF00BF01F0E7
:1041F000F3F9814600BF00BF5D480068406CC8B15C
:104200005B480068406C401E59490968486458483A
:104210000068466C1CB156480068006C206000BF06
:1042200000BF484601F0DCF900BF00BF0020288035
:104230003046D5E708F4004058B100BF00BF4846FB
:1042400001F0CEF900BF00BF46F2B0102880002078
:10425000C6E74648007800280BDD00BF00BF48468F
:1042600001F0BEF900BF00BF46F663502880002071
:10427000B6E700BF3D480078401C3C49087000BFCD
:1042800000BF484601F0ACF900BF00BF00BF3B468D
:10429000072200210846FEF771F800BF00BF00BFEB
:1042A00001F09AF9814600BF00BF30480078401EF7
:1042B0002E49087000BF00BF484601F091F900BFC9
:1042C00000BF00BFFDF703FE00BF00BF01F084F98F
:1042D000814600BF00BF2648006890F8350020B135
:1042E00001280AD0032818D110E01CB1204800682A
:1042F000006C20600020288013E01CB11C4800687E
:10430000006C206046F2A91028800AE00CB1002061
:10431000206047F2D920288003E046F62B602880F1
:1043200000BF00BF12480068466C00BF00BF48468F
:1043300001F056F900BF00BF304651E72DE9F843C0
:104340000446884617461D464FF0000900BF00BFCF
:1043500000BF01F041F9814600BF00BF034800786B
:10436000401C0249087007E0D40B0020A30B00207A
:10437000E00B0020780B002000BF00BF484601F092
:104380002FF900BF00BF00BF0CB9F84804682764CC
:104390000020288094F83600082871D2DFE800F069
:1043A0000405EFF00607F1F200BF00BF00BF0420D4
:1043B000012804D0022839D004286FD170E0606C45
:1043C000FF2832D100BF00BF00BF01F005F98146D0
:1043D00000BF00BFE6480078401EE5490870084667
:1043E0000078A0B9E3480088002809DD00BF00BFBD
:1043F000484601F0F5F800BF00BFFEF714FA0DE0E3
:1044000000BF00BF484601F0EBF800BF06E000BF68
:1044100000BF484601F0E4F800BF00BF00BF46F609
:10442000C55028800020BDE8F88371E04FF6FF7189
:10443000606C884233D100BF00BF00BF01F0CCF8F0
:10444000814600BF00BFCA480078401EC8490870B6
:1044500008460078A8B9C7480088002809DD00BFD1
:1044600000BF484601F0BCF800BF00BFFEF7DBF913
:104470000EE000BF00BF484601F0B2F800BF07E001
:10448000D9E000BF00BF484601F0AAF800BF00BF56
:1044900000BF46F6C55028800020C4E737E037E06B
:1044A000606C401C88BB00BF00BF00BF01F094F8E7
:1044B000814600BF00BFAE480078401EAC4908707E
:1044C00008460078A0B9AB480088002809DD00BF85
:1044D00000BF484601F084F800BF00BFFEF7A3F913
:1044E0000DE000BF00BF484601F07AF800BF06E0CB
:1044F00000BF00BF484601F073F800BF00BF00BF17
:1045000046F6C550288000208DE7FFE700E000BF99
:1045100000BF606C401C6064666C00BF00BF00BFE1
:1045200001F05AF8814600BF00BF91480078401E54
:104530008F49087008460078A0B98E480088002886
:1045400009DD00BF00BF484601F04AF800BF00BFC8
:10455000FEF769F90DE000BF00BF484601F040F8E2
:1045600000BF06E000BF00BF484601F039F800BFB9
:1045700000BF00BF91E005E003E001E0FFE700BFFE
:1045800000BF00BF94F83400072822D100231A4648
:10459000214618460097FEF7ECF8666C00BF00BF96
:1045A00000BF01F019F8814600BF00BF70480078D5
:1045B000401E6F49087000BF00BF484601F010F868
:1045C00000BF00BF00BF08F4004098BBFDF77FFCB0
:1045D00030E0606C401C6064666C00BF00BF00BFD0
:1045E00000F0FAFF814600BF00BF61480078401E1E
:1045F0005F49087008460078A0B95E480088002826
:1046000009DD00BF00BF484600F0EAFF00BF00BF61
:10461000FEF709F90DE000BF00BF484600F0E0FFDB
:1046200000BF06E000BF00BF484600F0D9FF00BF52
:1046300000BF00BF31E000BF00BF00BF00F0CCFFF3
:10464000814600BF00BF4A480078401E48490870B4
:1046500008460078A0B947480088002809DD00BF57
:1046600000BF484600F0BCFF00BF00BFFEF7DBF80C
:104670000DE000BF00BF484600F0B2FF00BF06E0FB
:1046800000BF00BF484600F0ABFF00BF00BF00BF47
:1046900046F62A602880002600BF00BF3046C2E6EA
:1046A0002DE9FF4105460F461446002632480078A2
:1046B00000280EDD00200090034602462946CDE981
:1046C000026401902D48FEF7DDF9002004B0BDE83A
:1046D000F0812346324639462846FFF72FFE8046B2
:1046E0004046F3E72DE9F04104460F4615464FF0EA
:1046F000000821480078002805DD46F6C6502880CD
:104700000020BDE8F08100BF00BF00F065FF8046DB
:1047100000BF00BF0CB915480468666C676400BF31
:1047200000BF404600F05CFF00BF00BF00202880B3
:104730003046E6E72DE9F04705460E4617461C468B
:104740004FF0000A0C480078002804DD47F25810AA
:104750002080BDE8F0871EB946F2D5202080F8E71A
:1047600077B946F2D5202080F3E70000E00B002067
:10477000A30B0020840B0020780B002054534947E2
:1047800000BF00BF00F028FF824600BF00BF0DB988
:104790009F480568286868B900BF00BF504600F010
:1047A0001FFF00BF00BF00203060386047F252108A
:1047B0002080CEE795F83C0000F0010068B900BF0A
:1047C00000BF504600F00CFF00BF00BF002030606B
:1047D000386047F254102080BBE700BF00BF50464E
:1047E00000F0FEFE00BF00BF4FF00008D5F8249097
:1047F00003E009F1040908F10108D9F800000028D4
:10480000F7D0C6F80080A86BA0EB08003860002045
:10481000208000BF9DE770B504460D4600267D4808
:104820000078002803DD47F25C10288070BD7A48CC
:10483000844203D147F25A102880F7E77748844230
:1048400003D147F25B102880F0E700BF00BF00F003
:10485000C3FE064600BF00BF0CB96D4804686C4833
:10486000006884420ED16E48007800280ADD00BF3F
:1048700000BF304600F0B4FE00BF00BF46F66350F4
:104880002880D3E70020288094F8360008286CD2CE
:10489000DFE800F004313F4D5B5C5D5E00BF6048C7
:1048A0000078401C5E49087000BF00BF304600F031
:1048B00097FE00BF00BF00BF042084F8360001202F
:1048C00084F860002046FDF712FD00BF00BF00BF66
:1048D00000F082FE064600BF00BF51480078401E2F
:1048E0004F49087000BF00BF304600F079FE00BF9E
:1048F00000BF00BF44E0052084F83600012084F8A2
:10490000600000BF00BF304600F06AFE00BF00BF7D
:1049100036E0062084F83600012084F8600000BFED
:1049200000BF304600F05CFE00BF00BF28E007205B
:1049300084F83600012084F8600000BF00BF3046D4
:1049400000F04EFE00BF00BF1AE000BF00BF00BF76
:1049500094F86000401C84F8600000BF00BF30463F
:1049600000F03EFE00BF00BF0AE000BF00BF3046BF
:1049700000F036FE00BF00BF46F62A60288055E7EB
:1049800000BFFDF7A4FA00BF50E72DE9F04104464F
:104990000D46164600271F480078002804DD46F61D
:1049A000C6503080BDE8F08100BF00BF00F014FEAB
:1049B000074600BF00BF0CB9154804681DB9194867
:1049C0000068606500E06565D4E91501884201D999
:1049D000606DA06500BF00BF384600F001FE00BF5B
:1049E00000BF0020308000BFDCE700210E4A1160CC
:1049F0000E4A11800E4A11600180704708B50448C4
:104A0000006800F063FD69460020FFF7E8F908BD83
:104A1000E00B0020780B00200C7300208473002032
:104A2000A30B0020A40B0020D00B0020D40B0020EF
:104A3000CC0B002010B5C269BAB10024046514681B
:104A4000844205D14169116039B100248C6104E0D0
:104A5000816943694B6103B19961002444618461B8
:104A6000C461C4649488641E948010BD2DE9F05F15
:104A70004FF0000B00BF00BF00BF00F0ADFD83464C
:104A800000BF00BFFE480078401CFD49087000BF11
:104A900000BF584600F0A4FD00BF00BF00BF4FF0AC
:104AA000000AF8480068401CF6490860084600689B
:104AB000F5490988B0FBF1F201FB12001FFA80F9F9
:104AC000F24800EBC9073C68002678E0002C75D05E
:104AD000D4F8148094F8360008286BD2DFE800F090
:104AE0000408051B0638074B00BF00BF00BF62E08B
:104AF000E449E06C0968401A2065E249E06C096805
:104B0000884206D1002084F836002046FDF720FDBB
:104B100000E001264FE0DB49E06C0968401A20659F
:104B2000D849E06C0968884210D1002020642046F2
:104B3000FDF776FC2046FDF70BFD00203434A07015
:104B400003206070002004F8340900E0012632E000
:104B5000CC49E06C0968401A2065CA49E06C0968D4
:104B6000884206D1042084F836002046FFF762FF11
:104B700000E001261FE0C349E06C0968401A206587
:104B8000C049E06C0968884210D1002020642046AA
:104B9000FDF746FC2046FFF74DFF04203434A0709B
:104BA00003206070002004F8340900E0012602E0D0
:104BB00004E0FFE700BF00BF444600E00126002EEE
:104BC00084D0CAF10005B2480068854201D9B048D6
:104BD000056000BF00BF00BF00F0FEFC834600BFC1
:104BE00000BFA7480078401EA54908700846007815
:104BF000A0B9A8480088002809DD00BF00BF5846BA
:104C000000F0EEFC00BF00BFFDF70DFE0DE000BFA1
:104C100000BF584600F0E4FC00BF06E000BF00BF44
:104C2000584600F0DDFC00BF00BF00BFBDE8F09FAC
:104C30001CB500BF0EE001AB6A4600210846FFF735
:104C4000BFFABDF8040028B993480078012801D1C3
:104C5000FFF70CFFEFE7002108E08C4A02EBC100F0
:104C6000002202608280C2804A1C91B2864A128869
:104C70009142F2DB704710B58AB0044600208149AA
:104C8000086083490860FFF7E6FF8448007807283A
:104C900004D346F2732020800AB010BD0320002107
:104CA0000591CDE9070406917D4802687D480068BA
:104CB0007D4B1B68CDE90130CDE9032177480078B1
:104CC0000023AFF2930279A100907D48FEF75BFFCD
:104CD00000BFE1E72DE9F04F0C4616461D46042EB5
:104CE0001ED1DFF8A091D9F80090A4EB0909A9F131
:104CF000010313F5803F0DD94FF00009C0F84C9027
:104D0000C0F85090C0F81C9047F27E29A5F800909A
:104D1000BDE8F08FC46403F10109C0F850903FE092
:104D200084B3082E25D1D0F8489009EB0407DFF8AA
:104D30005491D9F80090A7EB0909A9F10103A34206
:104D400001D2C76406E0DFF83C91D9F80090A14495
:104D5000C0F84C90DFF82CA1D0F84C90DAF800A005
:104D6000A9EB0A09C0F85090D0F84C90C0F84890D0
:104D700016E0DFF81091D9F80090A144C0F84C90EB
:104D800004650DE0FFE74FF00009C0F84C90C0F853
:104D90005090C0F81C9047F27E29A5F80090B7E724
:104DA000DFF8E4A0BAF800A0D0F84C90B9FBFAFB09
:104DB0000AFB1B991FFA89F8DFF8D09009EBC802AB
:104DC000B2F80490B9F1000F0BD14FF00009C0F810
:104DD0001490C0F8189010604FF00109A2F80490E8
:104DE0003EE0116834E0DFF89CA0D1F84C90DAF88E
:104DF00000A0A9EB0A09C1F85090D0F85090D1F862
:104E000050A0D1450ED9D1F81490B9F1000F01D0BE
:104E100049691DE04FF00009C0F8149081614861B4
:104E2000002115E0D1F81890B9F1000F07D14FF02B
:104E30000009C0F8189041618861106007E0D1F85E
:104E400018C0C0F818C04161CCF814008861002176
:104E50000029C8D1B2F8049009F10109A2F8049020
:104E6000B2F80690B2F804A0D14503DAB2F8049083
:104E7000A2F80690C2614FF00009A5F8009021E069
:104E8000A30B0020D80B0020E46C0008A4720020C3
:104E9000DC0B0020840B0020790B0020D06C000874
:104EA000DC6C0008D86C0008D46C000875432F4FE8
:104EB000532D494949205469636B205461736B0039
:104EC000D474002000BF23E7002006E0054A02EB6F
:104ED000C0010022CA80421C90B2034A128890424C
:104EE000F4DB7047A4720020E46C00082DE9F04167
:104EF00005460E4614460027FE480078002804DDCB
:104F000047F275202080BDE8F081FB48007800283A
:104F100003DD46F663502080F5E736B1022E05D05A
:104F2000042E0AD0082E09D101E000BF00BF1DB930
:104F300047F27E202080E6E704E003E045F62560A6
:104F40002080E0E700BF00BF00BF00BF00F044FBCF
:104F5000074600BF00BFE8480078401CE6490870DB
:104F600000BF00BF384600F03BFB00BF00BF00BFE2
:104F70000120E249096881F8360023463246294675
:104F8000DE480068FFF7A6FE2088A8B100BF00BF7A
:104F900000BF00F021FB074600BF00BFD6480078E5
:104FA000401ED549087000BF00BF384600F018FB0E
:104FB00000BF00BF00BFA6E7D0480068FDF797F923
:104FC00000BF00BF00BF00F007FB074600BF00BFE7
:104FD000C9480078401EC849087000BF00BF384665
:104FE00000F0FEFA00BF00BF00BFFCF770FF00201A
:104FF000208000BF87E72DE9FF5F05460E46174674
:105000009846DDE90EA400200090BA4800780028F8
:1050100004DD47F275202080BDE8FF9FB648007888
:10502000002803DD46F663502080F5E70AF00E0BFA
:10503000BBF1000F09D0BBF1020F07D0BBF1040F89
:1050400010D0BBF1080F0ED101E000BF00BFB8F1D6
:10505000000F06D12FB926B91DB947F27E20208056
:10506000DAE704E003E045F625602080D4E700BFDE
:105070002AF01E0008B1012000E0002003900398F0
:10508000012803D145F625602080C5E7CAF300104A
:1050900002900298C0B9B8F57A7F03D347F27B201B
:1050A0002080B9E73B2F03DD47F27A202080B3E769
:1050B0003B2E03DD47F279202080ADE7632D12DD22
:1050C00047F278202080A7E742F20F70864203DD86
:1050D00047F2792020809FE7B5F57A7F03DB47F21E
:1050E0007820208098E78648D0F800904FF4FA7036
:1050F000B0FBF9F0404400FB09F04FF47A71B0FBCB
:10510000F1F14FF461606843C6EB061200EB8200D8
:10511000384400FB091001900198002856D000BFC8
:1051200000BF00BF00F058FA009000BF00BF7248F7
:105130000078401C7049087000BF00BF009800F064
:105140004FFA00BF00BF00BF01206C49096881F819
:10515000360023465A46694801990068FFF7BAFDB0
:105160002088A8B100BF00BF00BF00F035FA009052
:1051700000BF00BF60480078401E5F49087000BF54
:1051800000BF009800F02CFA00BF00BF00BF43E74B
:105190005A480068FDF7ABF800BF00BF00BF00F041
:1051A0001BFA009000BF00BF53480078401E5249D0
:1051B000087000BF00BF009800F012FA00BF00BFE7
:1051C00000BFFCF784FE0020208002E047F27E2032
:1051D000208000BF20E770B505460C4600264548F4
:1051E0000078002803DD47F27620208070BD1DB9CD
:1051F00047F251102080F9E700BF00BF00F0ECF942
:10520000064600BF00BF95F8360008287AD2DFE8CE
:1052100000F0040F3E49545F96A100BF00BF304626
:1052200000F0DEF900BF00BF47F251102080A7E078
:1052300000BF31480078401C2F49087000BF00BFF4
:10524000304600F0CDF900BF00BF00BF002085F858
:1052500036002846FFF7EEFB2846FDF744F900BF6D
:1052600000BF00BF00F0B8F9064600BF00BF2248EB
:105270000078401E2049087000BF00BF304600F093
:10528000AFF900BF00BF00BF0020208078E000BF62
:1052900000BF304600F0A4F900BF00BF47F2511034
:1052A00020806DE000BF00BF304600F099F900BFDC
:1052B00000BF47F25110208062E000BF00BF3046BF
:1052C00000F08EF900BF00BF47F25110208057E078
:1052D00000BF09480078401C0749087000BF00BFA4
:1052E000304600F07DF900BF00BF00BF042085F804
:1052F000360008E0780B0020A30B0020E00B002014
:10530000CC6C000831E02846FFF794FB00BF00BFDB
:1053100000BF00F061F9064600BF00BF3E480078BC
:10532000401E3D49087000BF00BF304600F058F9EC
:1053300000BF00BF00BF47F25910208020E000BF2F
:1053400000BF304600F04CF900BF00BF47F25110DB
:10535000208015E000BF00BF304600F041F900BFDB
:1053600000BF47F2511020800AE000BF00BF304666
:1053700000F036F900BF00BF46F62A60208000BF6B
:1053800000BFFCF7A4FD00BF30E770B5044600265F
:1053900000BF00BF00F020F9064600BF00BF1F4855
:1053A000056800BF00BF304600F01AF900BF00BF1B
:1053B00000202080284670BD70B504460D460026AA
:1053C00000BF00BF00F008F9064600BF00BF134849
:1053D000046000BF00BF304600F002F900BF00BF0C
:1053E0000020288070BD10B586B000F0CFF80024F2
:1053F00005A800210091CDE9011403900848007828
:1054000000EB4000074A02EB800100231A460648E1
:10541000FDF738FB06B010BDA30B0020D80B002011
:10542000A00B0020FC7300205449434B18484FF058
:10543000FF010170002080F309881648016881F39C
:10544000088815484FF08051016062B6FEE772B6D9
:10545000EFF3098028B1203880E8F00F0F49096880
:10546000086000B50E4880475DF804EB0D480E4912
:105470000A78027009480D490A680260106890E8CD
:10548000F00F203080F309884EF0040E62B67047AA
:1054900022ED00E0E80B002004ED00E0E00B00202E
:1054A0008B550008A00B0020A10B0020E40B00206E
:1054B0007047424800684249096800EB8100001FBC
:1054C0004049086070477047704770477047F0B5B3
:1054D0000446DDE9055602EB85004FF0807C071F8E
:1054E0003846C7F800C0071F38463C60DFF8D8C010
:1054F000071F3846C7F800C04FF0123C071F384658
:10550000C7F800C04FF0033C071F3846C7F800C07B
:105510004FF0023C071F3846C7F800C0071F384647
:105520003B60071F384639604FF0113C071F384673
:10553000C7F800C04FF0103C071F3846C7F800C03E
:105540004FF0093C071F3846C7F800C04FF0083C31
:10555000071F3846C7F800C04FF0073C071F384602
:10556000C7F800C04FF0063C071F3846C7F800C018
:105570004FF0053C071F3846C7F800C04FF0043C09
:10558000071F3846C7F800C0F0BD70477047014696
:105590004A1E4FF0E0235A610C4A106820F07F4009
:1055A00000BF10601A46126942F005021A611A46DD
:1055B000126942F002021A6170470000986C0008FC
:1055C0009C6C0008E80B0020FD49000820ED00E07D
:1055D00072B6704762B67047EFF3108072B67047CC
:1055E00080F310887047B0FA80F0704790FAA0F00E
:1055F000704730BF704720BF70470246108800F0E8
:105600008000802803D1C8B290800020704701201C
:10561000FCE770B506460C461546002300BF07E0C0
:1056200000BFE15C3046FFF7E8FF0028F9D15B1CC2
:10563000AB42F5DB70BD0246108800F02000202848
:1056400003D190880870002070470120FCE770B5F6
:1056500005460C46204600F097F9002070BD2DE964
:10566000F04307AC94E8F0100160426083608481ED
:10567000C5814FF00008A0F81080A0F81280A0F8B3
:105680001680A0F81880A0F81A80A0F81480C661CF
:105690000762C0F824C04FF0010880F82880D0F8D5
:1056A0000880B8F1000F09D0D0F80080B8F80C805D
:1056B00048F02008D0F80090A9F80C80BDE8F083ED
:1056C000C1617047016270474162704770B504461E
:1056D0000D4629462068FFF7BAFF70BD70B5044635
:1056E0000D46012000F003F9668B002000F0FFF862
:1056F00016B10DB1A06808B9012070BD218BA0685A
:10570000405C2870012000F0F2F8208B401C80B231
:105710002083E189884201DB00202083608B401ECA
:105720006083002000F0E3F80020E6E72DE9F04177
:1057300007460E46154600240AE031193846FFF7A1
:10574000CDFF012802D12046BDE8F081601C84B263
:10575000AC42F2DB2846F7E7F8B504460E4617469A
:10576000E06908B1E06980470EB1606800B9F8BD32
:1057700000252FE014E0012000F0B9F8A08A009085
:10578000002000F0B4F8A089BDF80010884200DDC8
:1057900007E02068808940F080002168888100BF90
:1057A000E9E700BF705D228A61688854012000F03B
:1057B0009EF8208A401C80B22082A189884201DBA9
:1057C00000202082A08A401CA082002000F08FF8D8
:1057D000681C85B2BD42CDDB2068808940F0800026
:1057E0002168888100BFC2E713B50446012201A9E0
:1057F0002046FFF7B1FF1CBD38B5044694F82800D9
:1058000000B938BD2068808900F0200000B36946E7
:105810002068FFF710FFD0B99DF80000E28AA16868
:105820008854E08A401C80B2E082E189884201DB32
:105830000020E082608BE189884202DA608B401CA4
:105840006083606A18B19DF80000616A884700BFF4
:105850002068808900F0800010B3A08A60B92068B9
:10586000808920F08000216888812068808940F04C
:1058700040002168888138E0638A6268D15C2068D2
:10588000FFF7BBFE88BB608A401C80B26082A189A2
:10589000884201DB00206082A08A401EA08224E0B2
:1058A0002068808900F04000F8B1A08A50B92068D3
:1058B000808920F0400021688881206AA8B1206A90
:1058C000804712E0638A6268D15C2068FFF795FE2A
:1058D00058B9608A401C80B26082A189884201DB8D
:1058E00000206082A08A401EA08200BF89E780F36A
:1058F0001088704710B586B0044601217348FAF746
:10590000FEFD4FF40070ADF8140018208DF817005C
:1059100003208DF8160005A96D48FAF7A7FE4FF48D
:105920008060ADF8140004208DF8170005A96848C0
:10593000FAF79CFE01940020ADF80800ADF80A00CB
:10594000ADF80C00ADF810000C20ADF80E0001A968
:105950006048FBF78AF8012240F225515D48FBF7C9
:105960001CF901215B48FBF70CF906B010BD10B51E
:10597000044624B101215748FBF703F903E0002155
:105980005448FBF7FEF810BD1FB5044600215148EE
:10599000FBF7F7F800940020ADF80400ADF806001E
:1059A000ADF80800ADF80C000C20ADF80A0069460F
:1059B0004848FBF75AF8012240F225514548FBF7C9
:1059C000ECF801214348FBF7DCF81FBD08B54FF4A4
:1059D000E060FAF799FF25208DF8000001208DF88E
:1059E000010000208DF8020001208DF803006846B8
:1059F000FAF78FFF08BD08B54FF4E060FAF784FFAF
:105A000026208DF8000001208DF8010000208DF87F
:105A1000020001208DF803006846FAF77AFF08BDFE
:105A200000B585B001214804FAF769FD0121042081
:105A3000FAF758FD0420ADF8100018208DF8130077
:105A400003208DF8120004A92148FAF70FFE082060
:105A5000ADF8100004208DF8130004A91C48FAF7D3
:105A600005FE4FF4E13000900020ADF80400ADF8E1
:105A70000600ADF80800ADF80C000C20ADF80A00E7
:105A800069461548FAF7F1FF012240F22551124804
:105A9000FBF783F801211048FBF773F8FFF7ABFF22
:105AA00005B000BD70B505460E4600240BE0295D2B
:105AB0000948FBF7D3F800BF0748008800F08000D2
:105AC0000028F9D0641CB442F1DB70BD0400020070
:105AD00000080140003801400044004038B5044649
